:020000040800F2
:1000000000040020C1010008115E0008115E000814
:10001000311B0008115E0008115E0008115E000827
:10002000115E0008115E0008115E0008817B000867
:10003000115E0008115E0008115E0008F1DF000883
:10004000115E000871AF000801B1000851B100084D
:10005000115E0008115E0008B1AC000801AD000897
:1000600051AD0008A1AD0008F1AD0008F1A10008F4
:1000700041A2000891A20008E1A2000831A30008F3
:1000800081A30008D1A3000821AB0008F1B2000849
:1000900061B3000811B40008C1B4000841AE000803
:1000A000115E0008115E0008A1DA0008115E000868
:1000B000B1DB0008F1DB000831DC000881C2000878
:1000C000C1C30008115E0008115E0008115E00083F
:1000D000115E0008115E0008115E0008B1E0000822
:1000E000D1AE0008C1AF000811B00008115E0008D1
:1000F000115E0008115E0008115E000821A40008CE
:10010000115E000851B6000871DC0008115E00089D
:10011000115E0008115E000861DA0008115E000837
:1001200071A40008C1A4000811A5000861A5000879
:10013000B1A50008115E000861B00008115E00085A
:10014000115E0008115E0008115E0008A1D60008CB
:1001500001A6000851A60008A1A60008115E00082B
:10016000115E0008115E0008115E0008115E0008B3
:10017000B1B00008115E000841180008115E0008C7
:10018000115E0008115E0008115E0008115E000893
:10019000115E0008115E0008115E0008115E000883
:1001A000115E0008115E0008115E0008115E000873
:1001B000115E0008115E0008115E0008115E000863
:1001C00072B62E4880F3098840F20000CCF200009D
:1001D0004EF63471CEF20001086040F20000C0F229
:1001E000F0004EF68851CEF2000108604FF000009A
:1001F000E1EE100A4EF63C71CEF2000108600620D6
:1002000080F31488BFF36F8F0EF09AF84FF05530DB
:100210001B491C4A91423CBF41F8040BFAE71A49BA
:10022000164A91423CBF41F8040BFAE71749184AB5
:10023000184B9A423EBF51F8040B42F8040BF8E702
:1002400000201549154A91423CBF41F8040BFAE7DA
:1002500005F0C6FD124C134DAC4203DA54F8041BF2
:100260008847F9E701F014FA0F4C104DAC4203DA5D
:1002700054F8041B8847F9E705F0C2BD00080020C8
:10028000000000200004002000040020783901084C
:10029000000800209414002098140020102C002046
:1002A000C0010008C0010008C0010008C00100082A
:1002B0002DE9F04F2DED108AC1F80CD0D0F80CD0FC
:1002C000BDEC108ABDE8F08F05F0E2FE06F0D0FE2E
:1002D000002383F311882846A047002006F068FC1D
:1002E00006F0AEFE05F0B4FE06F0D2FA05F0D0FE40
:1002F00006F0BEFE00DFFEE7000000000000000088
:1003000081F0004102E000BF83F0004330B54FEAC6
:1003100041044FEA430594EA050F08BF90EA020F33
:100320001FBF54EA000C55EA020C7FEA645C7FEAC6
:10033000655C00F0E2804FEA5454D4EB5555B8BFE9
:100340006D420CDD2C4480EA020281EA030382EA5A
:10035000000083EA010180EA020281EA0303362DEC
:1003600088BF30BD11F0004F4FEA01314FF4801CBF
:100370004CEA113102D0404261EB410113F0004FD1
:100380004FEA03334CEA133302D0524263EB430388
:1003900094EA050F00F0A780A4F10104D5F1200E26
:1003A0000DDB02FA0EFC22FA05F2801841F1000181
:1003B00003FA0EF2801843FA05F359410EE0A5F155
:1003C00020050EF1200E012A03FA0EFC28BF4CF086
:1003D000020C43FA05F3C01851EBE37101F000453C
:1003E00007D54FF0000EDCF1000C7EEB00006EEB49
:1003F0000101B1F5801F1BD3B1F5001F0CD34908D3
:100400005FEA30004FEA3C0C04F101044FEA445229
:1004100012F5800F80F09A80BCF1004F08BF5FEAB0
:10042000500C50F1000041EB045141EA050130BD90
:100430005FEA4C0C404141EB010111F4801FA4F133
:100440000104E9D191F0000F04BF01460020B1FA88
:1004500081F308BF2033A3F10B03B3F120020CDAC0
:100460000C3208DD02F1140CC2F10C0201FA0CF09E
:1004700021FA02F10CE002F11402D8BFC2F1200C03
:1004800001FA02F120FA0CFCDCBF41EA0C019040B9
:10049000E41AA2BF01EB0451294330BD6FEA040402
:1004A0001F3C1CDA0C340EDC04F11404C4F12002ED
:1004B00020FA04F001FA02F340EA030021FA04F3FF
:1004C00045EA030130BDC4F10C04C4F1200220FA56
:1004D00002F001FA04F340EA0300294630BD21FA94
:1004E00004F0294630BD94F0000F83F4801306BF5A
:1004F00081F480110134013D4EE77FEA645C18BF4E
:100500007FEA655C29D094EA050F08BF90EA020FE4
:1005100005D054EA000C04BF1946104630BD91EADC
:10052000030F1EBF0021002030BD5FEA545C05D1DF
:100530004000494128BF41F0004130BD14F580041E
:100540003CBF01F5801130BD01F0004545F0FE4192
:1005500041F470014FF0000030BD7FEA645C1ABFC7
:10056000194610467FEA655C1CBF0B46024650EAFE
:10057000013406BF52EA033591EA030F41F400212A
:1005800030BD00BF90F0000F04BF0021704730B5B0
:100590004FF4806404F132044FF000054FF0000185
:1005A00050E700BF90F0000F04BF0021704730B546
:1005B0004FF4806404F1320410F0004548BF40421B
:1005C0004FF000013EE700BF42004FEAE2014FEA70
:1005D00031014FEA02701FBF12F07F4393F07F4F4B
:1005E00081F06051704732F07F4208BF704793F04E
:1005F0007F4F04BF41F40021704730B54FF4607461
:1006000001F0004521F000411CE700BF50EA010263
:1006100008BF704730B54FF000050AE050EA01020C
:1006200008BF704730B511F0004502D5404261EB7C
:1006300041014FF4806404F132045FEA915C3FF4BD
:10064000D8AE4FF003025FEADC0C18BF03325FEA5A
:10065000DC0C18BF033202EBDC02C2F1200300FA0B
:1006600003FC20FA02F001FA03FE40EA0E0021FA30
:1006700002F11444BDE600BF0000000000000000CD
:1006800070B54FF0FF0C4CF4E06C1CEA11541DBF28
:100690001CEA135594EA0C0F95EA0C0F00F0DEF8F3
:1006A0002C4481EA030621EA4C5123EA4C5350EAD8
:1006B000013518BF52EA033541F4801143F4801329
:1006C00038D0A0FB02CE4FF00005E1FB02E506F0BA
:1006D0000042E0FB03E54FF00006E1FB03569CF00F
:1006E000000F18BF4EF0010EA4F1FF04B6F5007F15
:1006F00064F5407404D25FEA4E0E6D4146EB060687
:1007000042EAC62141EA55514FEAC52040EA5E500F
:100710004FEACE2EB4F1FD0C88BFBCF5E06F1ED8B9
:10072000BEF1004F08BF5FEA500E50F1000041EBF0
:10073000045170BD06F0004646EA010140EA02009D
:1007400081EA0301B4EB5C04C2BFD4EB0C0541EABF
:10075000045170BD41F480114FF0000E013C00F3D4
:10076000AB8014F1360FDEBF002001F0004170BDF8
:10077000C4F10004203C35DA0C341BDC04F1140411
:10078000C4F1200500FA05F320FA04F001FA05F29D
:1007900040EA020001F0004221F0004110EBD3706A
:1007A00021FA04F642EB06015EEA430E08BF20EA96
:1007B000D37070BDC4F10C04C4F1200500FA04F339
:1007C00020FA05F001FA04F240EA020001F00041CB
:1007D00010EBD37041F100015EEA430E08BF20EA3E
:1007E000D37070BDC4F1200500FA05F24EEA020E86
:1007F00020FA04F301FA05F243EA020321FA04F0B5
:1008000001F0004121FA04F220EA020000EBD3706B
:100810005EEA430E08BF20EAD37070BD94F0000F6B
:100820000FD101F00046400041EB010111F4801F9F
:1008300008BF013CF7D041EA060195F0000F18BF50
:10084000704703F00046520043EB030313F4801F8C
:1008500008BF013DF7D043EA0603704794EA0C0F46
:100860000CEA135518BF95EA0C0F0CD050EA41065C
:1008700018BF52EA4306D1D181EA030101F00041D9
:100880004FF0000070BD50EA410606BF1046194601
:1008900052EA430619D094EA0C0F02D150EA01360D
:1008A00013D195EA0C0F05D152EA03361CBF10464E
:1008B00019460AD181EA030101F0004141F0FE41ED
:1008C00041F470014FF0000070BD41F0FE4141F471
:1008D000780170BD70B54FF0FF0C4CF4E06C1CEA71
:1008E00011541DBF1CEA135594EA0C0F95EA0C0F26
:1008F00000F0A7F8A4EB050481EA030E52EA0335E1
:100900004FEA013100F088804FEA03334FF0805501
:1009100045EA131343EA12634FEA022245EA11152E
:1009200045EA10654FEA00260EF000419D4208BFDF
:10093000964244F1FD0404F5407402D25B084FEA8C
:100940003202B61A65EB03055B084FEA32024FF438
:1009500080104FF4002CB6EB020E75EB030E22BF95
:10096000B61A754640EA0C005B084FEA3202B6EB55
:10097000020E75EB030E22BFB61A754640EA5C0004
:100980005B084FEA3202B6EB020E75EB030E22BF94
:10099000B61A754640EA9C005B084FEA3202B6EB95
:1009A000020E75EB030E22BFB61A754640EADC0054
:1009B00055EA060E18D04FEA051545EA16754FEAB6
:1009C00006164FEAC30343EA52734FEAC2025FEAD4
:1009D0001C1CC0D111F4801F0BD141EA00014FF063
:1009E00000004FF0004CB6E711F4801F04BF014334
:1009F0000020B4F1FD0C88BFBCF5E06F3FF6AFAE50
:100A0000B5EB030C04BFB6EB020C5FEA500C50F1DF
:100A1000000041EB045170BD0EF0004E4EEA113162
:100A200014EB5C04C2BFD4EB0C0541EA045170BD69
:100A300041F480114FF0000E013C90E645EA060EAD
:100A40008DE60CEA135594EA0C0F08BF95EA0C0FDB
:100A50003FF43BAF94EA0C0F0AD150EA01347FF423
:100A600034AF95EA0C0F7FF425AF104619462CE7FA
:100A700095EA0C0F06D152EA03353FF4FDAE10465D
:100A8000194622E750EA410618BF52EA43067FF4AE
:100A9000C5AE50EA41047FF40DAF52EA43057FF43E
:100AA000EBAE12E7000000000000000000000000B4
:100AB0004FF0FF3C06E000BF4FF0010C02E000BF2A
:100AC0004FF0010C4DF804CD4FEA410C7FEA6C5C0D
:100AD0004FEA430C18BF7FEA6C5C1BD001B050EAB0
:100AE000410C0CBF52EA430C91EA030F02BF90EA9B
:100AF000020F0020704710F1000F91EA030F58BF5A
:100B0000994208BF90422CBFD8176FEAE37040F0BB
:100B1000010070474FEA410C7FEA6C5C02D150EA59
:100B2000013C07D14FEA430C7FEA6C5CD6D152EA14
:100B3000033CD3D05DF8040B704700BF84461046D9
:100B400062468C461946634600E000BF01B5FFF7D8
:100B5000B7FF002848BF10F1000F01BD4DF808EDA8
:100B6000FFF7F4FF0CBF012000205DF808FB00BF79
:100B70004DF808EDFFF7EAFF34BF012000205DF8D3
:100B800008FB00BF4DF808EDFFF7E0FF94BF012020
:100B900000205DF808FB00BF4DF808EDFFF7CEFF21
:100BA00094BF012000205DF808FB00BF4DF808ED60
:100BB000FFF7C4FF34BF012000205DF808FB00BF31
:100BC0004FEA410C7FEA6C5C02D150EA013C0AD149
:100BD0004FEA430C7FEA6C5C02D152EA033C02D13B
:100BE0004FF0000070474FF0010070470000000018
:100BF0004FEA410212F5001215D211D56FF4787345
:100C0000B3EB625212D94FEAC12343F0004343EAE7
:100C1000505311F0004F23FA02F018BF40427047C2
:100C20004FF00000704750EA013005D111F000404C
:100C300008BF6FF0004070474FF00000704700BFE2
:100C40004FEA4102B2F1E04324BFB3F5001CDCF1EE
:100C5000FE5C0DD901F0004C4FEAC0024CEA507026
:100C6000B2F1004F40EB830008BF20F00100704755
:100C700011F0804F21D113F13872BCBF01F0004058
:100C8000704741F480114FEA5252C2F11802C2F18A
:100C9000200C10FA0CF320FA02F018BF40F001000B
:100CA0004FEAC1234FEAD32303FA0CFC40EA0C00BD
:100CB00023FA02F34FEA4303CCE77FEA625307D1FA
:100CC00050EA01331EBF4FF0FE4040F44000704731
:100CD00001F0004040F0FE4040F40000704700BFCB
:100CE00053B94AB9002908BF00281CBF4FF0FF3193
:100CF0004FF0FF3000F074B9ADF1080C6DE904CE8F
:100D000000F006F8DDF804E0DDE9022304B07047E6
:100D10002DE9F047089E04468846002B4BD18A42B5
:100D2000154667D9B2FA82F24AB1C2F1200701FA38
:100D300002F320FA07F7954047EA030894404FEA88
:100D4000154E230CB8FBFEF71FFA85FC0EFB178827
:100D500043EA084307FB0CF1994209D9EB1807F164
:100D6000FF3080F01B81994240F21881023F2B44F2
:100D70005B1AA4B2B3FBFEF00EFB103344EA03444B
:100D800000FB0CFCA44509D92C1900F1FF3380F0BD
:100D90000781A44540F2048102382C4440EA074010
:100DA000A4EB0C0400271EB1D4400023C6E9004385
:100DB0003946BDE8F0878B4209D9002E00F0EB8060
:100DC0000027C6E9000138463946BDE8F087B3FA86
:100DD00083F7002F47D18B4202D3824200F2FA8080
:100DE000841A61EB030301209846002EE0D0C6E987
:100DF0000048DDE702B9FFDEB2FA82F2002A40F0D5
:100E00008F80491B4FEA154E1FFA85F80127B1FB69
:100E1000FEFC230C0EFB1C1143EA014308FB0CF102
:100E2000994207D9EB180CF1FF3002D2994200F237
:100E3000CD808446591AA3B2B1FBFEF00EFB10140C
:100E400043EA044408FB00F8A04507D92C1900F137
:100E5000FF3302D2A04500F2B6801846A4EB080486
:100E600040EA0C409FE7C7F1200CBB4022FA0CFE81
:100E70004EEA030E01FA07F420FA0CF521FA0CF3FE
:100E80004FEA1E482543B3FBF8F92C0C08FB193335
:100E90001FFA8EFA44EA034309FB0AF49C4202FA61
:100EA00007F200FA07F10BD91EEB030309F1FF303B
:100EB00080F087809C4240F28480A9F1020973444B
:100EC0001B1BADB2B3FBF8F008FB103345EA03443B
:100ED00000FB0AFAA24508D91EEB040400F1FF3317
:100EE0006BD2A24569D90238744440EA0940A0FB9C
:100EF0000289A4EB0A044C45C2464B4654D351D058
:100F0000002E69D0B1EB0A0564EB030404FA0CFC73
:100F1000FD40FC404CEA0505C6E90054002747E7C0
:100F2000C2F1200320FA03F7954001FA02F021FAFA
:100F300003F34FEA154E3843010CB3FBFEF71FFADB
:100F400085F80EFB173341EA034107FB08F38B4298
:100F500004FA02F407D9691807F1FF3C2FD28B423B
:100F60002DD9023F2944CB1A81B2B3FBFEF00EFB10
:100F7000103341EA034100FB08F38B4207D969189B
:100F800000F1FF3C17D28B4215D902382944C91A07
:100F900040EA07473BE73746304609E70746E7E6BA
:100FA0001846FBE64145ABD2B8EB020A69EB0E02EC
:100FB00001381346A4E76046E9E7184695E7674617
:100FC000D1E781467CE702382C4447E7ACF1020CBC
:100FD0002B442FE7384608E73746E9E600000000D3
:100FE000704700BF0000000000000000000000008B
:100FF000844641EA000313F003036DD1403A41D324
:1010000051F8043B40F8043B51F8043B40F8043BE2
:1010100051F8043B40F8043B51F8043B40F8043BD2
:1010200051F8043B40F8043B51F8043B40F8043BC2
:1010300051F8043B40F8043B51F8043B40F8043BB2
:1010400051F8043B40F8043B51F8043B40F8043BA2
:1010500051F8043B40F8043B51F8043B40F8043B92
:1010600051F8043B40F8043B51F8043B40F8043B82
:1010700051F8043B40F8043B51F8043B40F8043B72
:10108000403ABDD2303211D351F8043B40F8043B12
:1010900051F8043B40F8043B51F8043B40F8043B52
:1010A00051F8043B40F8043B103AEDD20C3205D322
:1010B00051F8043B40F8043B043AF9D2043208D01A
:1010C000D2071CBF11F8013B00F8013B01D30B888C
:1010D00003806046704700BF082A13D38B078DD06A
:1010E00010F003038AD0C3F10403D21ADB071CBF3C
:1010F00011F8013B00F8013B80D331F8023B20F8A6
:10110000023B7BE7043AD9D3013A11F8013B00F8DE
:10111000013BF9D20B7803704B7843708B78837066
:101120006046704700000000000000000000000062
:1011300090F800F06DE9024520F007016FF0000C17
:1011400010F0070491F820F040F049804FF00004BF
:101150006FF00700D1E9002391F840F000F108009A
:1011600082FA4CF2A4FA8CF283FA4CF3A2FA8CF3D2
:101170004BBBD1E9022382FA4CF200F10800A4FA39
:101180008CF283FA4CF3A2FA8CF3E3B9D1E904238D
:1011900082FA4CF200F10800A4FA8CF283FA4CF3C4
:1011A000A2FA8CF37BB9D1E9062301F1200182FA7E
:1011B0004CF200F10800A4FA8CF283FA4CF3A2FA84
:1011C0008CF3002BC6D0002A04BF04301A4612BA92
:1011D000B2FA82F2FDE8024500EBD2007047D1E995
:1011E000002304F00305C4F100004FEAC50514F024
:1011F000040F91F840F00CFA05F562EA05021CBFF5
:1012000063EA050362464FF00004A9E7000000000E
:1012100001F0FF01102A2BDB10F0070F08D010F8A7
:10122000013B013A8B422DD010F0070F42B3F6D1AB
:10123000F0B441EA012141EA014122F007047FF0C4
:1012400000070023F0E80256083C85EA010586EA1B
:10125000010685FA47F5A3FA87F586FA47F6A5FA57
:1012600087F68EB9EED1F0BC01F0FF0102F0070263
:1012700032B110F8013B013A83EA010313B1F8D10E
:101280000020704701387047002D06BF35460338EF
:10129000073815F0010F07D1013015F4807F02BF28
:1012A000013015F4C03F0130F0BC0138704700BF79
:1012B0000EB410B583B005AA094C52F8041B23687C
:1012C0000848009201930DF093F8019A23689A421E
:1012D00004D103B0BDE8104003B0704700F070FACD
:1012E00000080020642B0020000000000000000027
:1012F000F0B50F4F83B03B6801930E46A1B10025B6
:101300002C46962005F0DCFB04F052FD0135044428
:10131000B542A4B2F5D194FBF5F4A0B2019A3B68B2
:101320009A4203D103B0F0BD0846F7E700F048FA4F
:101330000008002000000000000000000000000085
:101340002DE9F04F2A4BDFF8B4801B68D8ED020A74
:10135000DFF8ACA0274EDFF8AC9083B0B9EE080AF6
:10136000019300F035FE03210020FFF7C1FFD8ED07
:10137000020AB1EE080A074600F02AFE0321002007
:10138000FFF7B6FF4FF0000B044602E02746AB46DE
:101390002C46D8ED020AB1EE080A00F019FE03212E
:1013A0005846FFF7A5FF3A46054651463046FFF737
:1013B0007FFF224649463046FFF77AFF2A460E490C
:1013C0003046FFF775FFBC42E0D2A542DED9D8ED2A
:1013D000020AB9EE080A00F0FBFD054B019A1B68F2
:1013E0009A42204602D103B0BDE8F08F00F0E8F940
:1013F00000080020642B0020F82701089814002022
:10140000E0270108EC2701080000000000000000B0
:101410002DE9F04F2DED048BDFF868B28D4CDBF831
:10142000003087B0824605930F460B4602468A4934
:101430008A48F0EE408AFFF73BFF26886588AAEBD2
:1014400006067D1B36B22DB2002E40F09E80002D88
:1014500065D007EE905A9FED820AF8EEE77A87EEA4
:10146000800A0DF09DFADFED7F7A9FED7F7A20EE06
:10147000270A80EE078A18EE100AFFF7A5F8024641
:101480000B4676487949FFF713FFD4ED027A78EEE0
:10149000677A17EE900AFFF797F802460B466F48F7
:1014A0007349FFF705FFD4ED020A002F40F0A88032
:1014B0009FED700A30EE600A00F08AFD84ED020AAA
:1014C0003046FFF76FF8804628468946FFF76AF8EE
:1014D0004246CDE902014B4640464946FFF7D0F867
:1014E000DDE902238046894610461946FFF7C8F811
:1014F00002460B4640464946FEF708FF41EC100BFA
:101500000DF02EFB51EC100BFFF79AFB00EE100ACA
:1015100000F02EFE18EE100AFFF756F801E000204A
:1015200000212B46CDE90001324653494B48FFF7D5
:10153000BFFEA068FFF748F8E388A588019302463C
:101540000B4600954D494548FFF7B2FED4ED020A1F
:101550009FED430AA4F800A0678000F039FDF0EE8B
:10156000407AF0EE670A38EEC00AC4ED027A00F065
:101570002FFD059ADBF8003084ED020A9A4267D10C
:1015800007B0BDEC048BBDE8F08F07EE905AB8EEC3
:10159000E70A07EE906AF8EEE77A9FED329A80EE5E
:1015A000270A0DF0FDF9DFED307A20EE090A80EE12
:1015B000278A18EE100AFFF707F802460B4627485D
:1015C0002A49FFF775FED4ED027A78EE677A17EEB6
:1015D000900AFEF7F9FF02460B4620482449FFF720
:1015E00067FE002E1EDD55BBD4ED020ABAF1000FD6
:1015F0000FD0B1EE600A00F0EBFC84ED020A5FE769
:101600009FED1F0A30EE600A00F0E2FC84ED020A52
:1016100056E79FED140A30EE600A00F0D9FC84ED25
:10162000020A4DE7002DDFD0D4ED020A38EE090A98
:1016300030EE600A00F0CCFC84ED020A40E7D4ED05
:10164000020A38EE600A00F0C3FC84ED020A37E7B4
:1016500000F0B6F89814002070280108642B0020D0
:101660000000000000003443DB0F494094280108CB
:10167000A42801080000B4C2C4280108FC280108FD
:101680000000B4420008002000000000000000003C
:1016900070B53F4D3F4C2B6884B0039306F0D0FAF1
:1016A00004F0CEFB00F0ECF93B493C4807F0F0FCBD
:1016B00000F08EFE00F0B4FD04F052FB42F2107018
:1016C00005F0FEF9FFF73CFEDFED350A9FED350A28
:1016D000C4ED020A233080B2A080208000F078FCA4
:1016E0000321E08884ED020AFFF702FE233080B276
:1016F000D4ED020A9FED2B0AE080608000F068FCC8
:101700000321A08884ED020AFFF7F2FDA388D4ED3F
:10171000020A9FED240A23331844A08000F058FCED
:101720000321E08884ED020AFFF7E2FDE388D4EDAF
:10173000020A9FED1C0A23331844E08000F048FCA5
:1017400010EE100A84ED020AFEF73EFFE388A68839
:10175000019302460B46009613491048FFF7A8FD77
:101760006388228811490D48FFF7A2FDE188A0880F
:101770009FED0F0A49084008FFF74AFE039A2B68BD
:101780009A4202D1002004B070BD00F019F800BFE9
:10179000000800209814002004080020642B00207A
:1017A000000034430000B442102801083C2801081E
:1017B0000000000000000000000000000000000029
:1017C00000B5084B83B01A680192019A1B689A42CF
:1017D00005D1054803B05DF804EB04F099BBFFF7B1
:1017E000EFFF00BF00080020C02701080000000034
:1017F00030B5104D81682B680F4A83B001930B6898
:1018000023F001030B608168946A03E0936A1B1B59
:10181000C72B09D8086810F00100F7D1019A2B688E
:101820009A4204D103B030BD4FF0FF30F6E7FFF726
:10183000C7FF00BF00080020401D0020000000007E
:10184000F0B5284D83B02B68019305F0C1FB04F07F
:101850007FFC254B1E69F20715D55A69234C42F0CF
:1018600001025A612778BB1F012B2AD90522636820
:1018700022701B680BB120469847042F27D0022FF7
:1018800025D003232370B30710D5174A174C53698B
:1018900043F0020353612378032B1DD063689B68D8
:1018A0000622227013B101211048984704F078FCF9
:1018B000019A2B689A4213D103B0BDE8F04006F0BC
:1018C0007FB9019A2B689A420AD103B0F0BD022376
:1018D0002370B307EAD5D8E72046FFF789FFDDE795
:1018E000FFF76EFF0008002000000550A414002040
:1018F00070B5164E16483368154D82B005224FF468
:10190000807101930AF0DCFB20246B6983F48073FF
:101910006B61012005F0D4F8631E13F0FF04F4D1CD
:101920004FF4807140F20622298309480AF0C8FB6F
:10193000019A33689A4206D10649074802B0BDE8C9
:10194000704006F09DBBFFF73BFF00BF0008002082
:101950000004024030290108C027002000000000D8
:1019600000B50C4A0C4B1278196883B0012A01911A
:10197000019A1B6804D09A4209D103B05DF804FBB8
:101980009A4204D103B05DF804EBFFF7B1BFFFF753
:1019900017FF00BFC0270020000800200000000043
:1019A00000B5084B83B01A680192019A1B689A42ED
:1019B00005D1054803B05DF804EB06F0A9BBFFF7BD
:1019C000FFFE00BF00080020C0270020000000002C
:1019D0002DE9F043254E83B034680194042A9DF824
:1019E0002890144605460F46984639D9B9F1000F9C
:1019F00014BF00224FF08052640002EB0863013CE8
:101A00001C4405F00F0527F01F07202383F31188DE
:101A100005F016FB3D4304F01BFB154B1035DD6054
:101A20001C6104F035FB05F023FB124B1A689A4247
:101A300004D0996993688A689A420DD3002383F38E
:101A40001188BFF36F8FBFF34F8F019A33689A42AB
:101A50000AD103B0BDE8F083074804F059FAEDE776
:101A6000064804F055FAC1E7FFF7AAFE0008002077
:101A700090ED00E0401D0020C0290108A0290108C8
:101A800030B5224D224C2B68224A85B003936368FF
:101A900043F004036360536A43F4803353622023AA
:101AA00083F3118805F0CCFA04F0D2FA17221A4B0E
:101AB000E260236104F0ECFA05F0DAFA174B1A68D9
:101AC0009A4204D0996993688A689A4218D3002090
:101AD00080F31188BFF36F8FBFF34F8F03231D2255
:101AE00000904FF00051FFF773FF094A536843F02D
:101AF00001035360039A2B689A4205D105B030BDAB
:101B0000074804F005FAE2E7FFF75AFE0008002054
:101B100090ED00E000ED00E009000010401D002005
:101B2000C0290108000000000000000000000000C3
:101B300070B51A4D1A4C1B4E0FCD0FC49EB02A68BB
:101B4000336822801D93EFF30981682203A8FFF711
:101B50004FFA154B9D6AAA0714D4EB0708D5124B10
:101B600008995B6B114A00910D4880210DF048FCEB
:101B70001D9A33689A420FD109481EB0BDE87040E3
:101B800004F0C6B9099A5B6B0092A4F11000084AF0
:101B900080210DF035FCE0E7FFF712FE84290108F3
:101BA000B81400200008002000ED00E060290108C2
:101BB00040290108000000000000000000000000B3
:101BC00000B51F4B0278196883B00191E2B11D4A3C
:101BD0004FF4005111834278EAB11A4A4FF4805110
:101BE00011838278F2B1174A4FF480411183C27891
:101BF000FAB9144A4FF400415183019A1B689A4282
:101C00001CD103B05DF804FB0E4A4FF40051518320
:101C10004278002AE1D10B4A4FF4805151838278F7
:101C2000002AE0D1074A4FF480415183C278002A4C
:101C3000DFD0044A4FF400411183DEE7FFF7C0FD17
:101C4000000800200010024000000000000000001A
:101C500000B51F4B0278196883B00191E2B11D4AAB
:101C60004FF4007111834278EAB11A4A4FF480713F
:101C700011838278F2B1174A4FF400611183C27860
:101C8000FAB9144A4FF480615183019A1B689A4251
:101C90001CD103B05DF804FB0E4A4FF40071518370
:101CA0004278002AE1D10B4A4FF480715183827847
:101CB000002AE0D1074A4FF400615183C278002A1C
:101CC000DFD0044A4FF480611183DEE7FFF778FD2F
:101CD000000800200010024000000000000000008A
:101CE00030B50C4A0C4B116883B04FF4005501918C
:101CF0004FF480544FF400414FF480405D835C8387
:101D00005883598301991368994201D103B030BDBA
:101D1000FFF756FD00080020001002400000000000
:101D200030B50C4A0C4B116883B04FF4007501912B
:101D30004FF480744FF480614FF400605D835C83E6
:101D40005883598301991368994201D103B030BD7A
:101D5000FFF736FD000800200010024000000000E0
:101D600010B50B4C0B48236882B0992200210193D7
:101D700006F0BEFB019A23689A4206D1054800216D
:101D800002B0BDE8104006F09BBCFFF719FD00BF94
:101D900000080020102B00200000000000000000C0
:101DA00010B50B4C0B48236882B099220021019397
:101DB00006F09EFB019A23689A4206D1054800214D
:101DC00002B0BDE8104006F07BBCFFF7F9FC00BF95
:101DD000000800202C2B0020000000000000000064
:101DE00000B5084B83B01A680192019A1B689A42A9
:101DF00006D10548002103B05DF804EB06F0C8BB2E
:101E0000FFF7DEFC00080020102B0020000000007F
:101E100000B5084B83B01A680192019A1B689A4278
:101E200006D10548002103B05DF804EB06F0B0BB15
:101E3000FFF7C6FC000800202C2B0020000000004B
:101E400070B51A4C1A4E2378326882B0022B019278
:101E5000A26811D165781748013505F0070500EB38
:101E60008500904763686570013B6360019A336841
:101E70009A4219D102B070BD012B08D00199336884
:101E8000994211D10C4802B0BDE870401047657806
:101E90000848013D05F0070500EB850090476368A1
:101EA000657001336360E1E7FFF78AFC501500209D
:101EB00000080020602A0108502A010800000000E4
:101EC00070B51A4C1A4E2378326882B0012B0192F9
:101ED000A26811D165781748013505F0070500EBB8
:101EE000850090476368657001336360019A3368C9
:101EF0009A4219D102B070BD022B08D00199336803
:101F0000994211D10C4802B0BDE870401047657885
:101F10000848013D05F0070500EB85009047636820
:101F20006570013B6360E1E7FFF74AFC381500206C
:101F300000080020602A0108502A01080000000063
:101F400030B51F4D85B02B68039340F24C43994246
:101F5000044626DCA3F69803994211DB4B00002BC4
:101F600029D10370036998474FF47A71039A2B685B
:101F70009A421ED1606905B0BDE8304006F070BAE3
:101F8000104B02225B42227040F2892293420E499A
:101F900091FBF3F189B207DC0191E368984701995D
:101FA000E4E7012303702D210191236998470199EA
:101FB000DCE7FFF705FCE4DD01220270E4E700BF87
:101FC0000008002068F7FFFFA08601000000000065
:101FD00010B52DED048B5B4C82B0B5EEC00A2368C2
:101FE0000193F1EE10FAB0EE408AF0EE608A7FDDE8
:101FF0009FED557AC0EE077A4FF4B473FDEEE77AA1
:1020000017EE902A03FB02F307EE903AF8EEE77A18
:1020100030EE678ADFED4D7A9FED4D6A9FED4D7A88
:1020200068EE277AB5EEC08AC7EE866AF1EE10FA3E
:1020300086EE879A4EDC2DD4B5EE408AF1EE10FA8A
:1020400031D100214448FFF77BFF00214348FFF7CF
:1020500077FF38EE288AB5EEC08AF1EE10FA43DD3C
:10206000DFED397A88EE270A4FF4B473BDEEC00A6B
:1020700010EE102A03FB02F200EE102AB8EEC00A9E
:1020800038EE400A019A23689A4258D102B0BDEC5A
:10209000048B10BD6FF0E0012F48FFF751FFE121E5
:1020A0002E48FFF74DFFDFED2E7A29EE279A4FF4E9
:1020B0007A70B0EEC99ABCEEC99A19EE103A00FBDC
:1020C00003F0284B00F2E730A3FB0030800904F056
:1020D000F7FCB6E7E1212048FFF732FF6FF0E0019F
:1020E0001E48FFF72DFFDEE716D4B0EE680AC9E7F9
:1020F00090D59FED157AC0EE077A4FF4B473FDEEDC
:10210000E77A17EE902A03FB02F307EE903AF8EE17
:10211000E77A30EE278A7DE7DFED0B7A88EE270A33
:102120004FF4B473BDEEC00A10EE102A03FB02F2A6
:1021300000EE102AB8EEC00A30EE080AA2E7FFF758
:102140003FFB00BF000800200000B4430B4F834654
:1021500000409245000061435015002038150020D2
:1021600000007A44D34D621000000000000000001F
:10217000DFED227A9FED226A9FED227A224820EE3F
:10218000270A10B5C0EE066A204C40F226212368CB
:102190002DED028BC6EE877A82B00193F0EEE77ADE
:1021A000BDEEE78AFFF7CCFE40F226211848FFF784
:1021B000C7FEF8EEC87A1748174BFCEEE77A17EE21
:1021C000902A00FB02F000F2E730A3FB0030800908
:1021D00004F076FC00210C48FFF7B2FE019A236858
:1021E0009A4208D10A48002102B0BDEC028BBDE83A
:1021F0001040FFF7A5BEFFF7E3FA00BF00007A44E6
:10220000000002430080094450150020000800200F
:102210003815002040420F00D34D6210000000002E
:1022200070B51D4E1D4A1E4B30681E491E4C9160F4
:1022300082B00021D46001901C4C1D481D4D9D6052
:10224000117051705160106154611B481B4A1C4D44
:10225000D8601C48197059705960C3E90425FFF70C
:10226000AFFC1848FFF7F4FC1749204606F0A8F821
:10227000204606F0DDF92846144906F0A1F8019A37
:1022800033689A4205D1284602B0BDE8704006F096
:10229000CFB9FFF795FA00BF0008002050150020C5
:1022A00038150020C11B0008611D0008102B0020FC
:1022B000E11D0008511C0008A11D0008111E0008A6
:1022C0002C2B0020502A0108102A0108D0290108CF
:1022D0000A490B4B09680B4A82B02020019140212A
:1022E00058834FF4806559834FF400644FF4804065
:1022F00004215D835C8358835183FEE7000800203E
:10230000000C024000040240000000000000000039
:1023100000B50F4B83B01868019002290CD0032937
:102320000CD001290B4818BF0020019A1B689A4263
:102330000BD103B05DF804FB0748F6E7032A96BF0C
:102340000648002000EBC200EFE7FFF739FA00BFB4
:1023500000080020602B0108002B0108102C010848
:1023600070B5154C82B02368019302291CD10D462B
:102370000646202383F3118804F092FE03F0A8FEA2
:1023800030460E4A012107F023FB29460C4A30460D
:1023900007F01EFB0B4807F01BF903F0B9FE04F031
:1023A00097FE002383F31188019A23689A4201D192
:1023B00002B070BDFFF704FA00080020802A01086F
:1023C000B02A01086815002000000000000000008D
:1023D00030B5134D134C2B68134883B0019307F0AD
:1023E0006FF81249104807F09BF8226D936B23F4A5
:1023F000002393634FF47A7004F062FB20460C498B
:1024000007F096FA226D936B43F400239363019ACD
:102410002B689A4201D103B030BDFFF7D1F900BF5C
:10242000000800200028002068150020E02A01088C
:10243000F02A010800000000000000000000000079
:1024400000B5084B83B01A680192019A1B689A4242
:1024500005D1054803B05DF804EB04F039BFFFF780
:10246000AFF900BF000800201008002000000000A5
:1024700000B5084B83B01A680192019A1B689A4212
:1024800005D1054803B05DF804EB04F059BFFFF730
:1024900097F900BF0008002010080020000000008D
:1024A00070B50D4C82B0236801930D1E06460DDDFC
:1024B000284605F0FDFA18B90C2333604FF0FF30C1
:1024C000019A23689A4205D102B070BD034803F017
:1024D0001FFDEDE7FFF774F900080020302C01081C
:1024E00000B5064B83B01A680192019A1B689A42A4
:1024F00002D103B05DF804FBFFF762F90008002089
:1025000000B5074B83B01A680192019A1B689A4282
:1025100004D103B05DF804EB03F03AB8FFF750F9CB
:102520000008002000000000000000000000000083
:1025300010B50C4C82B02368019315290CD80122E8
:10254000094B8A4013403BB101740020019A236873
:102550009A4204D102B010BD6FF00700F6E7FFF712
:102560002FF900BF000800200B0030000000000021
:1025700000B5074B83B01A680192019A1B689A4212
:1025800004D103B05DF804EB02F0CABAFFF718F902
:102590000008002000000000000000000000000013
:1025A00010B5074B82B01C680194019C1B689C42CB
:1025B00004D102B0BDE8104002F072B9FFF700F993
:1025C00000080020000000000000000000000000E3
:1025D00010B5074B82B01C680194019C1B689C429B
:1025E00004D102B0BDE8104002F072BAFFF7E8F87B
:1025F00000080020000000000000000000000000B3
:102600002DE9F04182B002AB0024364D03F8054DB0
:1026100090462A6801920F461A460121064603F0A9
:10262000DFF90446E0B9B8F1010F9DF803301FD07F
:10263000042F53D8DFE807F0322D0328230003F0DE
:10264000FB07BB420CD03A460121304603F068F943
:10265000044628B986F830717169304602F060FA94
:10266000019A2B689A42204636D102B0BDE8F0812B
:10267000042F33D8DFE807F02B26211C170003F0C6
:102680007F07BB42DFD1EBE703F0BF07BB42DAD1E4
:10269000E6E703F0D707BB42D5D1E1E703F0EF0748
:1026A000BB42D0D1DCE743F08007BB42CBD1D7E7B8
:1026B00043F04007BB42C6D1D2E743F00407BB4218
:1026C000C1D1CDE743F02807BB42BCD1C8E743F0F6
:1026D0001007BB42B7D1C3E7FFF772F86FF00304EE
:1026E000BEE700BF0008002000000000000000005E
:1026F00030B583B002AA114D002302F8053D0C4607
:102700002B680193012103F06BF978B99DF8033030
:10271000C3F30011C3F3C0022170A270C3F38001A0
:10272000C3F38012DB096170E2702371019A2B6898
:102730009A4201D103B030BDFFF742F800080020F3
:1027400070B5134C84B00E46236803930DF1060256
:10275000F821054603F05CF928B1039A23689A42F0
:1027600013D104B070BD02AA0421284603F068F911
:102770000028F2D1BDF8062012B93368AB61ECE74E
:10278000029BB3FBF2F33360F8E7FFF719F800BFE1
:102790000008002000000000000000000000000011
:1027A00000B5084B027F18680A7083B00190019A47
:1027B0001B689A4203D1002003B05DF804FBFEF7CA
:1027C000FFFF00BF00080020000000000000000024
:1027D00070B5104C82B00E46236801930DF10202D1
:1027E0002021054603F014F938B9BDF8023053B181
:1027F000DB00012233602B622A77019A23689A4218
:1028000005D102B070BD2B6A33602877F5E7FEF77B
:10281000D7FF00BF000800200000000000000000FB
:10282000F0B5294F83B03B680193052947D80E4680
:102830000446154662B100EB81020023526B012071
:10284000711E04292FD8DFE801F02522130631007C
:1028500010460123F4E75B00FE226021204603F0CE
:102860008FF870B9344445B9284684F8285008E0F8
:1028700084F82B003444002DF6D0012384F828304E
:102880000020019A3B689A421CD103B0F0BD84F845
:102890002A00EFE7C2F34F224421204603F058F804
:1028A0000028DFD0EDE784F82800E3E71B01EF22E2
:1028B0006021204603F064F80028D3D0E1E76FF0F0
:1028C0000300DEE7FEF77CFF0008002000000000A8
:1028D00010B50C4B82B01C68019405290AD801443C
:1028E000002091F828101170019A1B689A4206D1B5
:1028F00002B010BD002111706FF00300F4E7FEF785
:102900005FFF00BF00080020000000000000000082
:10291000F0B543181C4E83B0044693F82800336882
:1029200001930D46174630B105292AD8DFE801F09A
:10293000141E1A1C0C0C04EB81046263019A3368A8
:102940009A421CD103B0F0BDC2F34F22642120464D
:1029500002F0FEFF08B1F1E7626304EB850400209A
:102960006763EBE7E263F8E72264F6E7C2F34F221E
:102970004421204602F0ECFF0028EED0DEE7FEF70F
:102980001FFF6FF00300D9E70008002000000000DF
:1029900070B5204C82B02368019305461646052980
:1029A00034D8DFE801F0030E0C1E2020436B3360A7
:1029B0000020019A23689A4226D102B070BDC36BF1
:1029C000F5E70DF10202442103F022F80028F0D1CE
:1029D000BDF802305A028BB9AB6B336085F8290021
:1029E000E7E7036CE3E70DF10202642103F010F85E
:1029F0000028DED1BDF802305B02D8E70123326047
:102A0000AA6385F82930D4E7FEF7DAFE6FF00300F9
:102A1000CFE700BF00080020000000000000000019
:102A200070B5104C82B00E46236801930DF103027D
:102A30000121054602F0D4FF58B99DF8033085F80E
:102A400030311B064BBF012303463370307085F8CD
:102A50004C30019A23689A4201D102B070BDFEF752
:102A6000AFFE00BF000800200000000000000000D2
:102A70002DE9F047DFF898A0027CDAF8003082B048
:102A80000F4601F8082B06460193FFF759FEA0BB3D
:102A9000387307F110013046FFF79AFE68BB07F163
:102AA0001401304600F064FD38BB044607F12405EC
:102AB00006F1280907F118082A46A1B23046FFF7A7
:102AC00067FFD0B9013419F8013B08F8013B062C27
:102AD00005F10405F0D107F13C013046FFF7A0FFF6
:102AE00058B9019ADAF800309A420ED1391D3046B1
:102AF00002B0BDE8F04702F08BB8019ADAF8003076
:102B00009A4202D102B0BDE8F087FEF759FE00BF3D
:102B1000000800200000000000000000000000008D
:102B20002DE9F041614F92B005463B6811930022B8
:102B3000882102F0F5FE4FF47A724FF4C8735C49B5
:102B4000A5F85221A5F854315A4AC5F85811002366
:102B5000C5F8D42085F8F0302B62284601A9FFF78C
:102B600087FF044688B9ADF8040001AE0FCE05F129
:102B7000100CACE80F000FCEACE80F000FCEACE8A5
:102B80000F0096E80F008CE80F004B4BC5F834316E
:102B900001264FF420634FF4FA72A5F83C31A5F8F2
:102BA00038218021324685F85061284602F0B8FE6F
:102BB00032468046FF21284602F0B2FE002248EA53
:102BC000000011460443284602F0AAFE64B20DF14B
:102BD000030204439121284602F002FF64B29DF8EB
:102BE000033085F83A31044332460021284602F08A
:102BF00097FE64B200220443FF21284602F090FEB3
:102C000064B2044300228021284602F089FE64B2A7
:102C1000204340B278B90146324628463446FFF791
:102C2000FFFD40B90122A1B228461444FFF7F8FD88
:102C3000062CF6D130B1119A3B689A4233D112B0CA
:102C4000BDE8F0816885024604212846FFF7E8FDCB
:102C50000028F0D1024605212846FFF7E1FD0028B3
:102C6000E9D14FF490136B634FF480420121284661
:102C7000FFF74EFE0028DED14FF40C13EB6395F8FE
:102C80002B3003B10023FF222B6485F83021012172
:102C9000284602F045FE012385F832310028CAD1CA
:102CA00085F81501C7E7FEF78BFD00BF000800207F
:102CB000856B0100A470090064008403000000001B
:102CC00010B5084B82B01C680194019C1B689C42A3
:102CD00005D1012302B0BDE8104000F039BFFEF776
:102CE0006FFD00BF00080020000000000000000091
:102CF00030B5184C90F8DA30226883B0042B01927A
:102D00000D460DF1030211D0142102F069FE20B925
:102D10009DF80330DB0706D42870019A23689A4295
:102D200015D103B030BD01232B70F6E7132102F05B
:102D300057FE9DF8033013F0180F03F0070318BF78
:102D40006FF00500042BEED000232B70E5E7FEF7B3
:102D500037FD00BF00080020000000000000000058
:102D60002DE9F047564F8EB03B680D930C460C236F
:102D70000AAA1421054602F0B3FD8646002840F059
:102D80008B809DF82EE09DF830C09DF82F209DF897
:102D900031109DF82A609DF82B30A07502EB0E22B1
:102DA00001EB0C2192B289B249025202C4E903211B
:102DB00003EB0623C4E900009BB2A3829DF8328096
:102DC0009DF83360B5F852E195F831C19DF82810AF
:102DD00006EB0826BEF57A7FB6B21FD006FB0EF6CC
:102DE000DFF8E09095F81C80D5F820E006F5FA763B
:102DF000A9FB0696B609B8F1000F0ED01FFA8EFE99
:102E000003FB0EFE4FEA2E2E72454DD0B6B202FBEA
:102E100006F6A2EB0E0EB6FBFEF6B6B2BCF1000F44
:102E200047D0B001C0B2B608E0750DF10B002681A5
:102E3000CDE90040284602F043FA864660BB9DF883
:102E40000B8084F8188005F150060FCE0DF10C0CA4
:102E5000ACE80F002389ADF8143096E807006389C9
:102E6000ADF81630E36894F817A0B4F81490069300
:102E70002369646804948CE8070003AC8DF824800F
:102E80008DF823A00793ADF820900FCC50350FC5D7
:102E90009CE8070086E807000D9A3B689A42704656
:102EA0000CD10EB0BDE8F087BCF1000F03D148F69D
:102EB000E0260020B8E740F6AE06B5E7FEF780FC56
:102EC00000080020D34D6210000000000000000048
:102ED0002DE9F041134D144C296882B0164601913A
:102EE0000DF102020E211F46804602F091FDBDF851
:102EF000023004EA4343336050B90DF10202404608
:102F00000C2102F085FDBDF8023004EA43443C6028
:102F1000019A2B689A4202D102B0BDE8F081FEF717
:102F20004FFC00BF000800200000FE1F0000000052
:102F3000F0B590F8DA30254C85B0013B2268039259
:102F4000022B07D90025039A23689A4228463AD1D2
:102F500005B0F0BD02AB0F4601AA01210646FFF7FE
:102F6000B7FF019BB3F57F0F05461FD9002DEAD1AE
:102F70001FBB0422FF21304602F0D2FC2A4607463E
:102F80007021304602F0CCFC2A460743FF21304630
:102F900002F0C6FC7FB22A46802147EA000530468F
:102FA00002F0BEFC6DB205436DB2CCE7029BB3F5F7
:102FB0007F0FC8D9002DDBD0C5E73046044901F0AA
:102FC0009FFE0546BFE7FEF7FBFB00BF00080020A1
:102FD00018090020000000000000000000000000B0
:102FE000F0B53F4F057C3B6883B004460122802149
:102FF000019302F095FC0122FF21204602F090FC93
:1030000000221146204602F08BFC94F83A219121CF
:10301000204602F085FC01220021204602F080FCBF
:103020000022FF21204602F07BFC20460022802166
:1030300002F076FC012D37D017D3032D08D06FF0A6
:103040000706019A3B689A42304647D103B0F0BD6B
:1030500068B304220021204602F062FC06460028E4
:10306000EFD1042384F83231EBE70122002120461E
:1030700002F056FC012306468DF803300028E0D10B
:1030800005462DB301350DF103020021204602F063
:10309000A7FC9DF80330DB0713D590B9B5F5FA6F9F
:1030A000EFD16FF00606CCE730B10222D2E7012162
:1030B0002046FFF73DFFCCE729462046FFF738FFC3
:1030C000F3E7B5F5FA6F14BF06466FF00606B8E7EA
:1030D0009DF80330DA07B4D50225D4E7FEF770FB7C
:1030E00000080020000000000000000000000000B8
:1030F00030B5114C037C226883B0019283B9054638
:10310000FFF76EFF30B9284600F072FF10B90323B5
:1031100085F83231019A23689A420AD103B030BD52
:10312000019A23689A4204D103B0BDE8304000F010
:103130005FBFFEF745FB00BF000800200000000055
:10314000F0B51A4F83B03B68019306460025012273
:103150000B21304602F0E4FB002204460B213046EE
:1031600002F0DEFB0DF1030204431321304602F0AE
:1031700037FC9DF8033064B2204301355B0740B251
:10318000EDB20CD0032D07D00028E0D0019A3B68A7
:103190009A4209D103B0F0BD6FF00B00F6E7032DA2
:1031A00008BF6FF00B00F1E7FEF70AFB00080020F4
:1031B00070B5124C82B000222368027405460E4698
:1031C0000193FFF795FF28B1019A23689A4212D123
:1031D00002B070BD31462846FFF7C2FD0028F3D18A
:1031E000019A23689A4206D10146284602B0BDE8FA
:1031F0007040FFF7A5BFFEF7E3FA00BF000800200C
:10320000F0B5574D83B02C680194152906463AD085
:1032100014461F46042A00F2A080DFE802F02132A3
:103220002E30030004220A21304602F079FBF0B967
:10323000002F14BF10230023EF228421304602F018
:103240009FFBA0B9019A2B6886F8DA409A4240F0B9
:1032500082800146304603B0BDE8F040FFF770BF02
:1032600000220A21304602F05BFB0028E0D0019AE0
:103270002B689A426FD103B0F0BD0222D3E703223C
:10328000D1E70122CFE70122FF2102F049FB002212
:1032900011460446304602F043FB00220443FF215E
:1032A000304602F03DFB64B20122044380213046E7
:1032B00002F036FB64B2022204438521304602F05C
:1032C0002FFB64B204220443FF21304602F028FBA6
:1032D00064B200220443CD21304602F021FB64B2E7
:1032E00011220443CC21304602F01AFB64B20722BB
:1032F0000443FF21304602F013FB64B20022044372
:10330000BE21304602F00CFB64B206220443FF21CA
:10331000304602F005FB64B209220443CC2130465A
:1033200002F0FEFA64B200220443FF21304602F0AC
:10333000F7FA64B201220443FF21304602F0F0FAAA
:1033400064B2002204431146304602F0E9FA64B246
:10335000204340B28BE7FEF733FA6FF00A0086E7AE
:103360000008002000000000000000000000000035
:10337000F0B5704F97B004463B681593402200218A
:1033800005A80BF0EDFF002320460121ADF80A301F
:103390008DF807308DF80830039300F091FE94F813
:1033A0001421012A06D894F8131100F0B9800C29D1
:1033B00040F2B98002AA03A9204600F0F9FB0546B5
:1033C000002D40F0A38094F85031002B00F0A58030
:1033D0005949204601F094FC0546002840F09680AB
:1033E0002B46294604222046FFF70AFF05460028FF
:1033F00040F08C800122FF21204602F091FA0DF16D
:103400000A0206468421204602F002FB2A46FF21DA
:1034100046EA0005204602F083FA6DB205436DB21C
:10342000002D73D1BDF80A301B01C4F8D43005A9B2
:103430002046FFF71DFB0546002867D10DF1070266
:103440000921204602F0CCFA054600285ED105AEDF
:103450000FCE9DF807C004F110050CF0010C84F8A4
:1034600031C10FC50FCE0FC50FCE0FC596E80F00A7
:103470008DF807C085E80F000DF1070201212046F5
:1034800002F0AEFA0546002840D19DF8073084F8D6
:103490003031024601462046FFF7B2F80546A8BB88
:1034A000024602212046FFF7ABF8054670BB032316
:1034B000014684F832310DF10902204601F008FB83
:1034C000054618BB9DF8093084F8E8300DF1090273
:1034D0000121204601F0FCFA0546B8B99DF80930F3
:1034E00084F8E03004AA0321204601F0C9F805461B
:1034F00060B9049BC4F8E43004AA0421204601F01A
:10350000BFF8054610B9049BC4F8DC30159A3B6837
:103510009A4228460CD117B0F0BDD4F84C1158E7A8
:1035200020293FF647AF204600F042F9054647E71D
:10353000FEF746F9000800202408002000000000E3
:1035400010B5074B82B01C680194019C1B689C421B
:1035500004D102B0BDE8104000F02ABBFEF730F9FC
:103560000008002000000000000000000000000033
:1035700030B5134C83B00D46236801930DF1020260
:10358000282102F045FA50B9BDF80230C3F30B030D
:10359000B3F5006F09D2FA2202FB03F32B60019A04
:1035A00023689A420AD103B030BDA3F58053C3EB20
:1035B000431203EB82035B002B60F0E7FEF700F998
:1035C00000080020000000000000000000000000D3
:1035D000F0B5DFF860C083B0DCF800400194D70894
:1035E0004FF0FF348F421C6017D23C1902F00702E3
:1035F00020443E4610F8015FBE4203BF1541EDB2C4
:103600001446002415F0010F0ED10134082C4FEAA6
:103610005505F7D10136B142ECD1019ADCF8003002
:103620009A4205D103B0F0BD04EBC6041C60F4E778
:10363000FEF7C6F8000800200000000000000000AF
:103640002DE9F04F87B0354CDDF84C802468129E90
:1036500005941F46149B01900296DDE9105B0093D0
:10366000B8F1000F33D08A46914600241AE003EBEC
:103670000B0292092A4951F82220003218BF012278
:10368000524518D1DA08954207D9B85C03F0070112
:10369000012606FA01F10143B9540134A04503F1B2
:1036A000010614D002AB324629464846FFF790FF88
:1036B000029B5A1CDBD1009B6FF031001E60174B40
:1036C000059A1B689A4227D107B0BDE8F08F009B8E
:1036D00001981E603A460623B02102F0E1F8002866
:1036E000EDD1019803AA0623B02102F0F9F8002DCC
:1036F000E5D09DF80C203B789A420AD13D4403ABBB
:103700000137AF42DBD017F8012B13F8011F9142AC
:10371000F7D06FF03100D2E7FEF752F80008002032
:10372000D00A00200000000000000000000000009F
:10373000F0B51D4D90F830612B6889B00F46C0225E
:1037400001210446079302F0EBF828B1079A2B6891
:103750009A4226D109B0F0BD69462046FFF728FD00
:103760000028F3D10122FF21204602F0D9F80028D9
:10377000ECD13A46B621204602F04AF90028E5D1BC
:103780000246FF21204602F0CBF80028DED1324667
:103790000121204602F0C4F80028D7D184F8306116
:1037A000D4E7FEF70DF800BF00080020000000007D
:1037B000F0B52F4E89B00F461546336807930122A6
:1037C000FF21044602F0ACF8A8B30021C4F824118C
:1037D000A4F828116DB327488368012203B306A813
:1037E000B4220623CDE90032CDE90217049004F596
:1037F000927304F5957229462046FFF721FF30B9F0
:10380000012384F8137184F8145184F81531079A50
:1038100033689A422AD109B0F0BD2C290A46DED07D
:1038200002F1B5039B09511C50F82330002BF4D052
:10383000D5E72946D3E702464F21204602F070F82B
:103840000028C2D12C224E21204602F069F80246FF
:103850000028BAD1FF21204602F062F80028B4D136
:10386000B422B621204602F05BF8AEE7FDF7A8FFD0
:1038700000080020D00A0020000000000000000026
:1038800030B5164C83B041F001022368019300214A
:10389000054602F045F8024630B101992368994285
:1038A000104619D103B030BD284600F0A1FB0246F6
:1038B0000028F2D101462846FFF742FC02460028C4
:1038C000EBD101992368994206D12846114603B0ED
:1038D000BDE8304002F024B8FDF772FF0008002078
:1038E0002DE9F04F87B03F4F109C039400263C68B1
:1038F00002928A460122FF210546019305948DF824
:103900001360DDF844809DF848B09DF84C9002F0BB
:1039100007F8324604463146284602F001F832469E
:103920000443FF21284601F0FBFF64B2044364B264
:10393000BAF1000F27D0BBF1000F33D1B9F1000F5E
:103940003AD10122FF21284601F0EAFF0122044377
:103950000021284601F0E4FF64B200220443FF2165
:10396000284601F0DDFF9DF81330059A23F010037F
:1039700088F800303B6864B220439A4240B22FD1AD
:1039800007B0BDE8F08FBBF1000F1ED1B9F1000FF9
:10399000D7D0019B8022EE21284601F0F1FF04439D
:1039A00064B2CEE7039ACB21284602F019F804430B
:1039B00064B2B9F1000FC4D00DF11302EE21284614
:1039C00002F00EF8044364B2BBE7029ACB2128460A
:1039D00001F0A6FF044364B2B9F1000FB1D0D8E7FB
:1039E000FDF7EEFE000800200000000000000000CF
:1039F0002DE9F0472A4F86B03C680594002405461F
:103A0000884691468DF813401E469BB1012290F8DE
:103A100030A11146284601F083FF044698B10023E7
:103A200088F80030059A3B689A42204635D106B0A6
:103A3000BDE8F0870122114628469A4601F070FF42
:103A400004460028EBD140212846FFF719FF044621
:103A50000028E4D1B9F1010F0ED088F80000002E43
:103A6000E0D052460121284601F05AFF04460028C2
:103A7000D8D185F830A1D5E70DF11303CDE9029037
:103A8000019302460346CDF8008049462846FFF7D9
:103A900027FF0028E3D00446C4E7FDF791FE00BFEE
:103AA00000080020000000000000000000000000EE
:103AB0002DE9F047254F86B03C68059405468846B9
:103AC00091461E469BB190F830A102220121284662
:103AD00001F026FF044660B1002388F80030059A03
:103AE0003B689A4220462ED106B0BDE8F0879A4640
:103AF000EBE701462846FFF7C3FE04460028EBD15A
:103B0000B9F1010F0ED088F80000002EE7D0524620
:103B10000121284601F004FF04460028DFD185F882
:103B200030A1DCE70DF11303CDE902090093024651
:103B30000346CDF8048049462846FFF7D1FE002809
:103B4000E3D00446CBE7FDF73BFE00BF00080020B2
:103B50002DE9F041144C90F8307182B01E46236874
:103B600001939046002332460546FFF741FF30B1EE
:103B7000019A23689A4214D102B0BDE8F08103464D
:103B8000324641462846FFF793FF0028F0D13A46D7
:103B90000121284601F0C4FE0028E9D185F83071E2
:103BA000E6E7FDF70DFE00BF000800200000000062
:103BB0002DE9F04FDFF8B0A2B0F83C71DAF8004020
:103BC00095B00023CDE90912C0F82431A0F82831BE
:103BD0000122FF2106461394CDE90F338DF83830CA
:103BE0008DF8393001F09CFE054648B1139ADAF899
:103BF00000309A42284640F0318115B0BDE8F08F80
:103C000002464F21304601F08BFE05460028EDD1DB
:103C10002C224E21304601F083FE05460028E5D1D6
:103C20000246FF21304601F07BFE05460028DDD12B
:103C3000B422B621304601F073FE05460028D5D1E6
:103C400002468021304601F06BFE05460028CDD1AA
:103C500003460DF139020EA93046FFF779FF0546FC
:103C60000028C3D10DF1500B06F595734BF8140DD8
:103C70000320039006F592780620B4240D93029554
:103C800029461A46CDE90004CDF810B04346304627
:103C9000FFF7D6FC05460028A8D10DF13A013046C1
:103CA0000F9CFFF745FD054600289FD1BDF83A302F
:103CB000BB4230D904F1B4039B096A4951F823206F
:103CC0000023C6F82431A6F82831002A40F0BF802E
:103CD0002B2C03D9BBE02C2A144607D004F1B503E2
:103CE0009B09621C51F82330002BF4D0B421062329
:103CF0004FF00309CDE90031CDE90229CDF810B02C
:103D000043460D9A01213046FFF79AFC002800F047
:103D10008D8005466AE700220C9291460792BB42CD
:103D200066D2DB1B002BB8BF5B42B8F80420D8F882
:103D3000000008930B959DF81C300D9DADF84820B0
:103D400011900C934FF0030B224610AB062128462E
:103D5000FFF73EFC109C631C10D004F1B403414AF1
:103D60009B0952F82330079A003318BF012393426E
:103D700059D1E308052B0BF1010902D96FF0310588
:103D800034E718F8031004F00702012000FA02F2E9
:103D90000A4308F80320B021062342463046013486
:103DA00001F07EFD0028B4D10DF13A013046FFF755
:103DB000BFFC0028ADD1BDF83A20D31B002BB8BF03
:103DC0005B42BA4225D9089A0B9D934210D906232B
:103DD00011AAB021304601F063FDBDF8482003462A
:103DE0001198C6F82401D946A8F80420002B37D131
:103DF000099A0A999DF83040C2F8009001230C708E
:103E000086F81531136886F813310B7886F814316B
:103E1000ECE6D8F80000B8F8042011900893CB46DF
:103E2000ADF8482090E70B9DD946E1E70DF13A0146
:103E300030460F9CFFF77CFC00287FF46AAFBDF88A
:103E40003A30BB4205D901220C92079267E722461D
:103E50004CE701220C908146079260E7FDF7B0FC29
:103E60001D46C3E6D00A0020000800200000000024
:103E700010B50E4982B00B680193013830F0FF0392
:103E800009D000234008013320F0FF029BB2002A32
:103E9000F8D11B029BB2019C0A681844944280B27C
:103EA00001D102B010BDFDF78BFC00BF000800205F
:103EB0002DE9F0434B4E85B0336803930329174631
:103EC000054657D0042940F0878001A9FEF710FC71
:103ED0009DF8070078BB80460DF101094A46012193
:103EE0002846FEF775FB0446E8B99DF801203E4BD5
:103EF0003E4803FB02F303F5FA73A0FB0323DA0940
:103F00004FF47A709B0900FB0720B0FBF3F010EB35
:103F100008005DD102467121284601F019FD0446D2
:103F200008B9C5F8DC70039A33689A42204656D126
:103F300005B0BDE8F0830DF101094A46002128468D
:103F4000FEF746FB04460028EDD10DF10202512197
:103F5000284601F05DFDBDF802305FFA83F81B0AC8
:103F600008FA03F808F101081FFA88F80446002847
:103F7000B4D0D8E70DF101020021FEF729FB9DF82E
:103F80000120194B044603FB02F3184803F5FA73AA
:103F9000A0FB0323DA094FF47A709B0900FB07208A
:103FA000B0FBF3F080B280B9ADF80200A5F8D800FC
:103FB000002CB8D102465121284601F0C9FC044624
:103FC0000028B0D1C5F8E470ADE7FFF751FFEBE78B
:103FD000FFF74EFF02469EE76FF00304A3E7FDF7ED
:103FE000EFFB00BF00080020002F3A00D34D621005
:103FF000F0B5134F83B002AE00223B6806F8052DE2
:10400000054601934FF4FA6408E09DF80330012B54
:104010000AD0013C0ED0284601F02AFD3146284640
:10402000FEF766FE0028F0D0019A3B689A4204D160
:1040300003B0F0BD6FF00600F6E7FDF7C1FB00BF6F
:104040000008002000000000000000000000000048
:10405000F0B5174F83B03B680193002283210646D9
:1040600001F05EFC044680B94FF4FA6502E060B9E5
:10407000013D17D00DF103028321304601F0B0FC61
:104080009DF803300446002BF1D0012230468321F5
:1040900001F046FC019A3B6820439A4240B204D1A9
:1040A00003B0F0BD6FF00604EFE7FDF789FB00BF3A
:1040B00000080020000000000000000000000000D8
:1040C0002DE9F04FDFF8B48590F8F060D8F80030B3
:1040D00091B04FF0000B072E0F93CDE906BB0AD12C
:1040E0005C460F9AD8F800309A42204640F0C482CD
:1040F00011B0BDE8F08F0F4601228021054601F086
:104100000FFC01228146FF21284601F009FC5A4696
:1041100049EA00095946284601F002FC4FFA89F99C
:10412000062249EA0009FF21284601F0F9FB4FFA6F
:1041300089F949EA00090DF111028321284601F0AD
:104140004FFC9DF811204FFA89F949EA000942F025
:1041500004028321284601F0E3FB4FFA89F9072284
:1041600049EA0009FF21284601F0DAFB4FFA89F9F4
:104170000122812149EA0009284601F0D1FB4FFACA
:1041800089F949EA0009284601F072FC4FFA89F9D9
:1041900049EA000901228021284601F0C1FB4FFABB
:1041A00089F949EA000017F0010A44B213D0F30775
:1041B00040F1FE8117F00203CDE901BB009310D15D
:1041C00017F0040B00F0EA80700740F16B810023C8
:1041D00003939946E5E0CDE901AA17F002030093A5
:1041E000EED016F00209EBD102229421284601F00C
:1041F00097FB83462846FFF72BFF4BEA000004435A
:104200000DF112029021284601F0EAFB64B27B22F4
:1042100094210443284601F083FB64B204432846FA
:10422000FFF716FF64B20DF11302044390212846F4
:1042300001F0D6FB64B2772294210443284601F0B2
:104240006FFB64B204432846FFF702FF64B20443E5
:1042500005AA9021284601F0F3FB059B64B2DA0021
:10426000C3F38641044302F07802C3F3C6204FEA49
:10427000536C8DF81120C3F3061378228DF82910A2
:104280008DF82A00942128468DF828C08DF82B300F
:1042900001F046FB64B204432846FFF7D9FE64B23E
:1042A00005AA04439021284601F0CAFB059B9DF80E
:1042B00011C0990101F0400164B2C3F38652044376
:1042C0008DF81110C3F30620C3F3C6310CEB537CF9
:1042D0008DF82D20C3F3460379228DF82E108DF82A
:1042E0002F00942128468DF82CC08DF8303001F035
:1042F00017FB64B204432846FFF7AAFE64B205AA7E
:1043000004439021284601F09BFB059B9DF811205A
:1043100064B202EB9362C3F3C6414FEA830C0443D9
:10432000C3F306300CF07C0CC3F346138DF8312038
:104330008DF832107A2294218DF8330028468DF8BA
:1043400011C08DF8343001F0EBFA64B20443284612
:10435000FFF77EFE64B205AA04439021284601F0CF
:104360006FFB059B9DF811208DF83A9064B202EB2B
:104370009372C3F3C65EC3F3064CC3F346210443F2
:10438000C3F3860364B28DF835208DF836E08DF8DE
:1043900037C08DF838108DF8393011E7CDF80CB0F2
:1043A000D94600228121284601F0BAFA06220443A8
:1043B000FF21284601F0B4FA64B20DF11102044362
:1043C0008321284601F00CFB9DF8112064B20443C0
:1043D00002F0FB028321284601F0A2FA64B2012216
:1043E0000443FF21284601F09BFA64B201220443F2
:1043F0000021284601F094FA64B200220443FF2110
:10440000284601F08DFA64B2044300228021284638
:1044100001F086FA64B2044364B2002C7FF461AE0A
:10442000BAF1000F14D0F10712D49DF8043085F8CA
:1044300013319DF8083085F8143108A905F59572F7
:1044400005F5987C11F8013B02F8013B6245F9D172
:10445000009B73B1B2070CD49DF812109DF8132085
:1044600085F8F11085F8F2200AA905F1F3000BF0A8
:104470000FF8BBF1000F11D073070FD4039B069AFE
:10448000C5F818215B02C5F82031079BC5F81C311F
:10449000B9F1000F40F0E3804B46EB603E4385F8F6
:1044A000F0601EE67B229421284601F039FA81460D
:1044B0002846FFF7CDFD49EA0000044306AA9021F3
:1044C000284601F0BDFA64B27C22942104432846B8
:1044D00001F026FA64B204432846FFF7B9FD64B23E
:1044E00007AA04439021284601F0AAFA64B2732275
:1044F00094210443284601F013FA64B20443284689
:10450000FFF7A6FD64B2044305AA9021284601F0F6
:1045100097FA059A64B21302942174220443284640
:104520001FFA83F901F0FCF964B204432846FFF74F
:104530008FFD64B205AA04439021284601F080FA59
:104540009DF8173064B243EA0903752294210443AD
:104550002846039301F0E4F964B204432846FFF7C8
:1045600077FD64B205AA04439021284601F068FA59
:10457000059A64B2942104434FEA02292846762220
:1045800001F0CEF964B204432846FFF761FD64B23E
:1045900005AA04439021284601F052FA64B29DF81E
:1045A00017201FFA89F9044364B242EA0909F8E6C0
:1045B0006B229421284601F0B3F981462846FFF783
:1045C00047FD49EA0000044305AA9021284601F06E
:1045D00037FADDF814C064B2CCF306232422942108
:1045E000044301932846CCF3C033029301F098F9B9
:1045F00064B204432846FFF72BFD64B205AA0443C6
:104600009021284601F01CFA059B8DF82330190EE5
:1046100064B24FEA134C25221B0A04438DF8201084
:10462000284694218DF822308DF821C001F078F9C8
:1046300064B204432846FFF70BFD64B205AA0443A5
:104640009021284601F0FCF9059B64B21A0E044340
:104650001B0C64B28DF824208DF82530BDE5A9F53A
:10466000C8534FF47A7909FB03F94FEA1919C9F1D4
:1046700000090FFA89F310E7FDF7A2F800080020FF
:104680002DE9F0435D4D87B000242B680593022986
:1046900016468DF80740ADF8084007460DD90329A6
:1046A0004FD004292AD020463460059A2B689A42BC
:1046B00040F0A18007B0BDE8F08321460DF106026D
:1046C000FDF786FF28B938460DF10702462101F0B3
:1046D00087F99DF806104A4B4A4A9DF8074003FBAC
:1046E00001F303F5FA73A2FB03139B0904FB0333E5
:1046F00003F5FA74A2FB0434A409D5E703A9FDF776
:10470000F7FF9DF80F30002B48D00DF106094A46FF
:1047100021463846FDF75CFF00284CD09DF8061076
:10472000374B384A03FB01F303F5FA73A2FB03137B
:104730009B0904FB03F404F5FA74A2FB0434A409F6
:10474000B2E70DF106022146FDF742FF0028ABD18A
:1047500001460DF106023846FDF73AFF20B938460A
:1047600002AA512101F054F9BDF808109DF8067015
:10477000234C244ACBB204FB07F4090A8B4004F50E
:10478000FA740133A2FB04149BB2A40904FB03F4E2
:1047900004F5FA74A2FB0434A40985E798460DF1E8
:1047A00006094A4601213846FDF712FF98B1C8F1C3
:1047B0000004A4B2B2E702AA5121384601F028F958
:1047C000BDF80830DCB21B0A9C4001341FFA84F8A3
:1047D0000028E6D0EBE738460DF10A02712101F01E
:1047E00017F9BDF80A30DCB21B0A9C400134A4EB77
:1047F0000804A4B292E7FCF7E3FF00BF0008002022
:10480000002F3A00D34D62100000000000000000AD
:1048100070B51E4C82B023680193022907D9FFF7B7
:1048200047FB019A23689A422DD102B070BD15460C
:1048300000210DF103020646FDF7CAFE0028F0D163
:104840009DF80310124B134A03FB01F303F5FA73AF
:10485000A2FB0323DA094FF47A719B0901FB0525BA
:10486000B5FBF3F5ABB2B3F5807F09D8013DEAB2F1
:1048700093B2A6F8D8303046462101F051F8D0E77F
:10488000FF231A46F5E7FCF79BFF00BF0008002056
:10489000002F3A00D34D621000000000000000001D
:1048A0002DE9F041864E88B0174633680793002201
:1048B00017F001088DF80F204BD1054661BBA7F119
:1048C0000C03062B45D80C2F46D00E2F50D0102F9E
:1048D00050D0122F78D07B08013B05AA032128462F
:1048E000DCB2FFF7CDFE002846D085F8E87058B955
:1048F00069692846FDF73CFE30B902460123284687
:104900000DF10F01FFF7D4F8079A33689A4240F08F
:10491000D58008B0BDE8F08101291AD1A7F10802BD
:10492000062A16D8082F51D00A2F00F082800C2FAB
:1049300000F0A0800E2F00F0AF807B08013B04AA9E
:1049400004212846DCB2FFF79BFE80B385F8E070B7
:10495000CDE76FF00300D7E71822572100F0E0FF02
:1049600008225621284600F0DBFF0028CCD1B2E710
:104970003022F2E74022F0E706AA02212846FFF79C
:104980007FFE0028B1D122465021284600F0C8FF02
:104990000028AAD1059A03212846FFF789FA0028A2
:1049A000A3D1069A02212846FFF732FF9DE722464F
:1049B0007021284600F0B4FF0028C7D1049A0421D2
:1049C0002846FFF775FAC1E75022C6E70191102289
:1049D000482100F0A5FF3A464721284600F0A0FFF5
:1049E000022204463221284600F09AFF0C2204439A
:1049F0003021284600F094FF019B64B21A4604431C
:104A0000FF21284600F08CFF64B23022044330219D
:104A1000284600F085FF64B204434246FF21284641
:104A200000F07EFF64B2204340B200287FF46CAFF8
:104A300083E701912822482100F072FF08224721D4
:104A4000284600F06DFF032204463221284600F07C
:104A500067FF092204433021284600F061FF019BD3
:104A600064B21A460443FF21284600F059FF64B29D
:104A70002022CBE701913822482100F051FF082283
:104A80004721284600F04CFF0322044632212846E5
:104A900000F046FF0822DDE748220191114600F0B0
:104AA0003FFF08224721284600F03AFF0322044630
:104AB0003221284600F034FF0722CBE7FCF780FEC6
:104AC00000080020000000000000000000000000BE
:104AD00030B5124C83B0236801931546B1B101295A
:104AE00007D06FF00300019A23689A4214D103B0F3
:104AF00030BD0DF10302702100F072FF0028F2D1E9
:104B00009DF8033001335B002B70ECE70DF10302DD
:104B1000502100F065FFF1E7FCF752FE000800208D
:104B20002DE9F041384D86B02B6805930E4644F6CA
:104B30001F634FF4FA6100229E42CDE901125BD956
:104B400003A90746FDF7D4FD0446C0B99DF80C3013
:104B5000A6F63638DBB99DF80D30C3B99DF80E3096
:104B6000ABB99DF80F30A3BB9DF810303BB1A8F254
:104B7000262204213846FFF79BF97E610446059AF8
:104B80002B689A4220463DD106B0BDE8F08101AACB
:104B900002213846FFF774FD30BB9DF80C3033B16D
:104BA000019B03F24E23984526D9A8EB03089DF8F4
:104BB0000E30DBB99DF80D30002BD2D0019B03F5F0
:104BC0002573984518D9A8EB03089DF80F30002BE2
:104BD000CAD002AA03213846FFF752FD029B03F513
:104BE0002573434508D250B10446C8E7019B03F240
:104BF000B2235B009845E6D86FF00304BFE7A8EB4B
:104C00000308B1E7FCF7DCFD00080020000000000D
:104C1000F0B5374E87B00D4640F636333168059112
:104C20002B604FF4FA62002303A9CDE90123074664
:104C3000FDF75EFD0446E8B99DF80C300BBB9DF80E
:104C40000D30F3B99DF80E30DBB99DF80F3063B12C
:104C500002AA03213846FFF713FD029A2B6802F5DA
:104C6000257213442B60002835D19DF810302BBBE2
:104C70002B687B61059A33689A42204635D107B08C
:104C8000F0BD01AA02213846FFF7FAFC18BB9DF8D7
:104C90000C302BB1019A2B6802F24E2213442B6088
:104CA0009DF80E30CBB99DF80D30002BCDD0019A78
:104CB0002B6802F5257213442B60C6E76A4604216F
:104CC0003846FFF7DDFC009A2B6802F226221344D7
:104CD0002B600028CDD00446CCE7019A2B6802F265
:104CE000B22203EB42032B60AFE7FCF769FD00BF84
:104CF000000800200000000000000000000000008C
:104D0000F0B5324F0B783A6883B00192002B42D055
:104D10000D4606460024621CFF2B09D0042B0ED939
:104D20006FF00300019A3B689A424CD103B0F0BD8A
:104D3000AB5C032BF4D8DFE803F03B302419A95C0B
:104D4000541C68462A440DEB030E12F801CF00F8FC
:104D500001CB7045F9D11C446A46304600F0A0FDF5
:104D60002B5D002BDED00028D5D0DBE7AB185878C0
:104D7000997801EB0021A6F83C11DB785BB1043295
:104D8000CAE7AB185878997801EB0021A6F83811DA
:104D9000DB78002BF3D10020C4E7AB185878997862
:104DA00001EB0021A6F83611DB78002BE7D1F2E702
:104DB000AB185878997801EB0021A6F83411DB780C
:104DC000002BDCD1E7E7FCF7FBFC00BF000800206C
:104DD000F0B515460F4C83B0002223682A600F46B9
:104DE0000DF1030101930646FDF7DAFC48B99DF881
:104DF000033033B1BA8A336A03FB02F380331B0AF0
:104E00002B60019A23689A4201D103B0F0BDFCF7F0
:104E1000D7FC00BF000800200000000000000000D8
:104E2000F0B5B0F85461D0F858514E4C05FB06F57A
:104E300083B08035206801902D0A05FB06F5DDE979
:104E400008E7DDE90A605AB1890201EB5201B1FBC2
:104E5000F2F202EB420202FB02F202F50042120CF5
:104E600007F50041090CDFF80CC103310EFB03F319
:104E7000ACFB01E1890803F50043C1EBC1011B0C48
:104E8000B1F5803F03FB03F362D2F91CACFB017167
:104E90008908C1EBC10101F50041090C01FB01F1D9
:104EA00003EB56030B44B3FBF6F39B032E4F7F3308
:104EB0005B08A7FB03139B0903FB02F22B4902F5D6
:104EC000FA72A1FB02329209120102F5FA72A1FBF9
:104ED000023105F120078909BF094FF080439B0883
:104EE0009F42FCD3002B38D0002603EB060CBC45B8
:104EF0004FEA56069CBFA7EB0C07F6189B08F4D1A7
:104F000049B11A4BA3FB023205EBD212B2FBF1F10D
:104F1000B1F1804F1ED24FF080439B088B42FCD8EA
:104F20006BB10022D5188D424FEA52029CBF491B3B
:104F3000D2189B08F6D1B242134628BF334603600D
:104F4000019A23689A424FF0000008D103B0F0BDE7
:104F50000749A5E74FF08043E3E71E46D0E7FCF79B
:104F60002FFC00BF0008002009040281D34D62100D
:104F70000000F0FFABAAAAAA000000000000000099
:104F80002DE9F04FC24F056A3E688FB00446049287
:104F90000CAA0B9505930D460D96D1E903B8FFF7C2
:104FA00017FF002840F064810C9E5E440BAA29463E
:104FB0002046FFF70DFF002840F0538194F8E020D1
:104FC0004FF47A7E0EFB06F3082A03F5004314BF64
:104FD0004FF0030C4FF0020C190C079100F04A81BE
:104FE000D4F8DC1094F8E8000691AA49DFF8BC92E6
:104FF000D4F8E4A001FB02F201FB00F101F5FA7123
:10500000A9FB010102F5FA72A9FB0202C809089086
:10501000D0090990089889090EFB0A00B0FBF1F14C
:1050200006980891014609980EFB010E089992090D
:10503000BEFBF2F21144C9020CFB01F202F5FA7256
:10504000A9FB0212920940F2776101FB02F202F51C
:10505000FA7206F18001A9FB02294FEA9919080AA0
:1050600009FB00F04FF47A728030000A02FB08F866
:10507000894A079E18BF00EB40004FEA184814BF4A
:1050800080000C204FEA0848B8FBF6F8904528BF8E
:1050900090464FF4167C0CFB08F64FF080429208C5
:1050A0008242FCD84FF0000C0CEB020E86454FEA12
:1050B0005C0C9CBFA0EB0E0094449208F4D10B98BA
:1050C000DFF8E8E14FF47A7808FB00F0B0F5481F0C
:1050D00028BF4FF448101B0C40001B04C0F5FA70A9
:1050E0001844AEFB008003F5FA7395F818802D89FB
:1050F0008009AEFB03E300029B094FEA4C0CB0FBB6
:10510000F3F3B8F1000F40F0BD806448DFF8A081F0
:1051100000FB05F5A8FB05051B02AD0AC3F58033AE
:1051200005FB03F303F500431B0C03F580335B0819
:1051300003FB03F39B0B4FF4487505FB03F505F5E3
:1051400000452D0C05FB05F006F500452D0C05FB73
:105150000505B5F1804F4FF0804002D280088542AE
:10516000FCD302EB000EAE454FEA52029CBFA5EB0A
:105170000E0512188008F4D1494D12043232A5FBF5
:10518000025241F2883E40F6B538069D5209B2FB04
:10519000FCF2DFF820C108FB02E25544ACFB02C27E
:1051A000DFF808A105F5FA75520BAAFB055AB2F50E
:1051B000704F4FEADA1E28BF4FF470424FF080451F
:1051C0000EF5C81E4FEA9A1ABEFBFAFEAD08AE45B0
:1051D000FCD3BDB14FF0000C05EB0C08C6454FEAFF
:1051E0005C0C24BFAEEB080EAC44AD08F4D14FEA22
:1051F0000C25DFF8B8C005F5FA75ACFB05C5AD099F
:1052000005FB05F502FB0255B5F1804F4FF08042DA
:1052100003D292089542FCD392B100EB020CAC454C
:105220004FEA50009CBFA5EB0C0580189208F4D102
:105230001C4D4FF47A7202FB00F2AA4228BF2A46A4
:1052400004984FF4487502600598039021F0FF011F
:10525000C4F840212046CDE901695A460095FFF780
:10526000DFFD0D9A3B689A4210D10FB0BDE8F08F78
:105270005E469BE6049A0B4B1360C4F84031059BD5
:105280001860EEE708484FF480335DE7FCF798FAC2
:1052900000080020002F3A00666666009A99060012
:1052A0001F85EB51AE878F0200C40900D34D6210F9
:1052B000517BC6375917B7D100000000000000002D
:1052C0002DE9F04F4FEAD10A8FB0DFF860821899CC
:1052D00002910AF00F074FF2A105FD400024D8F813
:1052E00000100D919B4605F00103049203932146A3
:1052F000199B8DF81A400DF11A028DF81B408DF89C
:105300001C408DF81D40ADF81E400C9405460193DD
:10531000FDF7DEFA9DF81A608146002E55D0002870
:105320003AD0264600244FF00009019B1B7813B9A0
:10533000029A002353810DF11B0201212846FDF73B
:10534000C7FA00BB9DF81A309DF81C20002B08BF3F
:105350000126042F18BF9DF81B3085F82E601ABF58
:10536000B3FA83F35B09012385F82F309DF81D30D4
:10537000002A08BF0124002B08BF4FF0010985F85F
:10538000304085F831900D9AD8F800309A4240F0BC
:10539000C7800FB0BDE8F08F029C0CAB08AA214675
:1053A0002846FFF7EDFD002840F08D800C9B6381BF
:1053B000494609AA2846FDF7EBFA099E814626B11F
:1053C000089B9E422CBF00260126B9F1000FA9D1EF
:1053D00007AA02212846FDF77BFA9DF81C400346E8
:1053E000B4B1002840F0A0800AAA02212846FDF7A7
:1053F000CFFA0346002868D0BDF81E200A9C52024E
:10540000C5F84821002C8ED094422CBF00240124E2
:105410000593002B87D10DF11D0203212846FDF7CE
:1054200057FA9DF81D900246B9F1000F13D0059B65
:10543000002877D1BBF1000F33D10BAA03212846F6
:10544000FDF7A6FA0B9B02464BB35B4594BF4FF0AA
:1054500000094FF00109002A7FF467AF039B53BB9B
:105460007B1E022B17D9062F29D0092F27D00AF02F
:105470000D0ABAF1080F1AD0012C18D0042F46D00B
:10548000B9F1010F43D0012E45D0019A00231370CA
:10549000B14634464CE7019A052313704BE7994611
:1054A000D9E7049B4FEA0329B9FBFBFBC5E7019A47
:1054B000032313703FE7019AFF2313703BE7019A20
:1054C0000423137037E74E462CE70122FF212846BC
:1054D00000F026FA034600288ED10DF11E02B621F7
:1054E000284600F095FA0346002885D14A46FF2158
:1054F000284600F015FABDF81E200A9C5202034609
:10550000C5F84821002C7FF47FAF4C4680E7019A14
:10551000022313700FE7019A012313704C460AE728
:10552000FCF74EF9994600E74C46FCE600080020DF
:105530002DE9F041134D82B02B680193884602217A
:1055400017460646FEF7BCFD044660B996F8F130F2
:1055500007F140007BB196F8F23088F8003006F190
:10556000F30109F095FF019A2B689A42204607D172
:1055700002B0BDE8F08188F8004087F84040F2E7CB
:10558000FCF71EF9000800200000000000000000E9
:10559000F0B52A4D83B00C462B6801930A460DF1F5
:1055A00003010646FFF7C4FF60BB9DF80330002BE4
:1055B00036D0222B2CD9262B38D9214F0FCF206063
:1055C00097F804C038686160A260E360206184F8E5
:1055D00014C01C4B03CB04F16002206261623046B0
:1055E000C02100F0FDF968B90DF102023046C22178
:1055F00000F0F6F99DF8023001221B0984F86230B0
:1056000084F86120019A2B689A4215D103B0F0BD4D
:10561000202B0BD00C4B07CB20606160A260D8E739
:105620000A4B07CB20606160A260D2E7084B07CB32
:1056300020606160A260CCE7FCF7C2F8000800209F
:10564000642C01087C2C01084C2C0108402C01081A
:10565000582C0108000000000000000000000000BD
:105660002DE9F043214E8FB05C1C8DF81410316889
:105670000D9107465FFA84F90DF114083BB1D0187B
:10568000444410F8015D04F8015D9042F9D1184DD1
:105690003224284602F0F4FD4FF0000C029404ACD2
:1056A000CDE9004C4B4642467908284602F078FD89
:1056B000044650B9284602F003FE20460D9A33688E
:1056C0009A4210D10FB0BDE8F0832B78052B05D09E
:1056D000074802F0F5FD6FF01300EFE7FCF760F903
:1056E000FCF73EF9F4E7FCF76BF800BF0008002078
:1056F000C0270020000000000000000000000000A3
:105700002DE9F0471B4E1C4D346886B09146059438
:1057100006AC9A4604F8081D80463227284602F057
:10572000AFFDCDF804A02246CDF800904FEA580115
:1057300028460297012302F033FD58B90446284653
:1057400002F0BEFD2046059A33689A4210D106B099
:10575000BDE8F0872B78052B05D0074802F0B0FD97
:105760006FF01300EFE7FCF71BF9FCF7F9F8F4E72B
:10577000FCF726F800080020C027002000000000E9
:1057800010B5094C84B023688DF8072003930DF100
:1057900007020123FFF764FF039A23689A4201D1AD
:1057A00004B010BDFCF70CF8000800200000000059
:1057B00010B582B002AB140A03F8084D084C8DF8FE
:1057C00001201A46236801930223FFF749FF019A3B
:1057D00023689A4201D102B010BDFBF7F1FF00BF70
:1057E0000008002000000000000000000000000091
:1057F00010B5084B82B01C680194019C1B689C4248
:1058000005D1012302B0BDE81040FFF779BFFBF7D7
:10581000D7FF00BF000800200000000000000000CB
:1058200030B50A4C83B023680193154602236A46BB
:10583000FFF766FFBDF80030019A5BBA2B80236842
:105840009A4201D103B030BDFBF7BAFF0008002037
:1058500070B50F4C82B023680193154604236A4645
:10586000FFF74EFFBDF800309DF802109DF80320B1
:10587000019E5BBA9BB241EA032342EA03232B60F9
:1058800023689E4201D102B070BDFBF799FF00BFB3
:1058900000080020000000000000000000000000E0
:1058A00030B50D4C90F8BF01256883B03F2B0195B2
:1058B00094BF00256FF00305FFF7D2FE019A23681D
:1058C00000280CBF28466FF013009A4201D103B0A4
:1058D00030BDFBF775FF00BF00080020000000008E
:1058E00030B50D4C90F8BF01256883B03F2B019572
:1058F00094BF00256FF00305FFF702FF019A2368AC
:1059000000280CBF28466FF013009A4201D103B063
:1059100030BDFBF755FF00BF00080020000000006D
:1059200010B50A4C90F8BF01236882B00193FFF7CD
:1059300027FF019A2368002814BF6FF0130000208E
:105940009A4201D102B010BDFBF73AFF00080020D7
:1059500010B50A4C90F8BF01236882B00193FFF79D
:1059600027FF019A2368002814BF6FF0130000205E
:105970009A4201D102B010BDFBF722FF00080020BF
:105980002DE9F041134E90F8BF7182B01546326890
:10599000019238460DF103021C468846FFF728FFA6
:1059A00090B99DF803302B402343414638461A46B0
:1059B0008DF80330FFF7E4FE30B9019A33689A425C
:1059C00005D102B0BDE8F0816FF01300F5E7FBF7F9
:1059D000F7FE00BF000800200000000000000000EB
:1059E00010B50A4C90F8BF01236882B00193FFF70D
:1059F000FFFE019A2368002814BF6FF013000020F7
:105A00009A4201D102B010BDFBF7DAFE0008002077
:105A100010B50A4C90F8BF01236882B00193FFF7DC
:105A2000FFFE019A2368002814BF6FF013000020C6
:105A30009A4201D102B010BDFBF7C2FE000800205F
:105A400010B50A4C90F8BF01236882B00193FFF7AC
:105A5000FFFE019A2368002814BF6FF01300002096
:105A60009A4201D102B010BDFBF7AAFE0008002047
:105A700000B50D4A83B01168019100230093009B8B
:105A8000F92B06D800BF009B01330093009BF92B34
:105A9000F8D90199136899424FF0000002D103B080
:105AA0005DF804FBFBF78CFE0008002000000000FE
:105AB00030B5164C85B0236803930546FDF730F8E2
:105AC00028B1039A23689A421DD105B030BD05F56F
:105AD000AE712846FCF714FD0028F2D12846FDF7E8
