:020000040800F2
:1000000000040020C101000871A3000871A30008CA
:10001000115C000871A3000871A3000871A3000817
:1000200071A3000871A3000871A3000811C600089D
:1000300071A3000871A3000871A30008113D010815
:1000400071A3000881030108110501086105010879
:1000500071A3000871A30008C10001081101010883
:1000600061010108B10101080102010801F600085F
:1000700051F60008A1F60008F1F6000841F7000863
:1000800091F70008E1F7000831FF000801070108B7
:100090007107010821080108D1080108510201086F
:1000A00071A3000871A300086136010871A300085C
:1000B000D13801081139010851390108F119010835
:1000C000311B010871A3000871A3000871A3000887
:1000D00071A3000871A3000871A30008D13D0108B5
:1000E000E1020108D10301082104010871A30008FD
:1000F00071A3000871A3000871A3000831F800087B
:1001000071A30008610A01089139010871A3000870
:1001100071A3000871A300082136010871A300082B
:1001200081F80008D1F8000821F9000871F90008E9
:10013000C1F9000871A300087104010871A3000847
:1001400071A3000871A3000871A30008112E010813
:1001500011FA000861FA0008B1FA000871A300085A
:1001600071A3000871A3000871A3000871A300081F
:10017000C104010871A30008613B000871A30008D5
:1001800071A3000871A3000871A3000871A30008FF
:1001900071A3000871A3000871A3000871A30008EF
:1001A00071A3000871A3000871A3000871A30008DF
:1001B00071A3000871A3000871A3000871A30008CF
:1001C00072B62E4880F3098840F20000CCF200009D
:1001D0004EF63471CEF20001086040F20000C0F229
:1001E000F0004EF68851CEF2000108604FF000009A
:1001F000E1EE100A4EF63C71CEF2000108600620D6
:1002000080F31488BFF36F8F13F02AFF4FF055303F
:100210001B491C4A91423CBF41F8040BFAE71A49BA
:10022000164A91423CBF41F8040BFAE71749184AB5
:10023000184B9A423EBF51F8040B42F8040BF8E702
:1002400000201549154A91423CBF41F8040BFAE7DA
:100250000AF076F8124C134DAC4203DA54F8041B42
:100260008847F9E701F05CFF0F4C104DAC4203DA10
:1002700054F8041B8847F9E70AF072B80008002018
:10028000000000200004002000040020C81C020818
:10029000000800207C1800208018002028BC0020C6
:1002A000C0010008C0010008C0010008C00100082A
:1002B0002DE9F04F2DED108AC1F80CD0D0F80CD0FC
:1002C000BDEC108ABDE8F08F0AF092F90BF0E8F966
:1002D000002383F311882846A04700200AF018FF66
:1002E0000BF0C6F90AF064F90AF082FD0AF080F911
:1002F0000BF0D6F900DFFEE7000000000000000070
:100300002DE9F843544B80461A68544882422DED3B
:10031000028B1BD052490B68DA0405D40A6842F4F8
:1003200080530B60012000E000204E4A4E491160CE
:1003300013684A4A934208D147490B6030B1484894
:10034000036823F48052026000E0FEE798ED018A22
:10035000B5EE408A0021F1EE10FAC8F81C10C8F87A
:100360001810C8F81410C8F81010C8F82810C8F8E9
:100370002410C8F8201029D0DFED3C7A28EE270A97
:1003800010EE100A01F038F8044618EE100A0D4677
:1003900001F032F80646B8F800000F4601F01AF8EE
:1003A0002BA3D3E9002301F0ADF902460B463046FA
:1003B000394600F0C3FE02460B462046294601F0AE
:1003C000A1F901F03DFBA8F82C0001E0A8F82C10E1
:1003D00098ED028AB5EE408AF1EE10FA26D0B8F810
:1003E00000904FEA092000F0F5FF044618EE100ACD
:1003F0000D4601F001F816A3D3E9002301F058F8E7
:10040000064648460F4600F0E5FF02460B463046DA
:10041000394600F093FE02460B462046294601F07D
:1004200071F901F00DFBA8F82E0002E00020A8F8F9
:100430002E00B8F800204FF47A73B2FBF3F1A8F85D
:100440003010BDEC028BBDE8F88300BFAFF3008035
:100450001F85EB51B81E194080180020CDB5E8B5B6
:100460003038024000300240C2A507F4000080434B
:100470002DE9F04F9BB083461992A94A1891A948DB
:100480001168814200D0FEE79E6AB3F80CC09F69F4
:100490009A8DD98D039603261C6A5D6A059706928C
:1004A00006FB0CF74FEA8C0206264FEA4C000B9134
:1004B0000E97052106FB0CF70F9207220294049574
:1004C0000D90119701FB0CF04FEACC0602FB0CF1EA
:1004D00000271D695C69D3F81CA010901291179633
:1004E0000197188EDDF80490814580F20A818E48CC
:1004F0009BF800601BF80C7010F80690C25DA144D8
:100500008419511994F8008194F8002201EB4808ED
:10051000CDF81C80DDF834801BF80860855DC719B4
:10052000A9180E9A97F800411BF8022097F800725C
:1005300001EB4405815C0895CC1981190F9E91F857
:10054000008191F8007204EB48081BF80640CDF8D2
:1005500024808218055D92F8006192F80022E91962
:1005600001EB460505EB0807DDF8408015971BF801
:1005700008700A950419C15D94F8005194F800427E
:10058000DDF81C808E1806EB4501119D089A1BF8BA
:1005900005508E18C719425D1696161997F8002156
:1005A00006EB42029044CDF85080129C97F80072FE
:1005B0001BF804604519845DE41995F8007195F8FD
:1005C0000052801904EB47044FF01C0804EB0907A4
:1005D00090F80061139708FB09AADDF81C800C94C1
:1005E0000AEB0209152705EB460490F8005207FBB9
:1005F0000890099FDDF820900A2606FB070A0F27BE
:1006000007FB09A04FF00308DDF8289008FB010064
:100610004FF0060A0AFB0900009015984FF03009C8
:1006200009FB00FADDF858902E2000FB09A0824655
:100630000598824413984FF0240909FB00AA1498E6
:100640004FF02A0909FB00AA0898DDF8249008FB5E
:1006500000F8062000FB0988DDF81C9008EB090073
:1006600007FB01010A9F0C98DDF8009006FB0718B4
:100670001C2606FB008115270B9807FB021205922A
:10068000A9F5003868B1029E049FCDF8108006EBF2
:100690000801CE1B46434FF4807296FBF2F00290A5
:1006A0008046069961B1039E08FB01F8C1F5807789
:1006B00006FB07894FF4807299FBF2F003908046A5
:1006C000199901FB08F7002F02DD0837381103E004
:1006D000083F102697FBF6F047F6BC72019E1349BF
:1006E000189FDDF85C809042A8BF1046DA897243FB
:1006F0008842A8BF0146013627F81210C34401966C
:10070000EFE61D615C61029D059C1D629C61039D7D
:10071000049CC3F81CA05C629D621BB0BDE8F08F16
:1007200080180020CDB5E8B5000800204480FFFF08
:100730002DE9F04FA1B0C74C1F92C74A1E91116816
:10074000A14200D0FEE79F6A9A69998DDC8D0497DB
:100750009F89069207910F940322052106241D6AA2
:100760005E6A03957A4379437C43129214911594FF
:10077000072209210A24794305964FEA47084FEAE0
:1007800087097A434FEAC70A7C431E695D69D3F83B
:100790001CB01891CDF84480CDF84C901692CDF84D
:1007A0005CA01D94002102911A8E0299914280F260
:1007B0005981AA4A047812F80490A944C55D111918
:1007C00012F8058091F8004191F800A2464406EB2A
:1007D0004406119C0896045D5519165D95F800C1F4
:1007E00095F8005206EB0A0808EB4C0ADDF8488041
:1007F000CDF824A010F80810DDF84C80565C1419D0
:1008000006EB050A10F8085094F800C1565D94F8FC
:10081000004251180AEB4C0C361991F800A1149CB7
:1008200091F80012CDF828C006EB4A08065DCDF815
:100830002C80945DDDF85480551904EB010A95F87D
:10084000004195F800520AEB44010C9110F8081091
:100850009619545C641996F8005104EB45040D9404
:10086000169D96F80062DDF824A0DDF85C80A444B3
:10087000445DCDF86CC0155D5118AD1991F800615B
:1008800091F8001205EB460505EB0A060E9510F8E7
:1008900008501C961419565DDDF860A0711894F884
:1008A000006194F8004201EB460C08990CEB01063C
:1008B0001A9610F80A605519915D9219091995F860
:1008C000004192F8006195F8005201EB44012D249B
:1008D00001EB090804FB09BB10910899CDF864806D
:1008E0000BEB0C09DDF8288005EB460592F8006259
:1008F000242202FB019A152404FB08A9DDF824A098
:100900000C994FF01C0B0BFB0A994FF00A08DDF80D
:100910002CA008FB01994FF00F0B0E990BFB0A99C5
:100920004FF00308DDF834A008FB01994FF0060BE7
:100930000BFB0A99CDF80490DDF82CA00C994FF030
:100940004B0B51440BFB01F91B994FF0490A0AFB71
:10095000019B0699DDF868900BEB010A4FF03F0B05
:100960001C990BFB09AA4FF0450BDDF864900BFBBB
:1009700001AA4FF0370B0BFB09ABDDF824A00A9955
:1009800008FB0AF84FF00609DDF820A009FB0188F2
:100990000C99D0444FF00F09DDF82CA009FB018819
:1009A0000A21DDF8389001FB0A884FF01C0A0D99E6
:1009B0000AFB098804FB018A109C0F994FF02D094E
:1009C00009FB04A8DDF804A002FB0C820692AAF53C
:1009D0007A3971B1039C0599CDF8149004EB0902A2
:1009E000541A0F9A4FF48071544394FBF1F403941A
:1009F000A146079961B1049CC1F5807209FB01FC15
:100A000004FB02C94FF4807199FBF1F20492914604
:100A10001F9C04FB09F1002902DD10314C1103E099
:100A20001039202291FBF2F447F6BC718C42A8BF2A
:100A30000C46DA890299DDF874804A4308498C42F1
:100A4000A8BF21461E9C24F81210029A4044511C53
:100A5000A9E600BFCDB5E8B5801800200008002049
:100A60004480FFFF05981E615D61039E069D049C06
:100A700058629D61C3F81CB01E629C62104621B092
:100A8000BDE8F08F2DE9F04F95B0994C1392994A3B
:100A900012911168A14200D0FEE75E6A1D6A9F6A4A
:100AA0009A69998DB3F82E800C964FF00009D3F80F
:100AB00010C05E69D3F81CB00195029709920A91A3
:100AC000CDF83480CDF80C908B4904780D190C5D6D
:100AD00095F8007295F8008106EB070A067ACDF8C2
:100AE0002CA08F198E5D97F8002202EB4805AC44CC
:100AF000057C97F80081CDF810C04A194D5D92F839
:100B0000009292F8002109EB040A0AEB480C90F8D5
:100B100018A090F82090CDF814C001EB0A0494F8C6
:100B2000007294F80041BF1907EB420801EB09027B
:100B3000CDF8188092F8006292F80021771907EB3F
:100B4000440606EB080C90F8288011F80A70079606
:100B500001EB0805CDF840C095F8004295F800512A
:100B6000E619059F06EB4204E619119690F83060ED
:100B700008948C1911F8097094F80022D219049F76
:100B800002EB4502BD180F9590F8385011F8089007
:100B900094F80041DDF82C808E5D4F1997F800A283
:100BA00097F800710AEB090C0CEB4404DDF818A06F
:100BB00011F805C000941C2505FB082944440A21AE
:100BC000DDF8148001FB0A9906EB4706DDF820A04A
:100BD0000F2707FB0899032101FB0A99DDF81CA0E8
:100BE0004FF0060808FB0A99DDF810A0152101FB5B
:100BF0000A99CB44DDF84490CDF82CB04FF02E0A82
:100C00000AFB09FADDF840904FF0300B0BFB09AA04
:100C10004FF0240B0BFB04A90F9C4FF02A0A0AFB90
:100C2000049B099CDDF81890DDF810A0A344059CF6
:100C300008FB09A8DDF820A04FF0030909FB048890
:100C4000079C07FB0A890A2707FB0498DDF8009038
:100C5000DDF82CA00C9F05FB098501FB02520199D0
:100C60000992AAF500328C180D99DDF82880E51B51
:100C70004D434FF4807195FBF1F40194019F44467C
:100C80007C43029FC8EB010507FB054595FBF1F18D
:100C90000291139C6143002902DD0831091103E030
:100CA0000839102791FBF7F147F6BC75134C129FDA
:100CB0000C92A942A8BF2946039DA142B8BF214674
:100CC00079530C354030C02D03957FF4FDAE099863
:100CD000019C029D9861C3F810C05E61C3F81CB00E
:100CE0001C625A629D62102015B0BDE8F08F00BFF3
:100CF000CDB5E8B580180020000800204480FFFF33
:100D00002DE9F04FA1B084461F92BE4A1E91BE4805
:100D10001168814200D0FEE79E6A9F6905969E8910
:100D2000D98D01967000079703277E431190019893
:100D30009A8D0F9112960521019E08924843B200A8
:100D40001490019E01980199139206277E43072271
:100D5000C700514315961797019E019F1C6A5D6A53
:100D6000169109220A2156434F434FF0000804947C
:100D700006955C691D69D3F81CB018961D97CDF8CF
:100D80000C80188EDDF80C90814580F25A819F49C5
:100D90009CF80000DDF804900F181CF8096097F823
:100DA00000A297F80021085CA2448C198E5D94F88B
:100DB000008294F80041454405EB4207119D0997D4
:100DC0001CF805504A194D5D92F8007292F80081A6
:100DD0003F18129807EB44091CF80040CDF8289002
:100DE00008190C5D90F8007290F80001BF1907EB2C
:100DF0004809DDF84C80CDF82C901CF8089001EBE8
:100E00000902CDF8089092F8006292F80021771953
:100E1000149E1CF80690159E07EB400801EB090094
:100E2000CDF8308090F8005290F800012F1907EBB0
:100E300042081CF80670029DCDF83480CA194E5D38
:100E400092F80042A41904EB40050295DDF82C80CD
:100E5000169E92F80021CF5DA844CDF86C801CF856
:100E6000068011F80950DDF8609001EB080011F8D8
:100E7000088090F8004290F8000166190A9D06EB80
:100E80004204179A0E9466191C961CF802608C197D
:100E90008E5D94F8002294F80041D519099F05EB66
:100EA0004002D5191A951CF809504F194D5D97F855
:100EB000000297F80071404400EB44002D2100EB44
:100EC0000A0401FB0ABB1090099819940BEB020A63
:100ED00006EB470424210B9F01FB00A94FF01508E6
:100EE000DDF828A00D9808FB07964FF01C0B0BFBB4
:100EF0000A69DDF830800A2606FB009A0F27DDF824
:100F0000389007FB08AB4FF0030808FB09BADDF87F
:100F100008B0062000FB0BA9CDF80090DDF834A046
:100F2000DDF830B04FF04B090AEB0B0009FB00FA7B
:100F30001B984FF0490B0BFB00A9079809EB000A1F
:100F4000DDF868901C984FF03F0B0BFB09AA4FF09F
:100F5000450BDDF864900BFB00AA4FF0370B0BFB41
:100F600009ABDDF828A00B9808FB0AF84FF006093A
:100F7000DDF824A009FB00880D9808EB0A0907FB9F
:100F800000980C9FDDF83890029806FB07864FF01A
:100F90001C0A0AFB0968152707FB008610980F9F9B
:100FA0004FF02D0909FB006A01FB02A2DDF800A049
:100FB0000792AAF57A386FB10499069ECDF8188089
:100FC00001EB0800811B79434FF4807291FBF2F72B
:100FD0000497B846089860B1059908FB00F8C0F579
:100FE000807601FB06894FF4807299FBF2F7059732
:100FF000B8461F9800FB08F6002E09DD1036771161
:101000000AE000BF80180020CDB5E8B50008002038
:10101000103E202196FBF1F7039ED8891049DDF898
:10102000748047F6BC729742A8BF17468F42A8BF8C
:10103000394670431E9F721C27F81010C444039257
:101040009FE65C61079C049A9C61059E069C1D615D
:10105000C3F81CB01A625C629E6221B0BDE8F08FDA
:101060004480FFFFAFF3008000000000000000009C
:101070004B1C012B98BF70472DE9F003911C9B0876
:10108000B1F80480B1F802900A8831F802CC8044AB
:10109000814402448444D9F80070D8F8006015688F
:1010A000DCF80040C9F80060C8F80070CCF80050C7
:1010B0001460D9F80470D8F804605568DCF804406E
:1010C000C9F80460C8F80470CCF8045054600831C2
:1010D000013BD5D1BDE8F00370474B1C012B98BFF5
:1010E00070472DE9F003911C9B08B1F80480B1F81A
:1010F00002900A8831F802CC00EB580800EB59093D
:1011000000EB520200EB5C0CD9F80070D8F80060DC
:101110001568DCF80040C9F80060C8F80070CCF829
:10112000005014600831013BDFD1BDE8F003704787
:1011300081F0004102E000BF83F0004330B54FEA88
:1011400041044FEA430594EA050F08BF90EA020FF5
:101150001FBF54EA000C55EA020C7FEA645C7FEA88
:10116000655C00F0E2804FEA5454D4EB5555B8BFAB
:101170006D420CDD2C4480EA020281EA030382EA1C
:10118000000083EA010180EA020281EA0303362DAE
:1011900088BF30BD11F0004F4FEA01314FF4801C81
:1011A0004CEA113102D0404261EB410113F0004F93
:1011B0004FEA03334CEA133302D0524263EB43034A
:1011C00094EA050F00F0A780A4F10104D5F1200EE8
:1011D0000DDB02FA0EFC22FA05F2801841F1000143
:1011E00003FA0EF2801843FA05F359410EE0A5F117
:1011F00020050EF1200E012A03FA0EFC28BF4CF048
:10120000020C43FA05F3C01851EBE37101F00045FD
:1012100007D54FF0000EDCF1000C7EEB00006EEB0A
:101220000101B1F5801F1BD3B1F5001F0CD3490894
:101230005FEA30004FEA3C0C04F101044FEA4452EB
:1012400012F5800F80F09A80BCF1004F08BF5FEA72
:10125000500C50F1000041EB045141EA050130BD52
:101260005FEA4C0C404141EB010111F4801FA4F1F5
:101270000104E9D191F0000F04BF01460020B1FA4A
:1012800081F308BF2033A3F10B03B3F120020CDA82
:101290000C3208DD02F1140CC2F10C0201FA0CF060
:1012A00021FA02F10CE002F11402D8BFC2F1200CC5
:1012B00001FA02F120FA0CFCDCBF41EA0C0190407B
:1012C000E41AA2BF01EB0451294330BD6FEA0404C4
:1012D0001F3C1CDA0C340EDC04F11404C4F12002AF
:1012E00020FA04F001FA02F340EA030021FA04F3C1
:1012F00045EA030130BDC4F10C04C4F1200220FA18
:1013000002F001FA04F340EA0300294630BD21FA55
:1013100004F0294630BD94F0000F83F4801306BF1B
:1013200081F480110134013D4EE77FEA645C18BF0F
:101330007FEA655C29D094EA050F08BF90EA020FA6
:1013400005D054EA000C04BF1946104630BD91EA9E
:10135000030F1EBF0021002030BD5FEA545C05D1A1
:101360004000494128BF41F0004130BD14F58004E0
:101370003CBF01F5801130BD01F0004545F0FE4154
:1013800041F470014FF0000030BD7FEA645C1ABF89
:10139000194610467FEA655C1CBF0B46024650EAC0
:1013A000013406BF52EA033591EA030F41F40021EC
:1013B00030BD00BF90F0000F04BF0021704730B572
:1013C0004FF4806404F132044FF000054FF0000147
:1013D00050E700BF90F0000F04BF0021704730B508
:1013E0004FF4806404F1320410F0004548BF4042DD
:1013F0004FF000013EE700BF42004FEAE2014FEA32
:1014000031014FEA02701FBF12F07F4393F07F4F0C
:1014100081F06051704732F07F4208BF704793F00F
:101420007F4F04BF41F40021704730B54FF4607422
:1014300001F0004521F000411CE700BF50EA010225
:1014400008BF704730B54FF000050AE050EA0102CE
:1014500008BF704730B511F0004502D5404261EB3E
:1014600041014FF4806404F132045FEA915C3FF47F
:10147000D8AE4FF003025FEADC0C18BF03325FEA1C
:10148000DC0C18BF033202EBDC02C2F1200300FACD
:1014900003FC20FA02F001FA03FE40EA0E0021FAF2
:1014A00002F11444BDE600BF00000000000000008F
:1014B00070B54FF0FF0C4CF4E06C1CEA11541DBFEA
:1014C0001CEA135594EA0C0F95EA0C0F00F0DEF8B5
:1014D0002C4481EA030621EA4C5123EA4C5350EA9A
:1014E000013518BF52EA033541F4801143F48013EB
:1014F00038D0A0FB02CE4FF00005E1FB02E506F07C
:101500000042E0FB03E54FF00006E1FB03569CF0D0
:10151000000F18BF4EF0010EA4F1FF04B6F5007FD6
:1015200064F5407404D25FEA4E0E6D4146EB060648
:1015300042EAC62141EA55514FEAC52040EA5E50D1
:101540004FEACE2EB4F1FD0C88BFBCF5E06F1ED87B
:10155000BEF1004F08BF5FEA500E50F1000041EBB2
:10156000045170BD06F0004646EA010140EA02005F
:1015700081EA0301B4EB5C04C2BFD4EB0C0541EA81
:10158000045170BD41F480114FF0000E013C00F396
:10159000AB8014F1360FDEBF002001F0004170BDBA
:1015A000C4F10004203C35DA0C341BDC04F11404D3
:1015B000C4F1200500FA05F320FA04F001FA05F25F
:1015C00040EA020001F0004221F0004110EBD3702C
:1015D00021FA04F642EB06015EEA430E08BF20EA58
:1015E000D37070BDC4F10C04C4F1200500FA04F3FB
:1015F00020FA05F001FA04F240EA020001F000418D
:1016000010EBD37041F100015EEA430E08BF20EAFF
:10161000D37070BDC4F1200500FA05F24EEA020E47
:1016200020FA04F301FA05F243EA020321FA04F076
:1016300001F0004121FA04F220EA020000EBD3702D
:101640005EEA430E08BF20EAD37070BD94F0000F2D
:101650000FD101F00046400041EB010111F4801F61
:1016600008BF013CF7D041EA060195F0000F18BF12
:10167000704703F00046520043EB030313F4801F4E
:1016800008BF013DF7D043EA0603704794EA0C0F08
:101690000CEA135518BF95EA0C0F0CD050EA41061E
:1016A00018BF52EA4306D1D181EA030101F000419B
:1016B0004FF0000070BD50EA410606BF10461946C3
:1016C00052EA430619D094EA0C0F02D150EA0136CF
:1016D00013D195EA0C0F05D152EA03361CBF104610
:1016E00019460AD181EA030101F0004141F0FE41AF
:1016F00041F470014FF0000070BD41F0FE4141F433
:10170000780170BD70B54FF0FF0C4CF4E06C1CEA32
:1017100011541DBF1CEA135594EA0C0F95EA0C0FE7
:1017200000F0A7F8A4EB050481EA030E52EA0335A2
:101730004FEA013100F088804FEA03334FF08055C3
:1017400045EA131343EA12634FEA022245EA1115F0
:1017500045EA10654FEA00260EF000419D4208BFA1
:10176000964244F1FD0404F5407402D25B084FEA4E
:101770003202B61A65EB03055B084FEA32024FF4FA
:1017800080104FF4002CB6EB020E75EB030E22BF57
:10179000B61A754640EA0C005B084FEA3202B6EB17
:1017A000020E75EB030E22BFB61A754640EA5C00C6
:1017B0005B084FEA3202B6EB020E75EB030E22BF56
:1017C000B61A754640EA9C005B084FEA3202B6EB57
:1017D000020E75EB030E22BFB61A754640EADC0016
:1017E00055EA060E18D04FEA051545EA16754FEA78
:1017F00006164FEAC30343EA52734FEAC2025FEA96
:101800001C1CC0D111F4801F0BD141EA00014FF024
:1018100000004FF0004CB6E711F4801F04BF0143F5
:101820000020B4F1FD0C88BFBCF5E06F3FF6AFAE11
:10183000B5EB030C04BFB6EB020C5FEA500C50F1A1
:10184000000041EB045170BD0EF0004E4EEA113124
:1018500014EB5C04C2BFD4EB0C0541EA045170BD2B
:1018600041F480114FF0000E013C90E645EA060E6F
:101870008DE60CEA135594EA0C0F08BF95EA0C0F9D
:101880003FF43BAF94EA0C0F0AD150EA01347FF4E5
:1018900034AF95EA0C0F7FF425AF104619462CE7BC
:1018A00095EA0C0F06D152EA03353FF4FDAE10461F
:1018B000194622E750EA410618BF52EA43067FF470
:1018C000C5AE50EA41047FF40DAF52EA43057FF400
:1018D000EBAE12E700000000000000000000000076
:1018E0004FF0FF3C06E000BF4FF0010C02E000BFEC
:1018F0004FF0010C4DF804CD4FEA410C7FEA6C5CCF
:101900004FEA430C18BF7FEA6C5C1BD001B050EA71
:10191000410C0CBF52EA430C91EA030F02BF90EA5C
:10192000020F0020704710F1000F91EA030F58BF1B
:10193000994208BF90422CBFD8176FEAE37040F07D
:10194000010070474FEA410C7FEA6C5C02D150EA1B
:10195000013C07D14FEA430C7FEA6C5CD6D152EAD6
:10196000033CD3D05DF8040B704700BF844610469B
:1019700062468C461946634600E000BF01B5FFF79A
:10198000B7FF002848BF10F1000F01BD4DF808ED6A
:10199000FFF7F4FF0CBF012000205DF808FB00BF3B
:1019A0004DF808EDFFF7EAFF34BF012000205DF895
:1019B00008FB00BF4DF808EDFFF7E0FF94BF0120E2
:1019C00000205DF808FB00BF4DF808EDFFF7CEFFE3
:1019D00094BF012000205DF808FB00BF4DF808ED22
:1019E000FFF7C4FF34BF012000205DF808FB00BFF3
:1019F0004FEA410212F5001215D211D56FF4787337
:101A0000B3EB625212D94FEAC12343F0004343EAD9
:101A1000505311F0004F23FA02F018BF40427047B4
:101A20004FF00000704750EA013005D111F000403E
:101A300008BF6FF0004070474FF00000704700BFD4
:101A40004A0011D212F5001211D20DD56FF478733D
:101A5000B3EB62520ED44FEAC12343F0004343EA92
:101A6000505323FA02F070474FF00000704750EADD
:101A7000013002D14FF0FF3070474FF00000704747
:101A80004FEA4102B2F1E04324BFB3F5001CDCF1A0
:101A9000FE5C0DD901F0004C4FEAC0024CEA5070D8
:101AA000B2F1004F40EB830008BF20F00100704707
:101AB00011F0804F21D113F13872BCBF01F000400A
:101AC000704741F480114FEA5252C2F11802C2F13C
:101AD000200C10FA0CF320FA02F018BF40F00100BD
:101AE0004FEAC1234FEAD32303FA0CFC40EA0C006F
:101AF00023FA02F34FEA4303CCE77FEA625307D1AC
:101B000050EA01331EBF4FF0FE4040F440007047E2
:101B100001F0004040F0FE4040F40000704700BF7C
:101B200053B94AB9002908BF00281CBF4FF0FF3144
:101B30004FF0FF3000F074B9ADF1080C6DE904CE40
:101B400000F006F8DDF804E0DDE9022304B0704798
:101B50002DE9F047089E04468846002B4BD18A4267
:101B6000154667D9B2FA82F24AB1C2F1200701FAEA
:101B700002F320FA07F7954047EA030894404FEA3A
:101B8000154E230CB8FBFEF71FFA85FC0EFB1788D9
:101B900043EA084307FB0CF1994209D9EB1807F116
:101BA000FF3080F01B81994240F21881023F2B44A4
:101BB0005B1AA4B2B3FBFEF00EFB103344EA0344FD
:101BC00000FB0CFCA44509D92C1900F1FF3380F06F
:101BD0000781A44540F2048102382C4440EA0740C2
:101BE000A4EB0C0400271EB1D4400023C6E9004337
:101BF0003946BDE8F0878B4209D9002E00F0EB8012
:101C00000027C6E9000138463946BDE8F087B3FA37
:101C100083F7002F47D18B4202D3824200F2FA8031
:101C2000841A61EB030301209846002EE0D0C6E938
:101C30000048DDE702B9FFDEB2FA82F2002A40F086
:101C40008F80491B4FEA154E1FFA85F80127B1FB1B
:101C5000FEFC230C0EFB1C1143EA014308FB0CF1B4
:101C6000994207D9EB180CF1FF3002D2994200F2E9
:101C7000CD808446591AA3B2B1FBFEF00EFB1014BE
:101C800043EA044408FB00F8A04507D92C1900F1E9
:101C9000FF3302D2A04500F2B6801846A4EB080438
:101CA00040EA0C409FE7C7F1200CBB4022FA0CFE33
:101CB0004EEA030E01FA07F420FA0CF521FA0CF3B0
:101CC0004FEA1E482543B3FBF8F92C0C08FB1933E7
:101CD0001FFA8EFA44EA034309FB0AF49C4202FA13
:101CE00007F200FA07F10BD91EEB030309F1FF30ED
:101CF00080F087809C4240F28480A9F102097344FD
:101D00001B1BADB2B3FBF8F008FB103345EA0344EC
:101D100000FB0AFAA24508D91EEB040400F1FF33C8
:101D20006BD2A24569D90238744440EA0940A0FB4D
:101D30000289A4EB0A044C45C2464B4654D351D009
:101D4000002E69D0B1EB0A0564EB030404FA0CFC25
:101D5000FD40FC404CEA0505C6E90054002747E772
:101D6000C2F1200320FA03F7954001FA02F021FAAC
:101D700003F34FEA154E3843010CB3FBFEF71FFA8D
:101D800085F80EFB173341EA034107FB08F38B424A
:101D900004FA02F407D9691807F1FF3C2FD28B42ED
:101DA0002DD9023F2944CB1A81B2B3FBFEF00EFBC2
:101DB000103341EA034100FB08F38B4207D969184D
:101DC00000F1FF3C17D28B4215D902382944C91AB9
:101DD00040EA07473BE73746304609E70746E7E66C
:101DE0001846FBE64145ABD2B8EB020A69EB0E029E
:101DF00001381346A4E76046E9E7184695E76746C9
:101E0000D1E781467CE702382C4447E7ACF1020C6D
:101E10002B442FE7384608E73746E9E60000000084
:101E2000704700BF0000000000000000000000003C
:101E3000844641EA000313F003036DD1403A41D3D5
:101E400051F8043B40F8043B51F8043B40F8043B94
:101E500051F8043B40F8043B51F8043B40F8043B84
:101E600051F8043B40F8043B51F8043B40F8043B74
:101E700051F8043B40F8043B51F8043B40F8043B64
:101E800051F8043B40F8043B51F8043B40F8043B54
:101E900051F8043B40F8043B51F8043B40F8043B44
:101EA00051F8043B40F8043B51F8043B40F8043B34
:101EB00051F8043B40F8043B51F8043B40F8043B24
:101EC000403ABDD2303211D351F8043B40F8043BC4
:101ED00051F8043B40F8043B51F8043B40F8043B04
:101EE00051F8043B40F8043B103AEDD20C3205D3D4
:101EF00051F8043B40F8043B043AF9D2043208D0CC
:101F0000D2071CBF11F8013B00F8013B01D30B883D
:101F100003806046704700BF082A13D38B078DD01B
:101F200010F003038AD0C3F10403D21ADB071CBFED
:101F300011F8013B00F8013B80D331F8023B20F857
:101F4000023B7BE7043AD9D3013A11F8013B00F890
:101F5000013BF9D20B7803704B7843708B78837018
:101F60006046704700000000000000000000000014
:101F700090F800F06DE9024520F007016FF0000CC9
:101F800010F0070491F820F040F049804FF0000471
:101F90006FF00700D1E9002391F840F000F108004C
:101FA00082FA4CF2A4FA8CF283FA4CF3A2FA8CF384
:101FB0004BBBD1E9022382FA4CF200F10800A4FAEB
:101FC0008CF283FA4CF3A2FA8CF3E3B9D1E904233F
:101FD00082FA4CF200F10800A4FA8CF283FA4CF376
:101FE000A2FA8CF37BB9D1E9062301F1200182FA30
:101FF0004CF200F10800A4FA8CF283FA4CF3A2FA36
:102000008CF3002BC6D0002A04BF04301A4612BA43
:10201000B2FA82F2FDE8024500EBD2007047D1E946
:10202000002304F00305C4F100004FEAC50514F0D5
:10203000040F91F840F00CFA05F562EA05021CBFA6
:1020400063EA050362464FF00004A9E700000000C0
:1020500001F0FF01102A2BDB10F0070F08D010F859
:10206000013B013A8B422DD010F0070F42B3F6D15D
:10207000F0B441EA012141EA014122F007047FF076
:1020800000070023F0E80256083C85EA010586EACD
:10209000010685FA47F5A3FA87F586FA47F6A5FA09
:1020A00087F68EB9EED1F0BC01F0FF0102F0070215
:1020B00032B110F8013B013A83EA010313B1F8D1C0
:1020C0000020704701387047002D06BF35460338A1
:1020D000073815F0010F07D1013015F4807F02BFDA
:1020E000013015F4C03F0130F0BC0138704700BF2B
:1020F0004FEA410C7FEA6C5C02D150EA013C0AD104
:102100004FEA430C7FEA6C5C02D152EA033C02D1F5
:102110004FF0000070474FF00100704700000000D2
:1021200000B5174B83B01B6801930AF0D1FA08F091
:1021300037F903F015FD134913480CF089F804F042
:1021400077FA02F0DDFE03F0B3FA04F0C9F902F009
:10215000CFF903F075FC04F0FBF807F031FF00F055
:1021600057FA41F2883008F05BFF01F031F902F0D4
:10217000FFFD08F0C5F84FF4FA7008F051FFFAE7D8
:10218000000B0020040B002074BB002000000000A6
:1021900000B5084B83B01A680192019A1B689A42F5
:1021A00005D1054803B05DF804EB08F061B9FFF70D
:1021B000EFFF00BF000B002090B5010800000000F9
:1021C000F0B5134E83B000223368019307461046E2
:1021D000BB18BC5C5B786401DB1003F01C0304F0EB
:1021E000600423433B2BC2F34E05D8BF013002F1FC
:1021F0000202D8BF80B2B2F5A06F4B55E8D1019A68
:1022000033689A4201D103B0F0BDFFF7C1FF00BFB0
:10221000000B002000000000000000000000000093
:1022200080B5274C2749A369274A0D689A6186B073
:10223000202302220021CDE9013300924FF42073C4
:102240000A2205953020214D214F02F0D9FF02F0DE
:10225000DFFE002002F014FFA84602F079FE0026FF
:1022600022E002F04DFF02F0B3FE202383F3118839
:1022700009F0FEF908F09CF908F06AFAAB68002B47
:102280001ADD08F08DFD08F0B3F909F009FA2368AA
:10229000A34207D0A2699B6892689A4202D238464C
:1022A00008F0E6F886F3118801F0B2F80028D8D0DB
:1022B000002008F02DFFD4E7404609F0D1FAE0E70E
:1022C00050AD0020000B0020B0B50108100B00201D
:1022D000C0B5010800000000000000000000000080
:1022E000F0B5234D83B02B680193012A04460E46B6
:1022F00025D011D3022A06D00020019A2B689A42D9
:1023000033D103B0F0BD019A2B689A422DD103B0AE
:10231000BDE8F040FFF754BF00231846E25C02F02E
:10232000F8023B2AC3F34E0198BF013003F10203C8
:1023300098BF80B2B3F5A06F7254EFD1DDE700F51E
:10234000A067014600204B78DB00DBB23B2BA1EB02
:10235000040298BF0130C2F34E0201F1020198BF9E
:1023600080B28F42B354EED1C7E7FFF711FF00BF31
:10237000000B002000000000000000000000000032
:10238000F0B52B4C83B02368019300F27F25431EE8
:10239000002213F8011FAB420A44FAD1254B0578FD
:1023A000A3FB0232520A002140F27A264B1C9542CE
:1023B0009BB220D945186D7995421CD2B34226D8DC
:1023C00031B303F1FF3C84441CF8015F95429FB296
:1023D00016D91CF805EC964512D2A7EB010CBCF1FE
:1023E000270F3B468E461ADCB74210D839464B1CA5
:1023F00095429BB2DED8B34209D8C55C1946D5E7F1
:102400000137BFB2B7F5207F03F10103DCD1002112
:10241000019A23689A42084608D103B0F0BD0B44E4
:10242000054A5B10791A89B21380F1E7FFF7B0FE15
:10243000000B0020CDCCCCCC1C0B002000000000F9
:102440002DE9F0412B4E82B00023326801920546FF
:102450000F461C46EA5C02F0F8023B2AC3F34E0129
:1024600098BF013403F1020398BFA4B2B3F5A06F83
:102470007A54EFD139462846FFF7A2FE3946804606
:1024800001222846FFF72CFFA0420BD9A04509D90D
:10249000001B962823DDA8EB0404972CB4BF03206F
:1024A00000201DE0A0420BD2404509D2241A962CF0
:1024B00015DDA8EB00009728B4BF032001200FE032
:1024C00040450CD9A0450AD2A0EB0800962806DDAD
:1024D000A4EB0804972CB4BF0320022000E00320E3
:1024E000019A33689A4202D102B0BDE8F081FFF749
:1024F0004FFE00BF000B00200000000000000000A5
:1025000070B5244C82B0236801930546224809F037
:102510006FF902F0CDFD012D2CD01ED3022D12D16A
:102520001E4D00228318815C5B784901DB10C2F3E9
:102530004E0603F01C0301F0600102320B43B2F5BA
:10254000A06FAB55EED1019A23689A4220D113486F
:1025500002B0BDE87040FFF713BF104D0023C25C0E
:10256000C3F34E01023322F00702B3F5A06F6A54A1
:10257000F5D1E8E7094D00F5A066034659781A1A27
:10258000C2F34E020233C9009E42A954F6D1DAE7E3
:10259000FFF7FEFD000B0020100B00208418002028
:1025A00000B5074B07491A68088883B00192019A61
:1025B0001B689A4202D103B05DF804FBFFF7E8FD07
:1025C000000B00201C0B0020000000000000000099
:1025D00010B50A4C0A48236882B0019309F008F943
:1025E00002F066FD019A23689A4205D1054902B0BE
:1025F000BDE81040FFF724BFFFF7CAFD000B002025
:10260000100B0020041B0020000000000000000050
:1026100010B50A4C0A4B22680A4884B04FF41E7168
:10262000039200220092402208F0A2FC039A236841
:102630009A4201D104B010BDFFF7AAFD000B0020A3
:1026400021220008881D002000000000000000007A
:10265000F0B50E4F83B03B680193064670B100257C
:102660002C46962008F0DCFC07F0D2FC013504442F
:10267000B542A4B2F5D194FBF5F4A0B2019A3B683F
:102680009A4201D103B0F0BDFFF782FD000B00209C
:1026900070B5424E424D336884B005200393FFF776
:1026A000D7FFD5ED020AB3EE040A044603F000FD9D
:1026B0000520FFF7CDFF630000FB03F304FB04F2EA
:1026C00007EE903A00EE102AF8EEE77AB8EEC00A6C
:1026D0009FED347AA7EEC70A00FB00F3F0EE407AD4
:1026E00000EE103AB8EEC00A37EE800AB5EE400AA6
:1026F000F1EE10FAF1EEC00A45D4434207EE900A1B
:10270000B8EEE76A07EE904ADFED266A9FED267A7B
:10271000B8EEE70A07EE903AA6EE660AF8EEE77A18
:1027200080EE200A67EE877AC7EEA00A13F068FBF6
:10273000039A3368DFED1D7ADFED1D6AD5ED020ADD
:1027400020EE270A80EE267AB5EEC07AF1EE10FA76
:102750000CDD9A4220D1BBEE040A30EE470A30EE7F
:10276000270A04B0BDE8704003F0A2BC9A4213D11E
:10277000BBEE040A30EE470A30EE670A04B0BDE84B
:10278000704003F095BC0190CDED000A13F040FBC2
:102790000198DDED000AB0E7FFF7FAFC000B00201E
:1027A00030200020B28F703F441DAF3E0000344304
:1027B000DB0F4940000000000000000000000000A6
:1027C0002DE9F0472DED048B864E874D346882B09D
:1027D000074688460194F0EE408A99462888698821
:1027E000002A40F0D780381AA8EB010104B20FFA92
:1027F00081FA002C64D007EE904AB8EEE70A07EEA3
:1028000090AAF8EEE77A87EE800A13F081F9002C9F
:10281000DFED767A9FED767AD5ED020A20EE270A73
:10282000C0EE076A40F39380BAF1000F40F0AB802E
:10283000B1EE600A03F03CFC85ED020A0AFB0AFADD
:1028400004FB04A407EE904AB8EEE70AB5EE400A8E
:10285000F1EE10FAB1EEC08A00F1BF80B9F1000FBD
:102860003DD0B3EE099AB4EEC98AF1EE10FA3DDC20
:10287000B0EE480A03F004FDB4EE498AF1EE10FA16
:1028800038D0D5ED020A9FED5B0A2F80A5F80280B3
:1028900003F00EFCF0EE407AF0EE670A38EEC00A64
:1028A000C5ED027A03F004FC85ED020A019A336853
:1028B0009A4240F0958002B0BDEC048BBDE8F087F1
:1028C000BAF1000FD5ED020ADDD04ADD9FED4A0ACC
:1028D00030EE600A03F0ECFB85ED020AAEE7B0EEE5
:1028E000480A03F0CDFCD5ED020ACCE7B0EE490A68
:1028F00003F0C6FCDFED3E6AD5ED027A9FED3B7A30
:1029000067EEA67AB3EE098AC7EE878AB0EE680A48
:1029100013F0D6F92B8807EE903AF8EEE77AE0EE5E
:10292000087AB0EE680AFCEEE77A17EE903A2B8050
:1029300013F016FA6B8807EE903AF8EEE77AE0EEBD
:10294000087AFCEEE77A17EE903A6B80AEE7BAF1C0
:10295000000F0FD137EEE00A03F0AAFB85ED020A63
:102960006CE79FED260A30EE600A03F0A1FB85EDCF
:10297000020A63E736EEA70A30EE600A03F098FB1E
:1029800085ED020A5AE736EEE00A03F091FB85ED89
:10299000020A53E79FED158A00231A46B0EE480A53
:1029A000FFF70EFFFFF774FE0A2085ED028AFFF79E
:1029B0004FFE2330002384B269889FED100A2C80DB
:1029C00020461A46FFF7FCFE0A20FFF741FE00F101
:1029D000230189B22888698005E713F019FA3DE7D9
:1029E000FFF7D6FB000B002030200020000034430E
:1029F000DB0F4940000000000000B4420000B4C2F8
:102A00002DE9F0472DED028BDFF8CCA2AF4DDAF8BF
:102A100000309FEDAF0A9FEDAE8A82B0042401938F
:102A200001220023A0216420AC71AC74AC77FFF7C5
:102A3000C7FEA84C00264FF4FA7008F0F1FAFFF731
:102A4000C7FD032873D0FFF7C3FD0328A87140F02A
:102A5000C78004234FF00009AB71C846E188A08805
:102A600094ED020A9FEDA18A00231A464908400806
:102A7000FFF7A6FEA088A038B0EE480A80B2002377
:102A800001226421FFF79CFE00264FF4FA7008F043
:102A9000C7FAFFF79DFD03286FD0FFF799FD4FEAB6
:102AA000490606EB090705EB87070328B87140F0D4
:102AB00001820423BB71E188A08894ED020A9FED96
:102AC000878A00231A4649084008FFF779FEE18803
:102AD000A088A0396438B0EE480A89B280B20023D9
:102AE0000122FFF76DFE00274FF4FA7008F098FA04
:102AF000FFF76EFD03282DD0FFF76AFD06EB0907EF
:102B000005EB87070328B87140F0C9800423B8F1AA
:102B1000020FBB7100F04081019ADAF800309A424E
:102B200040F0548202B0BDEC028BBDE8F0872088F3
:102B3000A3881930643B984285DA052E32D80023E9
:102B400080B21A46B0EE480AA0210136FFF738FEDF
:102B5000F6B270E720887D28CED9052F2CD8E188E1
:102B600000231938A03980B289B21A46B0EE480A5B
:102B70000137FFF725FEFFB2B6E76188E388193118
:102B8000643B994289DA052E20D8A0880023A0381A
:102B900089B280B21A46B0EE480A0136FFF710FE3D
:102BA000F6B272E7D4ED020ABBEE040A03F080FA33
:102BB0000126FFF76DFD3EE7D4ED020ABBEE040AE5
:102BC00003F076FA0127FFF763FD8DE7D4ED020AE3
:102BD000BBEE040A03F06CFA0126FFF759FD54E737
:102BE00020889FED3B0A0023193080B21A46D2217B
:102BF000B0EE408AFFF7E4FDA87902F0D9FEAE7985
:102C0000B6FA86F6760915E03046FFF779FCB0B9DA
:102C1000E2886188453A8A4211DD1931034689B25A
:102C200020880122B0EE480AFFF7CAFD4FF4FA707F
:102C300008F0F6F93046FFF763FC0028E4D0FFF710
:102C4000AFFC6188DFED275A9FED276A26889FED4C
:102C5000200A07EE901AA0F5A070B8EEE77A07EE0A
:102C6000900AF8EEE76A67EE257A012267EEA67A07
:102C7000002387EE867A91469046FDEEC77A17EEDE
:102C8000900A301A80B2FFF79BFDA3682288AB60E0
:102C9000052046236A80AB8002F08AFEDEE6E188EA
:102CA00020889FED0E0A0023D239193889B280B2EC
:102CB0001A46B0EE408AFFF783FDB87902F078FE3D
:102CC000BF79B7FA87F77F0926E000BF0C20002004
:102CD0000000B4C230200020000B00200000B442ED
:102CE00000003443B9C2DB3E0000A04300000000F6
:102CF0003846FFF705FCA0B96188452911D9193973
:102D0000034689B220880122B0EE480AFFF758FD39
:102D10004FF4FA7008F084F93846FFF7F1FB002809
:102D2000E6D0FFF73DFC6188E3881FED126A5FED96
:102D3000126A27881FED170A5B1A07EE103AA0F5F2
:102D4000A07007EE900AB8EEC77AF8EEE77A27EEA1
:102D5000067A002367EE277A012287EEA67A4E4490
:102D600005EB860608F101085FFA88F8FDEEC77AE0
:102D700017EE900A384480B2FFF722FDE388A2687C
:102D800021887180463B0520B380B26002F010FEBE
:102D9000B8F1020F7FF4C0AEE188A08894ED020A7A
:102DA0001FED318A00231A4649084008FFF708FD45
:102DB000E1886439B0EE480A89B200230122A020DC
:102DC000FFF7FEFC00264FF4FA7008F029F9FFF730
:102DD000FFFB032800F0DB80FFF7FAFB0328A8774E
:102DE00000F0F18061881FED420A0023193989B291
:102DF0001A46D220B0EE408AFFF7E2FCA87F02F02C
:102E0000D7FDAE7FB6FA86F6760915E03046FFF7B5
:102E100077FB0346A8B9A2882088453A824210DD94
:102E2000193080B20122B0EE480A6188FFF7C8FC71
:102E30004FF4FA7008F0F4F83046FFF761FB002811
:102E4000E4D0FFF7ADFB61881FED5A6A5FED5A6A67
:102E50001FED5D0A07EE901AA0F5A07007EE100AAC
:102E6000F8EEE77AB8EEC77A67EE867A002367EE67
:102E7000877A012287EEA67A2088BDEEC77A17EE00
:102E8000106A314489B2FFF79BFC019ADAF80030EE
:102E9000A168608829629A424FF04601A88369833D
:102EA00040F09480052002B0BDEC028BBDE8F047F5
:102EB00002F07EBD6188A0881FED740A00231931DD
:102EC000D23889B280B21A46B0EE408AFFF778FC59
:102ED000B87902F06DFDBF79B7FA87F77F0915E081
:102EE0003846FFF70DFB0346A8B92088452812D9BC
:102EF000193880B20122B0EE480A6188FFF760FC01
:102F0000FFF7C6FB4FF4FA7008F08AF83846FFF76F
:102F1000F7FA0028E4D0FFF743FB2288A3881FEDCF
:102F20008F6A5FED8F6A67881FED900A9B1A07EE24
:102F3000103AA0F5A07007EE900AB8EEC77AF8EE46
:102F4000E77A27EE067A104667EE277A002387EEA7
:102F5000A67A01224E4405EB860608F101085FFAC5
:102F600088F8C146FDEEC77A17EE901A791A89B231
:102F7000FFF726FCA388A2686188B180463B738076
:102F8000B26005204FEA480602F012FD93E5618821
:102F90007D297FF621AF052E0BD80023193989B280
:102FA0001A46B0EE480AA0200136FFF709FCF6B237
:102FB00009E7D4ED020ABBEE040A03F079F8012612
:102FC000FFF766FBFFE60423AB77A5E5FFF7E0F824
:102FD00070B52F4D2F4C2B6882B006460193FFF73A
:102FE00057FB3046FFF734FBDFED2B0A9FED2B0A32
:102FF000C4ED020A233080B2A080208003F058F88C
:10300000304684ED020AFFF723FB233080B2D4ED73
:10301000020A9FED220AE080608003F049F8304602
:1030200084ED020AFFF714FBA388D4ED020A9FED9A
:103030001B0A23331844A08003F03AF8304684ED8D
:10304000020AFFF705FBE388D4ED020A9FED130A9D
:1030500023331844E08003F02BF800231A466188DC
:10306000208884ED020AFFF7ABFB019A2B689A4295
:103070000CD1E188A0889FED0A0A00234908400886
:103080001A4602B0BDE87040FFF79ABBFFF780F820
:10309000000B002030200020000034430000B44228
:1030A0000000000000000000000000000000000020
:1030B0002DE9F041544D82B02B68019300F040FBA4
:1030C000012804464FD02FD302281DD1DFF84881B4
:1030D00098F90030022B4FF000026AD001464B4EA7
:1030E0004B4F01F065FE012397ED000A718830888F
:1030F00088F800401A46FFF763FB464B1A6AD3F87C
:103100001A003A60306008E0434B93F90000012850
:103110005CD002286ED0002864D0019A2B689A42B5
:103120006FD102B0BDE8F0813B4C94F90020002A39
:1031300038D0002202210120344E354F01F038FEF4
:1031400001234FF0000C97ED000A7188308884F855
:1031500000C01A46FFF734FB2E4B9A68D3F80200E2
:103160003A603060D9E7DFF8B08098F90030012B81
:103170004FF0000223D0254E254F1046022101F0CA
:1031800017FE97ED000A7188308888F800402346C2
:103190002246FFF715FB1F4B5A69D3F80E003A6021
:1031A0003060BAE71146012001F002FE184F174EB9
:1031B000D2E7114601F0FCFD154F144E9DE7114674
:1031C000104601F0F5FD124F104EE4E7019A2B680E
:1031D0009A4216D100221146104602B0BDE8F041D5
:1031E00001F0E6BD019A2B689A420AD102460146D7
:1031F0000120F2E7019A2B689A4202D1002211467F
:10320000EBE7FEF7C5FF00BF000B00200420002005
:10321000002000200C2000201E0B002000000000D9
:103220002DE9F0412A4DDFF8AC802A78D8F800303B
:1032300084B0AF1F012A039307F1180E05F1060CA5
:103240004FF001046B4617D02FD3022A23D1032C51
:1032500023D09EE80700AE1F83E8070096E807002A
:103260008EE8070093E8070086E807000C352A7807
:103270000134012AE4B2E7D1022CF7D09CE8070020
:10328000AE1F83E8070096E807008CE8070093E884
:10329000070086E80700032CE8D1039AD8F800302D
:1032A0009A4212D104B0BDE8F081012CDED097E83B
:1032B0000700AE1F83E8070096E8070087E80700CD
:1032C00093E8070086E80700E5E7FEF761FF00BF27
:1032D00012200020000B0020000000000000000071
:1032E00030B50F4D0F4C2A6883B000231420019293
:1032F000A360FFF76DFE00231A4694ED020A618871
:103300002088FFF75DFAFFF77BFB019A2B689A4252
:1033100004D103B0BDE83040FFF782BFFEF738FFAD
:10332000000B002030200020000000000000000002
:1033300080B51E4A1E4B92691E49916182B01B687E
:103340001D4E01931D4DDFF88080FFF7C9FF1C481B
:1033500001F08EF9B16832881A4BC8F800102A8043
:103360007188698001224FF4FA701A7007F058FED4
:1033700008E098ED000AFFF723FAFFF799FE0A200C
:1033800007F04EFE338828886C8883424FF0000295
:103390004FF001032146ECD17788A742E9D1B288EA
:1033A000F38852085B082A806B80E6E750AD002066
:1033B000000B0020D0B501083020002004200020A0
:1033C00051360008082000200020002000000000E6
:1033D00010B50A4C0A4B22680A4884B04FF4AF611A
:1033E000039200220092402207F0C2FD039A236854
:1033F0009A4201D104B010BDFEF7CAFE000B0020B6
:1034000031330008402000200000000000000000D0
:1034100000B5074B07491A68087883B00192019AF2
:103420001B689A4202D103B05DF804FBFEF7B0FEC0
:10343000000B002008200020000000000000000019
:1034400070B5794C9FED797A236882B0283001936A
:103450004FF0FF320A23F0EC017AF4EEC77AF1EE76
:1034600010FAC8BF1AB203F10103C8BFB0EE677A01
:103470001F2BF0D192B2A2F11203022B11D86C4B88
:103480006C491D7825BB6C4A107800285BD16B48CD
:103490000678002E58D1002D56D00B7801330B70D2
:1034A00058E0A2F11903022B32D8634A614915781A
:1034B0001DB191F90030092B7BDC5D4B1878002899
:1034C0004ED15E480678002E4BD1002DE5D148E064
:1034D00091F90020092AD6DD0023194618466422F6
:1034E00002F04EFA002319466422012002F048FA45
:1034F000002319466422022002F042FA00231946F2
:103500006422032002F03CFA4D4B02221A7021E0A3
:10351000163A022A2CD84948464905781DB191F936
:103520000030092B61DC424B1A78002A3FD1424A15
:1035300016780EB9002DB0D1012600250E70067048
:103540001D70157006E03D48012600250E701E70A6
:1035500005701570019A23689A4262D102B070BD5D
:103560003648012600250E7016701D700570F1E7B3
:103570000025304E2B462A4629462846357002F053
:10358000FFF92B462A462946012002F0F9F92B467D
:103590002A462946022002F0F3F92B462A462946FC
:1035A000032002F0EDF9264B04221A70D2E7224ADA
:1035B000C2E700231A461846642102F0E1F900230D
:1035C0001A466421012002F0DBF900231A46642127
:1035D000022002F0D5F900231A466421032002F0EC
:1035E000CFF9174B00221A70B4E70022114610469B
:1035F000642302F0C5F9002211466423012002F081
:10360000BFF9002211466423022002F0B9F900221A
:1036100011466423032002F0B3F9094B01221A700A
:1036200098E7FEF7B5FD00BF000B002000401C46E8
:10363000B9250020BC550020C0550020B825002029
:103640001F0B002000000000000000000000000030
:10365000F0B5364E364D336883B001932B88002980
:103660005BD0B0F90220334C07EE902A5A1C04EBD1
:10367000830792B202339BB2F8EEE77A04EB820240
:103680004FF0000EB3F5006FC7ED007A2B80C2F843
:1036900000E02BD20139C1F38D0100EBC1010027FD
:1036A0001AE0B0F90A2007EE902A5A1C92B203F1F0
:1036B000020C04EB8307F8EEE77A04EB82021FFAB0
:1036C0008CF3B3F5006FC7ED007A00F108004FF0FE
:1036D0000107C2F800E008D28842E2D11FBB019A7C
:1036E00033689A421DD103B0F0BD2B8011494FF4CD
:1036F000806000F03DF84FF480620F490D4813F0F0
:103700006FFE019A336800219A42298009D10A4844
:1037100003B0BDE8F040FFF793BEB3F5006FDED312
:10372000E4E7FEF735FD2B80D9E700BF000B002052
:10373000BE550020BC250020BC4500200000000034
:1037400000B5074B07491A68087883B00192019ABF
:103750001B689A4202D103B05DF804FBFEF718FD26
:10376000000B00201F0B00200000000000000000E4
:1037700000B50D4B83B01A680192B0F5806F019AC5
:103780001B6804D09A420CD103B05DF804FB9A4246
:1037900007D106480123002203B05DF804EB13F0C3
:1037A0009FBDFEF7F5FC00BF000B0020E0B501084F
:1037B00030B54368174D1A68296883B004460191F3
:1037C00012B304220270DA681B6852081146984747
:1037D0002378042B18D0202383F3118807F078FF77
:1037E00006F026FF04F10800002107F009FD06F0AD
:1037F0003FFF07F085FF002383F31188019A2B68B0
:103800009A4204D103B030BD02232370E3E7FEF7F0
:10381000BFFC00BF000B0020000000000000000003
:1038200070B5194D82B02B68019311F00C0F0C4646
:10383000064622D114F0200109D0019A2B689A4241
:103840001FD1304602B0BDE87040FFF7B1BFE306BC
:103850000DD57268136853B1019C2868844210D159
:10386000D2683046520802B0BDE870401847019A4D
:103870002B689A4205D102B070BD044806F0F8FDED
:10388000D8E7FEF785FC00BF000B002010B601084A
:1038900070B5194D82B02B68019311F00C0F0C46D6
:1038A000064622D114F0200109D0019A2B689A42D1
:1038B0001FD1304602B0BDE87040FFF779BFE30684
:1038C0000DD57268136853B1019C2868844210D1E9
:1038D000D2683046520802B0BDE870401847019ADD
:1038E0002B689A4205D102B070BD044806F0C0FDB5
:1038F000D8E7FEF74DFC00BF000B002010B6010812
:1039000030B50F4D0F4C2A680F4B83B02046019203
:103910004FF6FF721A8000F013FC0C4B01992A68D5
:103920000B480C4D2562636203F1240591420A4B5A
:103930002363C4E90A5001D103B030BDFEF728FC6F
:10394000000B0020D8550020C2550020F8DE0108E9
:103950001E010100003C0040460001000000000084
:1039600070B52C4D03782A6882B0012B0446019271
:1039700024D06368E26A5989236B22F4F04223F46D
:10398000F043090544BF42F4205243F42053C4E9F4
:103990000B23236A00221A606268236A52891A6024
:1039A000236A03225A60226A136843F040031360BB
:1039B000019A2B689A422BD102B070BD164EB042CC
:1039C0000AD0D4E9083212680C339360A26A236AE1
:1039D00012680C339360CCE70346104A406A0A2110
:1039E0000CF0C6F880B9B06A0B4B0D4A0A210CF0F6
:1039F000BFF828B90B4A136C43F400431364E0E7A3
:103A0000094806F035FDF5E7074806F031FDEAE71D
:103A1000FEF7BEFB000B0020D855002091380008AF
:103A20002138000800380240F0B50108000000000D
:103A300070B5456A174C2D68266882B00196EB6018
:103A4000436A1B685960456AC36A2D6843F4806302
:103A50002B60836A1B68DA60836A1B685960826A1C
:103A6000036B126843F480631360436A1A68136837
:103A700043F001031360836A1A68136843F001037B
:103A80001360019A23689A4201D102B070BDFEF71B
:103A90007FFB00BF000B00200000000000000000C2
:103AA00030B5104D81682B680F4A83B001930B68C5
:103AB00023F001030B608168946A03E0936A1B1B87
:103AC000C72B09D8086810F00100F7D1019A2B68BC
:103AD0009A4204D103B030BD4FF0FF30F6E7FEF755
:103AE00057FB00BF000B002050AD0020000000007D
:103AF00030B5184D83B02B68019311F00C0F0446BC
:103B00000AD00378032B13D00622636822709A68C8
:103B10001AB100212046904763685B688BB1019918
:103B20002A68914213D1204603B0BDE830401847BF
:103B3000FFF7B6FF0622636822709A68002AE8D170
:103B4000EBE7019A2B689A4201D103B030BDFEF732
:103B50001FFB00BF000B0020000000000000000061
:103B6000F0B5284D83B02B68019307F049FD06F0AE
:103B70009FFD254B1E69F20715D55A69234C42F06B
:103B800001025A612778BB1F012B2AD905226368DD
:103B900022701B680BB120469847042F27D0022FB4
:103BA00025D003232370B30710D5174A174C536948
:103BB00043F0020353612378032B1DD063689B6895
:103BC0000622227013B101211048984706F098FD93
:103BD000019A2B689A4213D103B0BDE8F04008F077
:103BE00037BD019A2B689A420AD103B0F0BD022377
:103BF0002370B307EAD5D8E72046FFF751FFDDE78A
:103C0000FEF7C6FA000B002000000550C455002046
:103C100030B50B4D0B4C2B6883B02046019300F060
:103C20002FF9019A2B680848084D094921619A42E9
:103C3000C4E9025001D103B030BDFEF7A9FA00BFBC
:103C4000000B0020C45500204CDF01080000055087
:103C500016550202000000000000000000000000F5
:103C60002DE9F0412F4C0578266882B0012D019690
:103C700006D0019A23689A4252D102B0BDE8F08181
:103C8000294DA842F5D10E4690461F46274AE868BE
:103C90002B460C210BF06CFF002839D1D5E90232FC
:103CA000126828339360EB681A68042151611B681D
:103CB000C3F80C80EB681A6817611B68B6085E6071
:103CC0002B694FB343F480232B61E968184A0968D4
:103CD0000B60EB6819680B6843F001030B60536BD2
:103CE00043F0010353630B214E200BF021FCD5E977
:103CF0000113DA6842F00102DA60DA6842F0020287
:103D0000DA60CA6822F4804222F001021A60B0E749
:103D1000084806F0ADFBC1E723F480232B61D4E70C
:103D2000FEF736FA000B0020C4550020F13A0008D7
:103D30000038024020B6010800000000000000002A
:103D400030B5184C0378226883B0022B019205D05D
:103D5000019A23689A4223D103B030BD124B984296
:103D60000546F5D18168114A0B6823F4804323F09E
:103D700001030B608168CB6823F00F03CB60536BAA
:103D800023F0010353634E200BF0FAFB019A2368E2
:103D90009A4205D1E86803B0BDE830400BF050BF4F
:103DA000FEF7F6F9000B0020C45500200038024051
:103DB00000B50F4B0278196883B0022A01910ED129
:103DC00081680A6842F002020A6081680A6842F467
:103DD00080420A6081680A6842F001020A60019A22
:103DE0001B689A4202D103B05DF804FBFEF7D0F9DC
:103DF000000B002000000000000000000000000098
:103E000000B50F4B0278196883B0022A01910ED1D8
:103E100081680A6822F002020A6081680A6842F436
:103E200080420A6081680A6842F001020A60019AD1
:103E30001B689A4202D103B05DF804FBFEF7A8F9B3
:103E4000000B002000000000000000000000000047
:103E500000B5074B83B01A680192019A1B689A4219
:103E600004D103B05DF804EBFFF7D2BEFEF790F982
:103E7000000B002000000000000000000000000017
:103E800000B5084B83B01A68019201220270019AB2
:103E90001B6800219A42416002D103B05DF804FB27
:103EA000FEF776F9000B0020000000000000000083
:103EB0002DE9F043254D83B02C680194DDF828905E
:103EC0000F4616469846044618B111B1204B9A4247
:103ED0002FD9204806F0CCFA202383F3118807F06D
:103EE000C7FB06F065FB2378012B02D0194806F0CA
:103EF000BFFA4246314620464B466760FFF7B0FEA8
:103F00000223237006F074FB07F0CAFB124B1A68F9
:103F10009A4204D0996993688A689A420FD3002321
:103F200083F31188019A2B689A420CD103B0BDE843
:103F3000F0839307CDD1B8F1000FCDD1C9E7074881
:103F400006F096FAEBE7FEF723F900BF000B00201E
:103F5000FCFF030050B6010850AD002040B6010838
:103F600030B51C4D83B02B680193044658B3202311
:103F700083F3118807F07CFB06F01AFB2378022BF1
:103F800002D0154806F074FA2046FFF7D9FE012347
:103F9000237006F02DFB07F083FB104B1A689A4242
:103FA00004D0996993688A689A4208D3002383F3FE
:103FB0001188019A2B689A4209D103B030BD084894
:103FC00006F056FAF2E7044806F052FACFE7FEF799
:103FD000DFF800BF000B002060B6010850AD0020E4
:103FE00040B60108000000000000000000000000D2
:103FF00030B51C4D83B02B680193044658B3202381
:1040000083F3118807F034FB06F0D2FA2378022BF1
:1040100002D0154806F02CFA2046FFF7C9FE04230B
:10402000237006F0E5FA07F03BFB104B1A689A4242
:1040300004D0996993688A689A4208D3002383F36D
:104040001188019A2B689A4209D103B030BD084803
:1040500006F00EFAF2E7044806F00AFACFE7FEF798
:1040600097F800BF000B002070B6010850AD00208B
:1040700040B6010800000000000000000000000041
:1040800030B51C4D83B02B680193044658B32023F0
:1040900083F3118807F0ECFA06F08AFA2378022BF2
:1040A00002D0154806F0E4F92046FFF7A9FE0323E5
:1040B000237006F09DFA07F0F3FA104B1A689A4243
:1040C00004D0996993688A689A4208D3002383F3DD
:1040D0001188019A2B689A4209D103B030BD084873
:1040E00006F0C6F9F2E7044806F0C2F9CFE7FEF79A
:1040F0004FF800BF000B002090B6010850AD002023
:1041000040B60108000000000000000000000000B0
:1041100000B5074B83B01A680192019A1B689A4256
:1041200004D103B05DF804EBFFF7EABBFEF730F80B
:10413000000B002000000000000000000000000054
:1041400000B50A4B83B01A680192012202700199EE
:104150001A6800239142C0E9013305D10C3003B045
:104160005DF804EB07F0BCBBFEF712F8000B002073
:1041700070B51E4D82B02B6801930E46044670B395
:1041800069B3202383F3118807F072FA06F010FA5E
:104190002378013B012B02D9154806F069F9204626
:1041A0006660FFF7DDFB0223237006F021FA07F0BB
:1041B00077FA104B1A689A4204D0996993688A6812
:1041C0009A4208D3002383F31188019A2B689A42FC
:1041D00009D102B070BD084806F04AF9F2E7044878
:1041E00006F046F9CDE7FDF7D3FF00BF000B002036
:1041F000B0B6010850AD0020A0B6010800000000D4
:104200002DE9F041214D82B02C6801940E46904674
:104210001F46044600B171BB1D4806F029F9202352
:1042200083F3118807F024FA06F0C2F92378022BF1
:1042300002D0174806F01CF903203B46424631469F
:1042400020702046FFF7F4FB06F0D2F907F028FAB9
:10425000104B1A689A4204D0996993688A689A4206
:104260000ED3002383F31188019A2B689A420BD155
:1042700002B0BDE8F081002BCED0002ACFD1CBE731
:10428000054806F0F5F8ECE7FDF782FF000B00208B
:10429000C0B6010850AD0020A0B601080000000023
:1042A00000B5084B83B01A680192019A1B689A42C4
:1042B00005D1054803B05DF804EB06F0D9B8FDF769
:1042C00067FF00BF000B0020E0B6010800000000FF
:1042D00070B51849184C0A78236882B001934FF4DE
:1042E000B47303FB00F562B1019A23689A421FD1AF
:1042F00012481349B1FBF5F102B0BDE8704008F077
:1043000067BD1048104A01260E70802141830F4975
:104310000F4808F0EDFB019A23689A4208D107483C
:104320000749B1FBF5F102B0BDE8704008F0B8BD37
:10433000FDF72EFF30560020000B0020F4BA0020BD
:1043400000BD0105000C0240F0B601082056002017
:10435000A0B70020000000000000000000000000E6
:10436000F0B51A4D1A4C2E78276883B0019717467E
:1043700066B1019A23689A4226D116481649B1FBC4
:10438000F7F103B0BDE8F04008F022BD134EDFF8AE
:1043900054C0736002464FF0010E80200B4685F832
:1043A00000E03146ACF81A000D4808F0A1FB019A74
:1043B00023689A4208D107480749B1FBF7F103B0D7
:1043C000BDE8F04008F06CBDFDF7E2FE305600207D
:1043D000000B0020F4BA002000BD0105205600208B
:1043E000A0B70020000C0240000000000000000008
:1043F000F0B5114C83B02368019305460F480E4673
:10440000174608F085FD0E4808F002FC33462A46A0
:104410000C490B4808F034FB019A23689A4208D1F2
:1044200006480949B1FBF7F103B0BDE8F04008F0D8
:104430000FBDFDF7ADFE00BF000B0020F4BA002059
:10444000A0B700202056002000BD0105000000009C
:1044500010B50C4C0C4B22680C4882B001928022A3
:104460001A8308F055FD0A4808F0D2FB019A236828
:10447000084900209A42087001D102B010BDFDF732
:1044800087FE00BF000B0020000C0240F4BA0020A1
:10449000A0B70020305600200000000000000000FF
:1044A00010B50C4C0C4B22680C4882B00192802253
:1044B0001A8308F055FD0A4808F05AFB019A236850
:1044C000084900209A42087001D102B010BDFDF7E2
:1044D0005FFE00BF000B0020000C0240F4BA002079
:1044E000A0B70020305600200000000000000000AF
:1044F00070B5154D154A164B2968164E9E6082B050
:1045000000244FF40060108001919470114612480D
:104510005C6001221A60DC6008F06AFA0F4B104EF2
:1045200010485C60202219469A60DC601E6008F02A
:1045300007FC019A2B689A4204D102B0BDE8704092
:10454000FFF7AEBFFDF724FE000B00201C56002035
:1045500020560020A1420008A0B700200C560020E1
:1045600000BD0105F4BA00200000000000000000BA
:104570002DE9F04F394A3A4B126883B00124019279
:104580001C70002963D04FF00008364CC246C34669
:10459000C1464746C446434647F6FF7E1DE0AB454D
:1045A000A8BFAB46024432F9026CB2F90450B442DF
:1045B000B8BF3446B645A8BFB6464D4545DCA8450C
:1045C000A8BFA846B2F90220BA420EDC04339245D5
:1045D0009BB2A8BF924699420CD95D1C6A0030F983
:1045E00015506545DBDDAC46DCE704339BB29942F0
:1045F0001746F2D8A4EB0E04ACEB0B0CA7EB0A07A2
:10460000A9EB0808A4B21FFA8CFCBFB21FFA88F805
:10461000154A12491480019C0968144BA2F802C083
:104620009780B0F8F8C4B0F8FA64A2F80680B0F841
:10463000FC54B0F8FE24A3F800C08C425E809D803C
:10464000DA8008D103B0BDE8F08FA946BAE7884602
:104650000F468C46DCE7FDF79BFD00BF000B0020FA
:10466000315600200080FFFF3C56002034560020C9
:1046700070B53F4B3F4C1A78236882B0012A0193F2
:1046800005D0019A23689A4270D102B070BD3A49B0
:104690003A4B4D6C45F480354D644E6A002546F426
:1046A00080364E624D621D61DD60196A21F00101A4
:1046B0001962996921F003019961996941F0010139
:1046C0009961996921F0F0019961196A21F00A0153
:1046D0001962996921F00C019961996821F07001C2
:1046E0009960996841F050019960996821F480318E
:1046F00021F007019960996841F0070199601968F4
:1047000021F440711960DA629D625A61196A21F0E0
:1047100010011962996921F440719961996921F038
:10472000807121F4E0419961996941F4C041996136
:10473000196A21F0A00119629A639A6942F4006231
:104740009A611A6A22F480621A621A6A42F01102AD
:104750001A621A6842F001021A6020B1009068469D
:1047600000F076F98DE7064B0093F8E7FDF710FDB2
:104770008CBA0020000B00200038024000400140AD
:10478000714500080000000000000000000000006B
:1047900070B5114C82B0236801930E461546202354
:1047A00083F3118806F094FF05F042FF0B4B0C4891
:1047B000C3E9006507F054F805F05AFF06F0A0FFC2
:1047C000002383F31188019A23689A4201D102B031
:1047D00070BDFDF7DDFC00BF000B0020586B002012
:1047E000445600200000000000000000000000000F
:1047F00070B5114C82B0236801930E4615462023F4
:1048000083F3118806F064FF05F012FF0B4B0C4890
:10481000C3E9006507F024F805F02AFF06F070FFF1
:10482000002383F31188019A23689A4201D102B0D0
:1048300070BDFDF7ADFC00BF000B00203C690020FF
:1048400044560020000000000000000000000000AE
:104850002DE9F04F624B63499A69634B916185B0D2
:104860001B6803935E4B9B6993F821305B0700F153
:10487000AD805E4806F0BCFF5C4806F0B9FF584BBF
:104880009B6993F8212012F0040240F09F80584D5C
:1048900058482B6801680446406805EB830304EB25
:1048A000810103F50279430001F10808019343D027
:1048B000DFF850B1504BDFF85CA1012018F812501E
:1048C00018F8006019F8121019F8004005F0550C9E
:1048D000770806F0550613F80CC09E5D01F0550EE2
:1048E0004CEA061649084FEA540C01F0550104F051
:1048F00055040CF0550C6D0813F80EE0595C1C5D66
:1049000013F80CC00BF8126005F0550507F05507B9
:1049100041EA0C114EEA041E0AF812E05D5D0AF845
:104920000010DF5D0199013245EA071591420BF84D
:10493000005000F10200C1D1304B31493148324DB5
:104940000422FBF795FD314B314932480422FBF735
:104950008FFD314B314932480422FBF789FD314B41
:10496000314932480422FBF783FDDFF8D4C02868C0
:104970009CF80070224A264900EBC71302F140065A
:1049800014881C8054885C804C889C80043231F8E8
:10499000044BDC80964203F10803F1D1092F11D1B9
:1049A000234B00221B688CF800204FF4207198479D
:1049B0002B68204A204993420B6006BF1F4B2B6097
:1049C0002A604FE701378CF800704BE7064B039ADB
:1049D0001B689A4202D105B0BDE8F08FFDF7D8FB05
:1049E00050AD0020C0B90108000B00204456002043
:1049F000586B00203C690020200B00201467002029
:104A0000D05B0020105C0020A00B00207C67002001
:104A1000E46700202468002048670020D25B002063
:104A2000115C0020B0670020E667002025680020A8
:104A300024690020105D0020A40B002010620020DB
:104A400010670020000000000000000000000000CF
:104A50002DE9F04F494A0168494B116085B00021AA
:104A60000E461B684748039306F062FE4FF4AF61A1
:104A7000454B009641224548454DDFF84891454C4D
:104A8000DFF844A1444F06F073FA444B444A1860DF
:104A9000136BC5F804A043F480534FF002184FF491
:104AA0007A5B13632846C5E90298A5F800B0FBF7C6
:104AB00027FC2046C4E901A9C4F80C80A4F800B082
:104AC000FBF71EFC05F13400C5E90EA9C5F84080CE
:104AD000A5F834B0FBF714FC324DC4F8408004F163
:104AE0003400C4E90EA9A4F834B0FBF709FC314640
:104AF00040F20C42384613F01BFBDFF8D0902A4AF4
:104B00006E604FF400634FF080082E812A606B8145
:104B1000264CC5F80C80C7F80894FFF7F9FA294627
:104B20002348244DFFF724FB07F5027307F1080221
:104B30004FF480711E48FFF763FB314620464FF467
:104B4000037213F0F5FA1C4B1C4AC4F8089208349F
:104B50001A611946C3E900641948C3E9028508F0DF
:104B6000EFFB074B039A1B689A4205D1144805B026
:104B7000BDE8F04F08F02CBCFDF70AFB24690020CB
:104B8000000B0020445600205148000858560020D1
:104B9000146700207C670020586B002050560020CE
:104BA00000380240486B0020914700083C69002013
:104BB000D8550020F1470008286900202C03080080
:104BC0008CBA0020000020410000FA45EFBEADDEA7
:104BD00010B50B4C0B48236882B0019306F068FFB8
:104BE000094807F045F9019A23689A4205D105481A
:104BF00002B0BDE8104006F093BFFDF7C9FA00BF50
:104C0000000B0020B40B0020AC0B002000000000C3
:104C100030B50F4C83B0236801930D4608B1FFF700
:104C200057FB4FF47A700B4900FB05F000F2E730B8
:104C3000A1FB0030800906F0F3F9019A23689A423B
:104C400004D103B0BDE83040FFF72ABCFDF7A0FA5D
:104C5000000B0020D34D6210000000000000000097
:104C60002DE9F0432DED028BDFF8FC80344BD8F8B2
:104C7000182034491B68344DDFED348A9FED348AA7
:104C8000344E354F916183B00193202383F3118813
:104C900006F0EEFC05F08CFC304806F059FA28606E
:104CA00005F0A6FC06F0FCFCD8F80030434508D01F
:104CB000D8F818209B6892689A4202D2284805F0DA
:104CC000D7FB4FF0000989F311882B681A8972BB52
:104CD00030E0D3E9001202EB890393ED007A31F85A
:104CE0001900C8EE877A09F10109FCEEE77A17EEA0
:104CF000903A9CB22146FFF78BFF07EE904AF8EE00
:104D0000E77A4FF47A7367EE887AFCEEE77A17EE6B
:104D1000902A90B203FB00F000F2E730A7FB0030CE
:104D2000800906F07DF92B681A894A4502DD327840
:104D3000002ACED100230B48337007F019F8A4E7FE
:104D4000000B0020D0B90108686F002000007A44F1
:104D50006666A63FA80B0020D34D6210646F00204A
:104D6000E0B90108AC0B002050AD002000000000AD
:104D700010B50A4C0A4B22680A4884B04FF4FC7103
:104D8000039200220092402206F0F2F8039A236870
:104D90009A4201D104B010BDFDF7FAF9000B0020D2
:104DA000614C0008706F002000000000000000004F
:104DB00030B51E4C85B023680393122815D01128F6
:104DC00015D81B4A00EB400002EB8002194803682B
:104DD00099B963B103992368174D012499422C7046
:104DE00008BF114617D0FDF7D3F9002AEED1039A78
:104DF00023689A42F7D105B030BD02290E4D04BF99
:104E00000021297063B10399236801209942287019
:104E1000E9D10848114605B0BDE8304006F050BA67
:104E20000192FFF7D5FE019AEDE700BF000B0020CD
:104E3000C0C40108646F0020A80B0020000000001F
:104E400000B5074B07491A68087083B00192019AB0
:104E50001B689A4202D103B05DF804FBFDF798F994
:104E6000000B00206871002000000000000000001E
:104E700000B5064B83B01A680192019A1B689A42EA
:104E800002D103B05DF804FBFDF782F9000B0020AE
:104E900000B5064B83B01A680192019A1B689A42CA
:104EA00002D103B05DF804FBFDF772F9000B00209E
:104EB00010B5104C104B226882B0019201221A707A
:104EC000202383F3118806F003FC05F0B1FB0B48A7
:104ED00006F026FF05F0CCFB06F012FC002383F35E
:104EE0001188019A23689A4201D102B010BDFDF7E2
:104EF0004FF900BF000B002074710020C80B002088
:104F000030B50E4D0E4C2B6883B00193FEF7A0FF19
:104F1000206808B112F044FE4FF4964012F038FEBB
:104F200001992A682060B0FA80F35B099142C3F1CD
:104F3000000001D103B030BDFDF72AF9000B0020BD
:104F40006C71002000000000000000000000000064
:104F500030B5174D174C2B78226885B0012B039282
:104F600020D000F0D5FB144B1B78ABB9B0F5964FB1
:104F700015D8124A124B12681B6812490092024659
:104F80001148FEF795FF01232B700020039A236838
:104F90009A420BD105B030BDB0F5165FE9D94FF09C
:104FA000FF30F3E70848FEF7DBFFDAE7FDF7F0F83C
:104FB0006A710020000B00206B71002070710020CE
:104FC0006C71002020D20108C455002000000000B0
:104FD00010B50B4C0B48236882B0019306F068FDB6
:104FE000094806F045FF019A23689A4205D1054811
:104FF00002B0BDE8104006F093BDFDF7C9F800BF50
:10500000000B0020D00B0020C80B00200000000087
:1050100030B5154D154C164B2268286883B00192A7
:1050200001221A7008B112F0BBFD4FF4165012F0B5
:10503000AFFD286098B10F4D286808B112F0B0FD9F
:105040004FF4165012F0A4FDB0FA80F35B0928600B
:105050005842019A23689A4204D103B030BD4FF000
:10506000FF30F6E7FDF794F86C710020000B00208C
:105070006B71002070710020000000000000000033
:1050800000B5074B07491A68087083B00192019A6E
:105090001B689A4202D103B05DF804FBFDF778F873
:1050A000000B0020697100200000000000000000DB
:1050B00000B50D4A0D4B1278196883B0019142B1C9
:1050C0000B4AD26812681268120302D4094A1068A7
:1050D00001E0094A1068019A1B689A4202D103B0A4
:1050E0005DF804FBFDF754F86B710020000B002005
:1050F000C4550020707100206C7100200000000079
:1051000000B50E4A0E4B1278196883B001914AB16E
:10511000019A1B689A420FD10A4803B05DF804EB6C
:10512000FEF7AEBF019A1B689A4205D1054803B04D
:105130005DF804EBFEF75CBFFDF72AF8697100200B
:10514000000B0020C45500200000000000000000FB
:1051500070B5274D82B02B680193064601220321CA
:105160006E2000F065FB044630B1019A2B689A422C
:1051700020463AD102B070BD32464E216E2000F07A
:1051800057FB04460028F0D1442E07D00246B72131
:105190006E2000F04DFBB8B10446E6E70122B721CE
:1051A0006E2000F045FB0028F6D1224603216E2038
:1051B00000F03EFB0028EFD1032211216E2000F009
:1051C00037FB78B10446D0E7224603216E2000F079
:1051D0002FFB0028E0D10A2211216E2000F028FBCD
:1051E0000028D9D1034B1E71BFE7FCF7D1FF00BFE8
:1051F000000B00207871002000000000000000007B
:105200002DE9F04F8FB0DFF80084DDF860C0D8F8EA
:1052100000400D940CF1FF355C1EB3F5207F9DF826
:1052200064909DF868B00C44154400F21282BCF5FD
:10523000F07F00F20E82B1F5207F0E4600F212825E
:10524000B2F5F07F174600F21082A14280F004828E
:10525000B4F5207F00F20082AA4280F00082B5F50A
:10526000F07F00F2FC81B9F1400F824600F0B0817E
:10527000B9F1800F23D0B9F1200F00F09C810023F9
:10528000CDE90033BBF1400F2FD0BBF1800F00F010
:10529000CB81BBF1200F00F0B9810023CDE90233AF
:1052A000002203216E2000F0C3FAA0B30D9AD8F8B3
:1052B00000309A4240F0E2810FB0BDE8F08F9A07CB
:1052C00040F0D681CC4A8C085900661CA2FB010133
:1052D000A2FB030204EB930406EBD2030093BBF1A1
:1052E000400F06EBD1030193CFD11CF0010F40F02A
:1052F000C281C14B7D084FEA4C026F1CA3FB021216
:10530000A3FB0C1307EB9303029307EB920305EB4C
:105310005C050393C4E702465B216E2000F088FA27
:105320000028C3D15046FFF713FF0028BED1024624
:1053300003216E2000F07CFA0028B7D1C6F30723C2
:105340001A4608216E20049300F072FA0028ADD1AD
:10535000F3B21A4609216E20059300F069FA00287D
:10536000A4D1C7F307231A460A216E20069300F042
:105370005FFA00289AD1FBB21A460B216E200793E0
:1053800000F056FA002891D1C4F307231A460C21E5
:105390006E20089300F04CFA002887D1E3B21A4639
:1053A0000D216E20099300F043FA00287FF47EAFB0
:1053B000C5F307231A460E216E200A9300F038FA2F
:1053C00000287FF473AFEBB21A460F216E200B93C7
:1053D00000F02EFA00287FF469AF049A35216E2080
:1053E00000F026FA00287FF461AF059A36216E207E
:1053F00000F01EFA00287FF459AF089A37216E207A
:1054000000F016FA00287FF451AF099A38216E2077
:1054100000F00EFA00287FF449AF069A39216E2079
:1054200000F006FA00287FF441AF079A3A216E2077
:1054300000F0FEF900287FF439AF0A9A3B216E2074
:1054400000F0F6F900287FF431AF0B9A3C216E2072
:1054500000F0EEF900287FF429AF009B3D21C3F353
:1054600007226E2000F0E4F900287FF41FAF9DF8BA
:1054700000203E216E2000F0DBF900287FF416AFFB
:10548000019B3F21C3F307226E2000F0D1F90028D1
:105490007FF40CAF9DF8042040216E2000F0C8F985
:1054A00000287FF403AF029B4121C3F307226E2043
:1054B00000F0BEF900287FF4F9AE9DF808204221E3
:1054C0006E2000F0B5F900287FF4F0AE039B432175
:1054D000C3F307226E2000F0ABF900287FF4E6AE9C
:1054E0009DF80C2044216E2000F0A2F900287FF4E2
:1054F000DDAE012203216E2000F09AF900287FF42E
:10550000D5AE4A4693216E2000F092F900287FF430
:10551000CDAE5A4694216E2000F08AF900287FF41F
:10552000C5AE012203216E2000F082F900287FF42D
:10553000BDAE0134A31B07EE103ADFED307AB8EEB2
:10554000477ABAF1440F77EEC77A00F09980B0EE4F
:10555000006AF2EE006AE7EE066A77EEA77AB0EE2E
:10556000667A67EE877ADFED266A87EEA67AFCEE2A
:10557000C77ACDED007A009B9521C3F307226E20F8
:1055800000F056F900287FF491AE9DF80020962196
:105590006E2000F04DF900287FF488AE194B0135DC
:1055A000EF1BA41B5F801C8083F804A083F8059088
:1055B00083F806B07AE610495A00A1FB030306EB14
:1055C0005303A1FB0212009306EB5203019359E629
:1055D000D9074DD4084A74085900661CA2FB010182
:1055E000A2FB030204EB530406EB9203009306EBC9
:1055F0009103019346E600BFABAAAAAA0000224489
:105600000000A34478710020000B0020244A4FEAD8
:105610004C03A2FB0C1CA2FB032307EB530307EB79
:105620005C02029203933BE61CF0030F23D11C4B58
:10563000BD084FEA4C026F1CA3FB0212A3FB0C1324
:1056400007EBD303029307EBD20305EB9C0503930F
:1056500026E66FF0070029E66FF0030026E66FF0FC
:10566000040023E66FF0010020E66FF002001DE663
:105670006FF005001AE66FF0060017E6FCF788FDEC
:10568000F2EE006A37EE267ADFED066A67EE277AD9
:1056900087EEA67AFCEEC77ACDED007A6BE700BF05
:1056A000ABAAAAAA000024440000000000000000E9
:1056B00010B5114C86B02368059300F081F80F49AE
:1056C0000F4807F0FDFE012200210D4807F090FF72
:1056D00020237822CDE901330092A023B422F021C7
:1056E0000220FFF78DFD059A23689A4201D106B08A
:1056F00010BDFCF74DFD00BF000B002030D20108AB
:1057000058BB002000000000000000000000000066
:1057100010B50A4B0A4A1988146858881B7982B058
:10572000442B019400FB01F00199136818BF40005D
:10573000994201D102B010BDFCF72AFD787100201A
:10574000000B00200000000000000000000000002E
:1057500070B5164E16483368154D82B005224FF4C9
:10576000807101930CF064F820246B6983F48073DA
:105770006B61012005F054FC631E13F0FF04F4D1AB
:105780004FF4807140F20622298309480CF050F84A
:10579000019A33689A4206D10649074802B0BDE82B
:1057A000704007F045BCFCF7F3FC00BF000B002085
:1057B0000004024070D20108D0B7002000000000B1
:1057C00000B50C4A0C4B1278196883B0012A01917C
:1057D000019A1B6804D09A4209D103B05DF804FB1A
:1057E0009A4204D103B05DF804EBFFF7B1BFFCF7B8
:1057F000CFFC00BFD0B70020000B0020000000004D
:1058000000B5084B83B01A680192019A1B689A424E
:1058100005D1054803B05DF804EB07F051BCFCF777
:10582000B7FC00BF000B0020D0B700200000000034
:10583000F0B5214C214E89B0336807930746002507
:1058400020468DF818108DF819208DF8145007F0A7
:1058500007FD2378012B0CD0042205AB01950292A1
:1058600000933946022306AA204607F089FC054624
:1058700048B9114807F014FD0020079A33689A428E
:1058800017D109B0F0BD204607F062FC23780C4A1E
:10589000052B106004D0084807F002FD68B2ECE761
:1058A000204607F00DFC2378012BF4D1FFF750FFC1
:1058B000F1E7FCF76DFC00BFD0B70020000B002023
:1058C00080710020000000000000000000000000C7
:1058D00070B5294D82B02B6801930E46032841D83C
:1058E000DFE800F01A120A02012922D9234A53697B
:1058F00083F40063536116E0012926D91F4A5369D6
:1059000083F4806353610EE0012918D91B4A53695F
:1059100083F04003536106E001291CD9174A5369FB
:1059200083F020035361019A2B689A4218D102B088
:1059300070BD124B4FF4006229B15A83F3E70F4B4D
:1059400040220029F9D11A83EDE70C4B4FF4806215
:105950000029F8D0F1E7094B20220029F3D0ECE729
:10596000FCF716FC0024E0B231460134FFF7B0FF2B
:10597000042CF8D1D7E700BF000B0020000C024038
:1059800070B5094D094E2C6882B000EB40000194BF
:10599000315434180198296862708842A37001D18B
:1059A00002B070BDFCF7F4FB000B002084710020F6
:1059B00010B5204A82B01368019305280ED8DFE89D
:1059C00000F02B1F130D0D031B4B002103F11800DA
:1059D0009971D971197206338342F9D1019913680B
:1059E000994225D102B010BD134B002103F11804D8
:1059F00064209971D87119720633A342F9D1EDE789
:105A00000D4B002103F1180464209971D9711872AB
:105A10000633A342F9D1E1E7074B642403F11800F0
:105A200000219C71D971197206339842F9D1D5E7DA
:105A3000FCF7AEFB000B002084710020000000008A
:105A4000F0B50D4F0D4C3B6883B0002501932E46F9
:105A5000E8B200210135FFF73BFF042D2670667088
:105A6000A67004F10304F3D1019A3B689A4201D174
:105A700003B0F0BDFCF78CFB000B0020847100200C
:105A800030B5094B094D044607CB83B02B68019311
:105A9000206001982B6861609842A26001D103B038
:105AA00030BDFCF775FB00BF84710020000B0020A7
:105AB0002DE9F043254E83B034680194042A9DF803
:105AC0002890144605460F46984639D9B9F1000F7B
:105AD00014BF00224FF08052640002EB0863013CC7
