:020000040800F2
:1000000000040020C1010008217A0008217A0008BC
:1000100031360008217A0008217A0008217A000888
:10002000217A0008217A0008217A0008419B000803
:10003000217A0008217A0008217A0008D1040108F9
:10004000217A0008B1D1000841D3000891D30008FB
:10005000217A0008217A0008F1CE000841CF00087B
:1000600091CF0008E1CF000831D0000831C400086A
:1000700081C40008D1C4000821C5000871C500086A
:10008000C1C5000811C6000861CD000831D50008BF
:10009000A1D5000851D6000801D7000881D000087A
:1000A000217A0008217A000881FF0008217A0008DF
:1000B00091000108D100010811010108C1E4000804
:1000C00001E60008217A0008217A0008217A000858
:1000D000217A0008217A0008217A00089105010898
:1000E00011D1000801D2000851D20008217A00087D
:1000F000217A0008217A0008217A000861C60008E8
:10010000217A000891D8000851010108217A0008DD
:10011000217A0008217A000841FF0008217A0008AE
:10012000B1C6000801C7000851C70008A1C70008F0
:10013000F1C70008217A0008A1D20008217A00083E
:10014000217A0008217A0008217A0008E1F80008E5
:1001500041C8000891C80008E1C80008217A0008D9
:10016000217A0008217A0008217A0008217A000803
:10017000F1D20008217A0008E1220008217A000863
:10018000217A0008217A0008217A0008217A0008E3
:10019000217A0008217A0008217A0008217A0008D3
:1001A000217A0008217A0008217A0008217A0008C3
:1001B000217A0008217A0008217A0008217A0008B3
:1001C00072B62E4880F3098840F20000CCF200009D
:1001D0004EF63471CEF20001086040F20000C0F229
:1001E000F0004EF68851CEF2000108604FF000009A
:1001F000E1EE100A4EF63C71CEF2000108600620D6
:1002000080F31488BFF36F8F10F00AFB4FF0553066
:100210001B491C4A91423CBF41F8040BFAE71A49BA
:10022000164A91423CBF41F8040BFAE71749184AB5
:10023000184B9A423EBF51F8040B42F8040BF8E702
:1002400000201549154A91423CBF41F8040BFAE7DA
:1002500007F0CEFB124C134DAC4203DA54F8041BEA
:100260008847F9E701F024F80F4C104DAC4203DA4F
:1002700054F8041B8847F9E707F0CABB00080020C0
:100280000000002000040020000400203860010865
:1002900000080020BC140020C0140020E05E0020F4
:1002A000C0010008C0010008C0010008C00100082A
:1002B0002DE9F04F2DED108AC1F80CD0D0F80CD0FC
:1002C000BDEC108ABDE8F08F07F0EAFC08F0D8FC1E
:1002D000002383F311882846A047002008F070FA15
:1002E00008F0B6FC07F0BCFC08F0DAF807F0D8FC20
:1002F00008F0C6FC00DFFEE7000000000000000080
:1003000081F0004102E000BF83F0004330B54FEAC6
:1003100041044FEA430594EA050F08BF90EA020F33
:100320001FBF54EA000C55EA020C7FEA645C7FEAC6
:10033000655C00F0E2804FEA5454D4EB5555B8BFE9
:100340006D420CDD2C4480EA020281EA030382EA5A
:10035000000083EA010180EA020281EA0303362DEC
:1003600088BF30BD11F0004F4FEA01314FF4801CBF
:100370004CEA113102D0404261EB410113F0004FD1
:100380004FEA03334CEA133302D0524263EB430388
:1003900094EA050F00F0A780A4F10104D5F1200E26
:1003A0000DDB02FA0EFC22FA05F2801841F1000181
:1003B00003FA0EF2801843FA05F359410EE0A5F155
:1003C00020050EF1200E012A03FA0EFC28BF4CF086
:1003D000020C43FA05F3C01851EBE37101F000453C
:1003E00007D54FF0000EDCF1000C7EEB00006EEB49
:1003F0000101B1F5801F1BD3B1F5001F0CD34908D3
:100400005FEA30004FEA3C0C04F101044FEA445229
:1004100012F5800F80F09A80BCF1004F08BF5FEAB0
:10042000500C50F1000041EB045141EA050130BD90
:100430005FEA4C0C404141EB010111F4801FA4F133
:100440000104E9D191F0000F04BF01460020B1FA88
:1004500081F308BF2033A3F10B03B3F120020CDAC0
:100460000C3208DD02F1140CC2F10C0201FA0CF09E
:1004700021FA02F10CE002F11402D8BFC2F1200C03
:1004800001FA02F120FA0CFCDCBF41EA0C019040B9
:10049000E41AA2BF01EB0451294330BD6FEA040402
:1004A0001F3C1CDA0C340EDC04F11404C4F12002ED
:1004B00020FA04F001FA02F340EA030021FA04F3FF
:1004C00045EA030130BDC4F10C04C4F1200220FA56
:1004D00002F001FA04F340EA0300294630BD21FA94
:1004E00004F0294630BD94F0000F83F4801306BF5A
:1004F00081F480110134013D4EE77FEA645C18BF4E
:100500007FEA655C29D094EA050F08BF90EA020FE4
:1005100005D054EA000C04BF1946104630BD91EADC
:10052000030F1EBF0021002030BD5FEA545C05D1DF
:100530004000494128BF41F0004130BD14F580041E
:100540003CBF01F5801130BD01F0004545F0FE4192
:1005500041F470014FF0000030BD7FEA645C1ABFC7
:10056000194610467FEA655C1CBF0B46024650EAFE
:10057000013406BF52EA033591EA030F41F400212A
:1005800030BD00BF90F0000F04BF0021704730B5B0
:100590004FF4806404F132044FF000054FF0000185
:1005A00050E700BF90F0000F04BF0021704730B546
:1005B0004FF4806404F1320410F0004548BF40421B
:1005C0004FF000013EE700BF42004FEAE2014FEA70
:1005D00031014FEA02701FBF12F07F4393F07F4F4B
:1005E00081F06051704732F07F4208BF704793F04E
:1005F0007F4F04BF41F40021704730B54FF4607461
:1006000001F0004521F000411CE700BF50EA010263
:1006100008BF704730B54FF000050AE050EA01020C
:1006200008BF704730B511F0004502D5404261EB7C
:1006300041014FF4806404F132045FEA915C3FF4BD
:10064000D8AE4FF003025FEADC0C18BF03325FEA5A
:10065000DC0C18BF033202EBDC02C2F1200300FA0B
:1006600003FC20FA02F001FA03FE40EA0E0021FA30
:1006700002F11444BDE600BF0000000000000000CD
:1006800070B54FF0FF0C4CF4E06C1CEA11541DBF28
:100690001CEA135594EA0C0F95EA0C0F00F0DEF8F3
:1006A0002C4481EA030621EA4C5123EA4C5350EAD8
:1006B000013518BF52EA033541F4801143F4801329
:1006C00038D0A0FB02CE4FF00005E1FB02E506F0BA
:1006D0000042E0FB03E54FF00006E1FB03569CF00F
:1006E000000F18BF4EF0010EA4F1FF04B6F5007F15
:1006F00064F5407404D25FEA4E0E6D4146EB060687
:1007000042EAC62141EA55514FEAC52040EA5E500F
:100710004FEACE2EB4F1FD0C88BFBCF5E06F1ED8B9
:10072000BEF1004F08BF5FEA500E50F1000041EBF0
:10073000045170BD06F0004646EA010140EA02009D
:1007400081EA0301B4EB5C04C2BFD4EB0C0541EABF
:10075000045170BD41F480114FF0000E013C00F3D4
:10076000AB8014F1360FDEBF002001F0004170BDF8
:10077000C4F10004203C35DA0C341BDC04F1140411
:10078000C4F1200500FA05F320FA04F001FA05F29D
:1007900040EA020001F0004221F0004110EBD3706A
:1007A00021FA04F642EB06015EEA430E08BF20EA96
:1007B000D37070BDC4F10C04C4F1200500FA04F339
:1007C00020FA05F001FA04F240EA020001F00041CB
:1007D00010EBD37041F100015EEA430E08BF20EA3E
:1007E000D37070BDC4F1200500FA05F24EEA020E86
:1007F00020FA04F301FA05F243EA020321FA04F0B5
:1008000001F0004121FA04F220EA020000EBD3706B
:100810005EEA430E08BF20EAD37070BD94F0000F6B
:100820000FD101F00046400041EB010111F4801F9F
:1008300008BF013CF7D041EA060195F0000F18BF50
:10084000704703F00046520043EB030313F4801F8C
:1008500008BF013DF7D043EA0603704794EA0C0F46
:100860000CEA135518BF95EA0C0F0CD050EA41065C
:1008700018BF52EA4306D1D181EA030101F00041D9
:100880004FF0000070BD50EA410606BF1046194601
:1008900052EA430619D094EA0C0F02D150EA01360D
:1008A00013D195EA0C0F05D152EA03361CBF10464E
:1008B00019460AD181EA030101F0004141F0FE41ED
:1008C00041F470014FF0000070BD41F0FE4141F471
:1008D000780170BD70B54FF0FF0C4CF4E06C1CEA71
:1008E00011541DBF1CEA135594EA0C0F95EA0C0F26
:1008F00000F0A7F8A4EB050481EA030E52EA0335E1
:100900004FEA013100F088804FEA03334FF0805501
:1009100045EA131343EA12634FEA022245EA11152E
:1009200045EA10654FEA00260EF000419D4208BFDF
:10093000964244F1FD0404F5407402D25B084FEA8C
:100940003202B61A65EB03055B084FEA32024FF438
:1009500080104FF4002CB6EB020E75EB030E22BF95
:10096000B61A754640EA0C005B084FEA3202B6EB55
:10097000020E75EB030E22BFB61A754640EA5C0004
:100980005B084FEA3202B6EB020E75EB030E22BF94
:10099000B61A754640EA9C005B084FEA3202B6EB95
:1009A000020E75EB030E22BFB61A754640EADC0054
:1009B00055EA060E18D04FEA051545EA16754FEAB6
:1009C00006164FEAC30343EA52734FEAC2025FEAD4
:1009D0001C1CC0D111F4801F0BD141EA00014FF063
:1009E00000004FF0004CB6E711F4801F04BF014334
:1009F0000020B4F1FD0C88BFBCF5E06F3FF6AFAE50
:100A0000B5EB030C04BFB6EB020C5FEA500C50F1DF
:100A1000000041EB045170BD0EF0004E4EEA113162
:100A200014EB5C04C2BFD4EB0C0541EA045170BD69
:100A300041F480114FF0000E013C90E645EA060EAD
:100A40008DE60CEA135594EA0C0F08BF95EA0C0FDB
:100A50003FF43BAF94EA0C0F0AD150EA01347FF423
:100A600034AF95EA0C0F7FF425AF104619462CE7FA
:100A700095EA0C0F06D152EA03353FF4FDAE10465D
:100A8000194622E750EA410618BF52EA43067FF4AE
:100A9000C5AE50EA41047FF40DAF52EA43057FF43E
:100AA000EBAE12E7000000000000000000000000B4
:100AB0004FF0FF3C06E000BF4FF0010C02E000BF2A
:100AC0004FF0010C4DF804CD4FEA410C7FEA6C5C0D
:100AD0004FEA430C18BF7FEA6C5C1BD001B050EAB0
:100AE000410C0CBF52EA430C91EA030F02BF90EA9B
:100AF000020F0020704710F1000F91EA030F58BF5A
:100B0000994208BF90422CBFD8176FEAE37040F0BB
:100B1000010070474FEA410C7FEA6C5C02D150EA59
:100B2000013C07D14FEA430C7FEA6C5CD6D152EA14
:100B3000033CD3D05DF8040B704700BF84461046D9
:100B400062468C461946634600E000BF01B5FFF7D8
:100B5000B7FF002848BF10F1000F01BD4DF808EDA8
:100B6000FFF7F4FF0CBF012000205DF808FB00BF79
:100B70004DF808EDFFF7EAFF34BF012000205DF8D3
:100B800008FB00BF4DF808EDFFF7E0FF94BF012020
:100B900000205DF808FB00BF4DF808EDFFF7CEFF21
:100BA00094BF012000205DF808FB00BF4DF808ED60
:100BB000FFF7C4FF34BF012000205DF808FB00BF31
:100BC0004FEA410212F5001215D211D56FF4787375
:100BD000B3EB625212D94FEAC12343F0004343EA18
:100BE000505311F0004F23FA02F018BF40427047F3
:100BF0004FF00000704750EA013005D111F000407D
:100C000008BF6FF0004070474FF00000704700BF12
:100C10004FEA4102B2F1E04324BFB3F5001CDCF11E
:100C2000FE5C0DD901F0004C4FEAC0024CEA507056
:100C3000B2F1004F40EB830008BF20F00100704785
:100C400011F0804F21D113F13872BCBF01F0004088
:100C5000704741F480114FEA5252C2F11802C2F1BA
:100C6000200C10FA0CF320FA02F018BF40F001003B
:100C70004FEAC1234FEAD32303FA0CFC40EA0C00ED
:100C800023FA02F34FEA4303CCE77FEA625307D12A
:100C900050EA01331EBF4FF0FE4040F44000704761
:100CA00001F0004040F0FE4040F40000704700BFFB
:100CB00053B94AB9002908BF00281CBF4FF0FF31C3
:100CC0004FF0FF3000F074B9ADF1080C6DE904CEBF
:100CD00000F006F8DDF804E0DDE9022304B0704717
:100CE0002DE9F047089E04468846002B4BD18A42E6
:100CF000154667D9B2FA82F24AB1C2F1200701FA69
:100D000002F320FA07F7954047EA030894404FEAB8
:100D1000154E230CB8FBFEF71FFA85FC0EFB178857
:100D200043EA084307FB0CF1994209D9EB1807F194
:100D3000FF3080F01B81994240F21881023F2B4422
:100D40005B1AA4B2B3FBFEF00EFB103344EA03447B
:100D500000FB0CFCA44509D92C1900F1FF3380F0ED
:100D60000781A44540F2048102382C4440EA074040
:100D7000A4EB0C0400271EB1D4400023C6E90043B5
:100D80003946BDE8F0878B4209D9002E00F0EB8090
:100D90000027C6E9000138463946BDE8F087B3FAB6
:100DA00083F7002F47D18B4202D3824200F2FA80B0
:100DB000841A61EB030301209846002EE0D0C6E9B7
:100DC0000048DDE702B9FFDEB2FA82F2002A40F005
:100DD0008F80491B4FEA154E1FFA85F80127B1FB9A
:100DE000FEFC230C0EFB1C1143EA014308FB0CF133
:100DF000994207D9EB180CF1FF3002D2994200F268
:100E0000CD808446591AA3B2B1FBFEF00EFB10143C
:100E100043EA044408FB00F8A04507D92C1900F167
:100E2000FF3302D2A04500F2B6801846A4EB0804B6
:100E300040EA0C409FE7C7F1200CBB4022FA0CFEB1
:100E40004EEA030E01FA07F420FA0CF521FA0CF32E
:100E50004FEA1E482543B3FBF8F92C0C08FB193365
:100E60001FFA8EFA44EA034309FB0AF49C4202FA91
:100E700007F200FA07F10BD91EEB030309F1FF306B
:100E800080F087809C4240F28480A9F1020973447B
:100E90001B1BADB2B3FBF8F008FB103345EA03446B
:100EA00000FB0AFAA24508D91EEB040400F1FF3347
:100EB0006BD2A24569D90238744440EA0940A0FBCC
:100EC0000289A4EB0A044C45C2464B4654D351D088
:100ED000002E69D0B1EB0A0564EB030404FA0CFCA4
:100EE000FD40FC404CEA0505C6E90054002747E7F1
:100EF000C2F1200320FA03F7954001FA02F021FA2B
:100F000003F34FEA154E3843010CB3FBFEF71FFA0B
:100F100085F80EFB173341EA034107FB08F38B42C8
:100F200004FA02F407D9691807F1FF3C2FD28B426B
:100F30002DD9023F2944CB1A81B2B3FBFEF00EFB40
:100F4000103341EA034100FB08F38B4207D96918CB
:100F500000F1FF3C17D28B4215D902382944C91A37
:100F600040EA07473BE73746304609E70746E7E6EA
:100F70001846FBE64145ABD2B8EB020A69EB0E021C
:100F800001381346A4E76046E9E7184695E7674647
:100F9000D1E781467CE702382C4447E7ACF1020CEC
:100FA0002B442FE7384608E73746E9E60000000003
:100FB000704700BF000000000000000000000000BB
:100FC000844641EA000313F003036DD1403A41D354
:100FD00051F8043B40F8043B51F8043B40F8043B13
:100FE00051F8043B40F8043B51F8043B40F8043B03
:100FF00051F8043B40F8043B51F8043B40F8043BF3
:1010000051F8043B40F8043B51F8043B40F8043BE2
:1010100051F8043B40F8043B51F8043B40F8043BD2
:1010200051F8043B40F8043B51F8043B40F8043BC2
:1010300051F8043B40F8043B51F8043B40F8043BB2
:1010400051F8043B40F8043B51F8043B40F8043BA2
:10105000403ABDD2303211D351F8043B40F8043B42
:1010600051F8043B40F8043B51F8043B40F8043B82
:1010700051F8043B40F8043B103AEDD20C3205D352
:1010800051F8043B40F8043B043AF9D2043208D04A
:10109000D2071CBF11F8013B00F8013B01D30B88BC
:1010A00003806046704700BF082A13D38B078DD09A
:1010B00010F003038AD0C3F10403D21ADB071CBF6C
:1010C00011F8013B00F8013B80D331F8023B20F8D6
:1010D000023B7BE7043AD9D3013A11F8013B00F80F
:1010E000013BF9D20B7803704B7843708B78837097
:1010F0006046704700000000000000000000000093
:1011000090F800F06DE9024520F007016FF0000C47
:1011100010F0070491F820F040F049804FF00004EF
:101120006FF00700D1E9002391F840F000F10800CA
:1011300082FA4CF2A4FA8CF283FA4CF3A2FA8CF302
:101140004BBBD1E9022382FA4CF200F10800A4FA69
:101150008CF283FA4CF3A2FA8CF3E3B9D1E90423BD
:1011600082FA4CF200F10800A4FA8CF283FA4CF3F4
:10117000A2FA8CF37BB9D1E9062301F1200182FAAE
:101180004CF200F10800A4FA8CF283FA4CF3A2FAB4
:101190008CF3002BC6D0002A04BF04301A4612BAC2
:1011A000B2FA82F2FDE8024500EBD2007047D1E9C5
:1011B000002304F00305C4F100004FEAC50514F054
:1011C000040F91F840F00CFA05F562EA05021CBF25
:1011D00063EA050362464FF00004A9E7000000003F
:1011E00001F0FF01102A2BDB10F0070F08D010F8D8
:1011F000013B013A8B422DD010F0070F42B3F6D1DC
:10120000F0B441EA012141EA014122F007047FF0F4
:1012100000070023F0E80256083C85EA010586EA4B
:10122000010685FA47F5A3FA87F586FA47F6A5FA87
:1012300087F68EB9EED1F0BC01F0FF0102F0070293
:1012400032B110F8013B013A83EA010313B1F8D13E
:101250000020704701387047002D06BF354603381F
:10126000073815F0010F07D1013015F4807F02BF58
:10127000013015F4C03F0130F0BC0138704700BFA9
:101280004FEA410C7FEA6C5C02D150EA013C0AD182
:101290004FEA430C7FEA6C5C02D152EA033C02D174
:1012A0004FF0000070474FF0010070470000000051
:1012B00000B5124B83B01B68019308F0A1FC06F047
:1012C000C7FB02F05DF90E490E4809F0D9FE02F0A5
:1012D00087FE01F03DFB01F013FF02F0F9FD02F083
:1012E000BFF802F03DFD06F043FB00F059FA00F0B4
:1012F00027FF4FF47A7007F0EBF9F8E700080020B9
:1013000004080020345E00200000000000000000FF
:1013100000B5084B83B01A680192019A1B689A4283
:1013200005D1054803B05DF804EB06F0F9BBFFF703
:10133000EFFF00BF00080020B04C010800000000D3
:10134000044A054B926905491B68916182B001937B
:10135000FEE700BF1050002000080020E04C01080C
:10136000F0B5134E83B00022336801930746104650
:10137000BB18BC5C5B786401DB1003F01C0304F059
:10138000600423433B2BC2F34E05D8BF013002F16A
:101390000202D8BF80B2B2F5A06F4B55E8D1019AD6
:1013A00033689A4201D103B0F0BDFFF7B1FF00BF2F
:1013B0000008002000000000000000000000000005
:1013C00080B5234C234AA36923491668996186B0E6
:1013D000022320250A220021009305964FF4207352
:1013E000CDE9015530201D4E1D4F01F031FC01F0BB
:1013F00037FB002001F06CFBB04601F0D1FA13E09E
:1014000007F026F806F04CFC07F03AFC2368A342EC
:1014100007D0A2699B6892689A4202D2384606F0C9
:101420007FFB002383F3118801F092FB01F0F8FAAF
:1014300085F3118807F00CFC06F012FC06F0E0FCC6
:10144000B368002BDCDC404607F0DAFCD8E700BFCD
:101450001050002000080020D04C01081008002087
:10146000F04C010800000000000000000000000037
:10147000F0B5234D83B02B680193012A04460E4634
:1014800025D011D3022A06D00020019A2B689A4257
:1014900033D103B0F0BD019A2B689A422DD103B02D
:1014A000BDE8F040FFF75CBF00231846E25C02F0A5
:1014B000F8023B2AC3F34E0198BF013003F1020347
:1014C00098BF80B2B3F5A06F7254EFD1DDE700F59D
:1014D000A067014600204B78DB00DBB23B2BA1EB81
:1014E000040298BF0130C2F34E0201F1020198BF1D
:1014F00080B28F42B354EED1C7E7FFF709FF00BFB8
:1015000000080020000000000000000000000000B3
:10151000F0B52B4C83B02368019300F27F25431E66
:10152000002213F8011FAB420A44FAD1254B05787B
:10153000A3FB0232520A002140F27A264B1C95424C
:101540009BB220D945186D7995421CD2B34226D85A
:1015500031B303F1FF3C84441CF8015F95429FB214
:1015600016D91CF805EC964512D2A7EB010CBCF17C
:10157000270F3B468E461ADCB74210D839464B1C23
:1015800095429BB2DED8B34209D8C55C1946D5E76F
:101590000137BFB2B7F5207F03F10103DCD1002191
:1015A000019A23689A42084608D103B0F0BD0B4463
:1015B000054A5B10791A89B21380F1E7FFF7A8FE9C
:1015C00000080020CDCCCCCC1C080020000000007E
:1015D0002DE9F0412B4E82B000233268019205467E
:1015E0000F461C46EA5C02F0F8023B2AC3F34E01A8
:1015F00098BF013403F1020398BFA4B2B3F5A06F02
:101600007A54EFD139462846FFF7AAFE394680467C
:1016100001222846FFF72CFFA0420BD9A04509D98B
:10162000001BC82823DDA8EB0404C92CB4BF032089
:1016300000201DE0A0420BD2404509D2241AC82C3C
:1016400015DDA8EB0000C928B4BF032001200FE07E
:1016500040450CD9A0450AD2A0EB0800C82806DDF9
:10166000A4EB0804C92CB4BF0320022000E003202F
:10167000019A33689A4202D102B0BDE8F081FFF7C7
:1016800047FE00BF0008002000000000000000002E
:1016900070B5244C82B0236801930546224807F0B8
:1016A00077FB01F02DFA012D2CD01ED3022D12D183
:1016B0001E4D00228318815C5B784901DB10C2F368
:1016C0004E0603F01C0301F0600102320B43B2F539
:1016D000A06FAB55EED1019A23689A4220D11348EE
:1016E00002B0BDE87040FFF713BF104D0023C25C8D
:1016F000C3F34E01023322F00702B3F5A06F6A5420
:10170000F5D1E8E7094D00F5A066034659781A1AA5
:10171000C2F34E020233C9009E42A954F6D1DAE761
:10172000FFF7F6FD0008002010080020C01400207C
:1017300000B5074B07491A68088883B00192019ADF
:101740001B689A4202D103B05DF804FBFFF7E0FD8D
:10175000000800201C08002000000000000000001D
:1017600010B50A4C0A48236882B0019307F010FBB9
:1017700001F0C6F9019A23689A4205D1054902B0E1
:10178000BDE81040FFF724BFFFF7C2FD00080020AE
:10179000100800204017002000000000000000009A
:1017A00030B50E4C0E4B22680E4885B000250392D2
:1017B0004FF4AF614022009506F032FF0A4B0095CE
:1017C00040220A484FF41E7106F02AFF039A23684C
:1017D0009A4201D105B030BDFFF79AFD0008002004
:1017E00041130008381C0020C1130008C019002054
:1017F0000EB410B583B005AA094C52F8041B236837
:101800000848009201930FF063F8019A23689A4206
:1018100004D103B0BDE8104003B07047FFF778FD76
:1018200000080020345E00200000000000000000DE
:10183000F0B50E4F83B03B680193064670B10025AA
:101840002C46962006F044FF06F0BAF80135044411
:10185000B542A4B2F5D194FBF5F4A0B2019A3B686D
:101860009A4201D103B0F0BDFFF752FD00080020FD
:1018700070B5464E464D336884B005200393FFF79C
:10188000D7FFD5ED020AB2EE040A044602F020F9B1
:101890000520FFF7CDFF07EE904A07EE100AF8EE9D
:1018A000677A04FB04F3B8EE477A00EE103A77EE5D
:1018B000A77AB8EEC00A67EE677A9FED367AA7EE90
:1018C000870A00FB00F3F0EE407A00EE103AB8EE23
:1018D000C00A37EE800AB5EE400AF1EE10FAF1EEDA
:1018E000C00A47D4434207EE900AB8EEE77ADFED2C
:1018F000297A9FED296A27EE277A07EE903AC7EEFC
:10190000206AF8EEE77A07EE104A67EE867AB8EEBC
:10191000C70AC7EEA00A30EE660A0FF091FBDFEDB2
:101920001F7ADFED1F6A039AD5ED020A336820EEB5
:10193000270A80EE267AB5EEC07AF1EE10FA0CDDB9
:101940009A4220D1BAEE040A30EE470A30EE270A56
:1019500004B0BDE8704002F0BBB89A4213D1BAEEB1
:10196000040A30EE470A30EE670A04B0BDE8704062
:1019700002F0AEB80190CDED000A0FF069FB0198BE
:10198000DDED000AAEE7FFF7C3FC00BF0008002052
:10199000C8210020611C7C3F4ED1313E0000344301
:1019A000DB0F4940000000000000000000000000C4
:1019B0002DE9F0432DED048BDFF8B091634CD9F89D
:1019C000003085B0074688460393B0EE408A2088F1
:1019D0006188002A40F09280381AA8EB010105B214
:1019E0000EB2002D5DD007EE905AB8EEE70A07EE72
:1019F000906AF8EEE77A87EE800A0FF041FA002D40
:101A0000DFED537A9FED537AD4ED020A20EE270AD8
:101A1000C0EE078A5ADD002E69D1B1EE600A02F0ED
:101A200057F884ED020A06FB06F305FB053300EECA
:101A3000103AB8EEC00AB5EE400AF1EE10FAB1EE77
:101A4000C09A7DD4B0EE490A02F022F918EE900A4D
:101A5000FEF7BAFD02460B463F494048CDE9005625
:101A6000FFF7C6FED4ED020A9FED3D0A2780A4F8D9
:101A7000028002F02DF8F0EE407AF0EE670A38EEC0
:101A8000400AC4ED027A02F023F8039AD9F8003034
:101A900084ED020A9A4256D105B0BDEC048BBDE834
:101AA000F083002E0FD0D4ED020ACCBF9FED2D0A9B
:101AB0009FED2D0ADFED2A8A30EE600A02F008F869
:101AC00084ED020AAFE700220023C5E736B937EEFE
:101AD000E00A01F0FDFF84ED020AA4E738EEA70A50
:101AE00030EE600A01F0F4FF84ED020A9BE738EE65
:101AF000E00A01F0EDFF84ED020A94E79FED149AED
:101B0000DFED198AB0EE490A0022FFF751FFFFF717
:101B1000AFFE0A2084ED029AFFF78AFE61882080DA
:101B2000B0EE680A0022FFF743FFFFF7A1FE0A208C
:101B3000C4ED028AFFF77CFE0146618020884BE7F6
:101B40000FF086FA7EE7FFF7E3FB00BFC821002015
:101B500000003443DB0F4940E04D0108345E0020B3
:101B6000000000000000B4420000B4C200080020E1
:101B70002DE9F0432DED028BD94EDA4D33689FED00
:101B8000DA0ADA4C9FEDD88A83B001220193A021B2
:101B900004236420AB71AB73AB75FFF709FF4FF4FF
:101BA0007A7006F095FD4FF4FA7006F091FDFFF79C
:101BB000D7FD032800F0A1804FF47A7006F088FD6D
:101BC000FFF7CEFD0328A87140F0AA8004234FF050
:101BD0000008AB714746A0889FEDC90AA0380122D2
:101BE000642180B2B0EE408AFFF7E2FE4FF47A70D3
:101BF00006F06EFD4FF4FA7006F06AFDFFF7B0FDD7
:101C000003281AD16188E3883231643B994218DA9B
:101C1000A088A03889B20022B0EE480A80B2FFF74F
:101C2000C7FE4FF47A7006F053FD4FF4FA7006F0D9
:101C30004FFDFFF795FD0328E4D04FF47A7006F0CE
:101C400047FDFFF78DFD4FEAC80805EB080903289B
:101C500089F8060040F0A081042389F80630E18865
:101C6000A0889FEDA30AA039643889B2012280B20E
:101C7000B0EE408AFFF79CFE4FF47A7006F028FD24
:101C80004FF4FA7006F024FDFFF76AFD032818D11F
:101C90002088962819D9E1883238A03989B20022E3
:101CA000B0EE480A80B2FFF783FE4FF47A7006F078
:101CB0000FFD4FF4FA7006F00BFDFFF751FD0328FE
:101CC000E6D04FF47A7006F003FDFFF749FD05EB0F
:101CD0000809032889F806006ED10423022F89F829
:101CE000063000F0BF80019A33689A4240F0AC8120
:101CF00003B0BDEC028BBDE8F0832088A3883230AE
:101D0000643B9842BFF65CAF80B20022B0EE480A56
:101D1000A021FFF74DFE4FF47A7006F0D9FC42E7A0
:101D200001F056FBAF799FED708AB7FA87F77F090C
:101D30000CE061882088323189B20122B0EE480A75
:101D4000FFF736FE4FF4FA7006F0C2FC3846FFF794
:101D50009FFC0028EDD0FFF7EBFC6188DFED665AB1
:101D60009FED666A23889FED600A07EE901AA0F542
:101D7000A070B8EEE77A07EE900AF8EEE76A67EE31
:101D8000257A012267EEA67A904687EE867A174674
:101D9000FDEEC77A17EE900A181A80B2FFF708FE18
:101DA00041F2883006F094FC23886B8005200023E4
:101DB000AB8001F00DFB0EE701F00AFB99F80690ED
:101DC0009FED4B8AB9FA89F94FEA59190CE06188FD
:101DD0002088323989B20122B0EE480AFFF7E8FDC7
:101DE0004FF4FA7006F074FC4846FFF751FC0028E7
:101DF000EDD0FFF79DFC6188E3889FED3F6ADFED42
:101E00003F6AB4F800C09FED3A0A5B1A07EE103A39
:101E1000A0F5A07007EE900AB8EEC77AF8EEE77A60
:101E200027EE067A012267EE277AA84487EEA67A83
:101E30000137FFB2FDEEC77A17EE900A604480B218
:101E4000FFF7B6FD41F2883006F042FC2288E388B5
:101E5000A8F802200520A8F8043001F0B9FA022FF2
:101E60007FF441AFE1889FED230A643989B20122F2
:101E7000A020B0EE408AFFF79BFD4FF47A7006F089
:101E800027FC4FF4FA7006F023FCFFF769FC0328E7
:101E900016D16188962917D9323989B20022B0EE5D
:101EA000480AA020FFF784FD4FF47A7006F010FC7A
:101EB0004FF4FA7006F00CFCFFF752FC0328E8D050
:101EC0004FF47A7006F004FCFFF74AFCA87501F0A5
:101ED0007FFAAF7D9FED078AB7FA87F77F091EE08B
:101EE00000080020B02100200000B4C2C82100205A
:101EF0000000B44200003443B9C2DB3E0000A043FE
:101F00000000000020886188323080B20122B0EEEB
:101F1000480AFFF74DFD4FF4FA7006F0D9FB38463A
:101F2000FFF7B6FB0028EDD0FFF702FC61885FEDFC
:101F30000E5A1FED0E6A1FED110A07EE901AA0F55A
:101F4000A070B8EEE77A07EE900AF8EEE76A67EE5F
:101F5000257A012267EEA67A208887EE867ABDEE82
:101F6000C77A17EE103A194489B2FFF721FD41F202
:101F7000883006F0ADFB019A33686188A9829A42E5
:101F80004FF0000169825FD1052003B0BDEC028BE8
:101F9000BDE8F04301F01CBA01F01AFA99F8069076
:101FA0001FED298AB9FA89F94FEA59190CE02088FE
:101FB0006188323880B20122B0EE480AFFF7F8FC9F
:101FC0004FF4FA7006F084FB4846FFF761FB0028E7
:101FD000EDD0FFF7ADFB2288A3881FED396A5FEDD6
:101FE000396AB4F802C01FED3A0A9B1A07EE103A9C
:101FF000A0F5A07007EE900AB8EEC77AF8EEE77A7F
:1020000027EE067A104667EE277A012287EEA67A37
:10201000A8440137FFB2FDEEC77A17EE901AACEB79
:10202000010189B2FFF7C4FC41F2883006F050FB91
:10203000A2886388A8F80220A8F80430052001F0DF
:10204000C7F94FEAC7080AE6FFF762F90000000087
:1020500070B5314E314C336882B005460193FFF7BD
:1020600007FC2846FFF7E4FBDFED2D0A9FED2D0A64
:10207000C4ED020A233080B2A080208001F028FD48
:10208000284684ED020AFFF7D3FB233080B2D4ED5B
:10209000020A9FED240AE080608001F019FD2846C5
:1020A00084ED020AFFF7C4FBA388D4ED020A9FED7A
:1020B0001D0A23331844A08001F00AFD284684ED50
:1020C000020AFFF7B5FBE388D4ED020A9FED150A7B
:1020D00023331844E08001F0FBFC6188208884ED04
:1020E000020A0022FFF764FCE188A0889FED0E0A37
:1020F000002249084008FFF75BFC019A33689A42C6
:1021000008D1E388A2880949094802B0BDE87040B7
:10211000FFF76EBBFFF7FCF800080020C821002085
:10212000000034430000B44200000000004D0108EC
:10213000345E0020000000000000000000000000ED
:102140002DE9F0432B4F2C4D3B682C4CDFF8C4900D
:102150002B4EDFF8C48083B041F28830019306F043
:10216000B7FA00230320AB60FFF772FF95ED020A78
:10217000698828880022FFF71BFC1420FFF768FFFE
:102180004FF4FA6006F0A4FAFFF7F2FC0025A379F9
:10219000042B09D8DFE803F026291A1403002A4685
:1021A00049463046FFF724FB0135032D04F10804AE
:1021B000EDD1019A3B689A421AD103B0BDE8F08391
:1021C0002A4641463046FFF713FBEDE70D492A4604
:1021D0003046FFF70DFBA38862880B493046FFF7B6
:1021E00007FBE1E72A460949F2E72A460849EFE7F3
:1021F000FFF78EF800080020C8210020B021002041
:10220000345E00205C4D01083C4D0108204D010862
:10221000784D0108B04D0108944D01080000000000
:1022200030B5104D81682B680F4A83B001930B685D
:1022300023F001030B608168946A03E0936A1B1B1F
:10224000C72B09D8086810F00100F7D1019A2B6854
:102250009A4204D103B030BD4FF0FF30F6E7FFF7EC
:1022600057F800BF000800201050002000000000B8
:1022700030B5184D83B02B68019311F00C0F044654
:102280000AD00378032B13D00622636822709A6861
:102290001AB100212046904763685B688BB10199B1
:1022A0002A68914213D1204603B0BDE83040184758
:1022B000FFF7B6FF0622636822709A68002AE8D109
:1022C000EBE7019A2B689A4201D103B030BDFFF7CA
:1022D0001FF800BF00080020000000000000000000
:1022E000F0B5284D83B02B68019306F079FC05F01A
:1022F00037FD254B1E69F20715D55A69234C42F06C
:1023000001025A612778BB1F012B2AD90522636875
:1023100022701B680BB120469847042F27D0022F4C
:1023200025D003232370B30710D5174A174C5369E0
:1023300043F0020353612378032B1DD063689B682D
:102340000622227013B101211048984705F030FD94
:10235000019A2B689A4213D103B0BDE8F04007F010
:102360000FBC019A2B689A420AD103B0F0BD022338
:102370002370B307EAD5D8E72046FFF751FFDDE722
:10238000FEF7C6FF0008002000000550D421002001
:1023900030B50B4D0B4C2B6883B02046019300F0F9
:1023A0002FF9019A2B680848084D094921619A4282
:1023B000C4E9025001D103B030BDFEF7A9FF00BF50
:1023C00000080020D42100202C5A010800000550EC
:1023D000165502020000000000000000000000008E
:1023E0002DE9F0412F4C0578266882B0012D019629
:1023F00006D0019A23689A4252D102B0BDE8F0811A
:10240000294DA842F5D10E4690461F46274AE86856
:102410002B460C210AF0C4FA002839D1D5E9023242
:10242000126828339360EB681A68042151611B68B5
:10243000C3F80C80EB681A6817611B68B6085E6009
:102440002B694FB343F480232B61E968184A09686C
:102450000B60EB6819680B6843F001030B60536B6A
:1024600043F0010353630B214E2009F079FFD5E9B6
:102470000113DA6842F00102DA60DA6842F002021F
:10248000DA60CA6822F4804222F001021A60B0E7E2
:10249000084805F045FBC1E723F480232B61D4E70E
:1024A000FEF736FF00080020D4210020712200082A
:1024B00000380240104E010800000000000000003B
:1024C00030B5184C0378226883B0022B019205D0F6
:1024D000019A23689A4223D103B030BD124B98422F
:1024E0000546F5D18168114A0B6823F4804323F037
:1024F00001030B608168CB6823F00F03CB60536B43
:1025000023F0010353634E2009F052FF019A236820
:102510009A4205D1E86803B0BDE830400AF0A8BA95
:10252000FEF7F6FE00080020D4210020003802400B
:1025300000B50F4B0278196883B0022A01910ED1C1
:1025400081680A6842F002020A6081680A6842F4FF
:1025500080420A6081680A6842F001020A60019ABA
:102560001B689A4202D103B05DF804FBFEF7D0FE6F
:102570000008002000000000000000000000000033
:1025800000B50F4B0278196883B0022A01910ED171
:1025900081680A6822F002020A6081680A6842F4CF
:1025A00080420A6081680A6842F001020A60019A6A
:1025B0001B689A4202D103B05DF804FBFEF7A8FE47
:1025C00000080020000000000000000000000000E3
:1025D00000B5074B83B01A680192019A1B689A42B2
:1025E00004D103B05DF804EBFFF7D2BEFEF790FE16
:1025F00000080020000000000000000000000000B3
:1026000000B5084B83B01A68019201220270019A4A
:102610001B6800219A42416002D103B05DF804FBBF
:10262000FEF776FE00080020000000000000000019
:102630002DE9F043254D83B02C680194DDF82890F6
:102640000F4616469846044618B111B1204B9A42DF
:102650002FD9204805F064FA202383F3118806F06F
:10266000F7FA05F0FDFA2378012B02D0194805F09E
:1026700057FA4246314620464B466760FFF7B0FEA8
:102680000223237005F00CFB06F0FAFA124B1A68CD
:102690009A4204D0996993688A689A420FD30023BA
:1026A00083F31188019A2B689A420CD103B0BDE8DC
:1026B000F0839307CDD1B8F1000FCDD1C9E707481A
:1026C00005F02EFAEBE7FEF723FE00BF000800201E
:1026D000FCFF0300404E010810500020304E01085E
:1026E00030B51C4D83B02B680193044658B32023AA
:1026F00083F3118806F0ACFA05F0B2FA2378022BC6
:1027000002D0154805F00CFA2046FFF7D9FE012348
:10271000237005F0C5FA06F0B3FA104B1A689A4216
:1027200004D0996993688A689A4208D3002383F396
:102730001188019A2B689A4209D103B030BD08482C
:1027400005F0EEF9F2E7044805F0EAF9CFE7FEF705
:10275000DFFD00BF00080020504E0108105000208F
:10276000304E0108000000000000000000000000E2
:1027700030B51C4D83B02B680193044658B3202319
:1027800083F3118806F064FA05F06AFA2378022BC5
:1027900002D0154805F0C4F92046FFF7C9FE04230E
:1027A000237005F07DFA06F06BFA104B1A689A4216
:1027B00004D0996993688A689A4208D3002383F306
:1027C0001188019A2B689A4209D103B030BD08489C
:1027D00005F0A6F9F2E7044805F0A2F9CFE7FEF705
:1027E00097FD00BF00080020604E01081050002037
:1027F000304E010800000000000000000000000052
:1028000030B51C4D83B02B680193044658B3202388
:1028100083F3118806F01CFA05F022FA2378022BC4
:1028200002D0154805F07CF92046FFF7A9FE0323E6
:10283000237005F035FA06F023FA104B1A689A4215
:1028400004D0996993688A689A4208D3002383F375
:102850001188019A2B689A4209D103B030BD08480B
:1028600005F05EF9F2E7044805F05AF9CFE7FEF704
:102870004FFD00BF00080020804E010810500020CE
:10288000304E0108000000000000000000000000C1
:1028900000B5074B07491A68087083B00192019A86
:1028A0001B689A4202D103B05DF804FBFEF730FDCD
:1028B00000080020E82100200000000000000000C7
:1028C00000B5064B83B01A680192019A1B689A42C0
:1028D00002D103B05DF804FBFEF71AFD00080020EA
:1028E00000B5064B83B01A680192019A1B689A42A0
:1028F00002D103B05DF804FBFEF70AFD00080020DA
:1029000010B5104C104B226882B0019201221A704F
:10291000202383F3118806F0CBF905F0E1F90B4889
:1029200006F0CEFC05F0FCF906F0DAF9002383F39B
:102930001188019A23689A4201D102B010BDFEF7B6
:10294000E7FC00BF00080020F42100202008002040
:1029500030B50E4D0E4C2B6883B00193FFF738FE57
:10296000206808B10EF0ACFC4FF496400EF0A0FCCD
:1029700001992A682060B0FA80F35B099142C3F1A3
:10298000000001D103B030BDFEF7C2FC00080020FA
:10299000EC2100200000000000000000000000000A
:1029A00030B5174D174C2B78226885B0012B039258
:1029B00020D000F0D5FB144B1B78ABB9B0F5964F87
:1029C00015D8124A124B12681B681249009202462F
:1029D0001148FFF72DFE01232B700020039A236876
:1029E0009A420BD105B030BDB0F5165FE9D94FF072
:1029F000FF30F3E70848FFF773FEDAE7FEF788FCDD
:102A0000EA21002000080020EB210020F021002016
:102A1000EC210020904E0108D4210020000000008D
:102A200010B50B4C0B48236882B0019306F010FBE5
:102A3000094806F0B5FC019A23689A4205D1054879
:102A400002B0BDE8104006F03BBBFEF761FC00BFE2
:102A500000080020280800202008002000000000B6
:102A600030B5154D154C164B2268286883B001927D
:102A700001221A7008B10EF023FC4FF416500EF02C
:102A800017FC286098B10F4D286808B10EF018FCAB
:102A90004FF416500EF00CFCB0FA80F35B0928607E
:102AA0005842019A23689A4204D103B030BD4FF0D6
:102AB000FF30F6E7FEF72CFCEC2100200008002098
:102AC000EB210020F02100200000000000000000A9
:102AD00000B5074B07491A68087083B00192019A44
:102AE0001B689A4202D103B05DF804FBFEF710FCAC
:102AF00000080020E9210020000000000000000084
:102B000000B50D4A0D4B1278196883B0019142B19E
:102B10000B4AD26812681268120302D4094A10687C
:102B200001E0094A1068019A1B689A4202D103B079
:102B30005DF804FBFEF7ECFBEB2100200008002011
:102B4000D4210020F0210020EC2100200000000012
:102B500000B50E4A0E4B1278196883B001914AB144
:102B6000019A1B689A420FD10A4803B05DF804EB42
:102B7000FFF746BE019A1B689A4205D1054803B08B
:102B80005DF804EBFFF7F4BDFEF7C2FBE92100207E
:102B900000080020D42100200000000000000000F8
:102BA00070B5274D82B02B680193064601220321A0
:102BB0006E2000F065FB044630B1019A2B689A4202
:102BC00020463AD102B070BD32464E216E2000F050
:102BD00057FB04460028F0D1442E07D00246B72107
:102BE0006E2000F04DFBB8B10446E6E70122B721A4
:102BF0006E2000F045FB0028F6D1224603216E200E
:102C000000F03EFB0028EFD1032211216E2000F0DE
:102C100037FB78B10446D0E7224603216E2000F04E
:102C20002FFB0028E0D10A2211216E2000F028FBA2
:102C30000028D9D1034B1E71BFE7FEF769FB00BF27
:102C400000080020F8210020000000000000000023
:102C50002DE9F04F8FB0DFF80084DDF860C0D8F8C0
:102C600000400D940CF1FF355C1EB3F5207F9DF8FC
:102C700064909DF868B00C44154400F21282BCF5D3
:102C8000F07F00F20E82B1F5207F0E4600F2128234
:102C9000B2F5F07F174600F21082A14280F0048264
:102CA000B4F5207F00F20082AA4280F00082B5F5E0
:102CB000F07F00F2FC81B9F1400F824600F0B08154
:102CC000B9F1800F23D0B9F1200F00F09C810023CF
:102CD000CDE90033BBF1400F2FD0BBF1800F00F0E6
:102CE000CB81BBF1200F00F0B9810023CDE9023385
:102CF000002203216E2000F0C3FAA0B30D9AD8F889
:102D000000309A4240F0E2810FB0BDE8F08F9A07A0
:102D100040F0D681CC4A8C085900661CA2FB010108
:102D2000A2FB030204EB930406EBD2030093BBF176
:102D3000400F06EBD1030193CFD11CF0010F40F0FF
:102D4000C281C14B7D084FEA4C026F1CA3FB0212EB
:102D5000A3FB0C1307EB9303029307EB920305EB22
:102D60005C050393C4E702465B216E2000F088FAFD
:102D70000028C3D15046FFF713FF0028BED10246FA
:102D800003216E2000F07CFA0028B7D1C6F3072398
:102D90001A4608216E20049300F072FA0028ADD183
:102DA000F3B21A4609216E20059300F069FA002853
:102DB000A4D1C7F307231A460A216E20069300F018
:102DC0005FFA00289AD1FBB21A460B216E200793B6
:102DD00000F056FA002891D1C4F307231A460C21BB
:102DE0006E20089300F04CFA002887D1E3B21A460F
:102DF0000D216E20099300F043FA00287FF47EAF86
:102E0000C5F307231A460E216E200A9300F038FA04
:102E100000287FF473AFEBB21A460F216E200B939C
:102E200000F02EFA00287FF469AF049A35216E2055
:102E300000F026FA00287FF461AF059A36216E2053
:102E400000F01EFA00287FF459AF089A37216E204F
:102E500000F016FA00287FF451AF099A38216E204D
:102E600000F00EFA00287FF449AF069A39216E204F
:102E700000F006FA00287FF441AF079A3A216E204D
:102E800000F0FEF900287FF439AF0A9A3B216E204A
:102E900000F0F6F900287FF431AF0B9A3C216E2048
:102EA00000F0EEF900287FF429AF009B3D21C3F329
:102EB00007226E2000F0E4F900287FF41FAF9DF890
:102EC00000203E216E2000F0DBF900287FF416AFD1
:102ED000019B3F21C3F307226E2000F0D1F90028A7
:102EE0007FF40CAF9DF8042040216E2000F0C8F95B
:102EF00000287FF403AF029B4121C3F307226E2019
:102F000000F0BEF900287FF4F9AE9DF808204221B8
:102F10006E2000F0B5F900287FF4F0AE039B43214A
:102F2000C3F307226E2000F0ABF900287FF4E6AE71
:102F30009DF80C2044216E2000F0A2F900287FF4B7
:102F4000DDAE012203216E2000F09AF900287FF403
:102F5000D5AE4A4693216E2000F092F900287FF406
:102F6000CDAE5A4694216E2000F08AF900287FF4F5
:102F7000C5AE012203216E2000F082F900287FF403
:102F8000BDAE0134A31B07EE103ADFED307AB8EE88
:102F9000477ABAF1440F77EEC77A00F09980B0EE25
:102FA000006AF2EE006AE7EE066A77EEA77AB0EE04
:102FB000667A67EE877ADFED266A87EEA67AFCEE00
:102FC000C77ACDED007A009B9521C3F307226E20CE
:102FD00000F056F900287FF491AE9DF8002096216C
:102FE0006E2000F04DF900287FF488AE194B0135B2
:102FF000EF1BA41B5F801C8083F804A083F805905E
:1030000083F806B07AE610495A00A1FB030306EBE9
:103010005303A1FB0212009306EB5203019359E6FE
:10302000D9074DD4084A74085900661CA2FB010157
:10303000A2FB030204EB530406EB9203009306EB9E
:103040009103019346E600BFABAAAAAA000022445E
:103050000000A344F821002000080020244A4FEA81
:103060004C03A2FB0C1CA2FB032307EB530307EB4F
:103070005C02029203933BE61CF0030F23D11C4B2E
:10308000BD084FEA4C026F1CA3FB0212A3FB0C13FA
:1030900007EBD303029307EBD20305EB9C050393E5
:1030A00026E66FF0070029E66FF0030026E66FF0D2
:1030B000040023E66FF0010020E66FF002001DE639
:1030C0006FF005001AE66FF0060017E6FEF720F92C
:1030D000F2EE006A37EE267ADFED066A67EE277AAF
:1030E00087EEA67AFCEEC77ACDED007A6BE700BFDB
:1030F000ABAAAAAA000024440000000000000000BF
:1031000010B5114C86B02368059300F081F80F4983
:103110000F4807F04DF9012200210D4807F0E0F9B2
:1031200020237822CDE901330092A023B422F0219C
:103130000220FFF78DFD059A23689A4201D106B05F
:1031400010BDFEF7E5F800BF00080020A04E010802
:10315000185E0020000000000000000000000000D9
:1031600010B50A4B0A4A1988146858881B7982B02E
:10317000442B019400FB01F00199136818BF400033
:10318000994201D102B010BDFEF7C2F8F82100202B
:103190000008002000000000000000000000000007
:1031A00070B5164E16483368154D82B005224FF49F
:1031B000807101930BF0A4F820246B6983F4807371
:1031C0006B61012005F084FA631E13F0FF04F4D153
:1031D0004FF4807140F20622298309480BF090F8E1
:1031E000019A33689A4206D10649074802B0BDE801
:1031F000704006F025BFFEF78BF800BF00080020E6
:1032000000040240E04E0108905A00200000000037
:1032100000B50C4A0C4B1278196883B0012A019151
:10322000019A1B6804D09A4209D103B05DF804FBEF
:103230009A4204D103B05DF804EBFFF7B1BFFEF78B
:1032400067F800BF905A002000080020000000002E
:1032500000B5084B83B01A680192019A1B689A4224
:1032600005D1054803B05DF804EB06F031BFFEF769
:103270004FF800BF00080020905A00200000000016
:10328000F0B5214C214E89B03368079307460025DD
:1032900020468DF818108DF819208DF8145006F07E
:1032A000E7FF2378012B0CD0042205AB0195029295
:1032B00000933946022306AA204606F069FF054618
:1032C00048B9114806F0F4FF0020079A33689A4283
:1032D00017D109B0F0BD204606F042FF23780C4A12
:1032E000052B106004D0084806F0E2FF68B2ECE756
:1032F000204606F0EDFE2378012BF4D1FFF750FFB6
:10330000F1E7FEF705F800BF905A00200008002002
:10331000002200200000000000000000000000006B
:1033200070B5294D82B02B6801930E46032841D811
:10333000DFE800F01A120A02012922D9234A536950
:1033400083F40063536116E0012926D91F4A5369AB
:1033500083F4806353610EE0012918D91B4A536935
:1033600083F04003536106E001291CD9174A5369D1
:1033700083F020035361019A2B689A4218D102B05E
:1033800070BD124B4FF4006229B15A83F3E70F4B23
:1033900040220029F9D11A83EDE70C4B4FF48062EB
:1033A0000029F8D0F1E7094B20220029F3D0ECE7FF
:1033B000FDF7AEFF0024E0B231460134FFF7B0FF65
:1033C000042CF8D1D7E700BF00080020000C024011
:1033D00010B5204A82B01368019305280ED8DFE8A3
:1033E00000F02B1F130D0D031B4B002103F11800E0
:1033F0009971D971197206338342F9D10199136811
:10340000994225D102B010BD134B002103F11804DD
:1034100064209971D87119720633A342F9D1EDE78E
:103420000D4B002103F1180464209971D9711872B1
:103430000633A342F9D1E1E7074B642403F11800F6
:1034400000219C71D971197206339842F9D1D5E7E0
:10345000FDF75EFF000800200422002000000000AD
:10346000F0B50D4F0D4C3B6883B0002501932E46FF
:10347000E8B200210135FFF753FF042D2670667076
:10348000A67004F10304F3D1019A3B689A4201D17A
:1034900003B0F0BDFDF73CFF00080020042200202F
:1034A00030B5094B094D044607CB83B02B68019317
:1034B000206001982B6861609842A26001D103B03E
:1034C00030BDFDF725FF00BF0422002000080020CA
:1034D0002DE9F043254E83B034680194042A9DF809
:1034E0002890144605460F46984639D9B9F1000F81
:1034F00014BF00224FF08052640002EB0863013CCD
:103500001C4405F00F0527F01F07202383F31188C3
:1035100005F09EFB3D4304F0A3FB154B1035DD6029
:103520001C6104F0BDFB05F0ABFB124B1A689A421C
:1035300004D0996993688A689A420DD3002383F373
:103540001188BFF36F8FBFF34F8F019A33689A4290
:103550000AD103B0BDE8F083074804F0E1FAEDE7D3
:10356000064804F0DDFAC1E7FDF7D2FE00080020AE
:1035700090ED00E010500020704F0108504F0108FE
:1035800030B5224D224C2B68224A85B003936368E4
:1035900043F004036360536A43F48033536220238F
:1035A00083F3118805F054FB04F05AFB17221A4BE1
:1035B000E260236104F074FB05F062FB174B1A68AC
:1035C0009A4204D0996993688A689A4218D3002075
:1035D00080F31188BFF36F8FBFF34F8F03231D223A
:1035E00000904FF00051FFF773FF094A536843F012
:1035F00001035360039A2B689A4205D105B030BD90
:10360000074804F08DFAE2E7FDF782FE000800208B
:1036100090ED00E000ED00E00900001010500020E7
:10362000704F0108000000000000000000000000D2
:1036300070B51A4D1A4C1B4E0FCD0FC49EB02A68A0
:10364000336822801D93EFF30981682203A8FDF7F8
:10365000B7FC154B9D6AAA0714D4EB0708D5124B8B
:1036600008995B6B114A00910D4880210EF040F9DA
:103670001D9A33689A420FD109481EB0BDE87040C8
:1036800004F04EBA099A5B6B0092A4F11000084A4C
:1036900080210EF02DF9E0E7FDF73AFE344F0108E6
:1036A000102200200008002000ED00E0104F01086B
:1036B000F04E0108000000000000000000000000C3
:1036C00000B51F4B0278196883B00191E2B11D4A21
:1036D0004FF4005111834278EAB11A4A4FF48051F5
:1036E00011838278F2B1174A4FF480411183C27876
:1036F000FAB9144A4FF400415183019A1B689A4267
:103700001CD103B05DF804FB0E4A4FF40051518305
:103710004278002AE1D10B4A4FF4805151838278DC
:10372000002AE0D1074A4FF480415183C278002A31
:10373000DFD0044A4FF400411183DEE7FDF7E8FDD6
:1037400000080020001002400000000000000000FF
:1037500000B51F4B0278196883B00191E2B11D4A90
:103760004FF4007111834278EAB11A4A4FF4807124
:1037700011838278F2B1174A4FF400611183C27845
:10378000FAB9144A4FF480615183019A1B689A4236
:103790001CD103B05DF804FB0E4A4FF40071518355
:1037A0004278002AE1D10B4A4FF48071518382782C
:1037B000002AE0D1074A4FF400615183C278002A01
:1037C000DFD0044A4FF480611183DEE7FDF7A0FDEE
:1037D000000800200010024000000000000000006F
:1037E00030B50C4A0C4B116883B04FF40055019171
:1037F0004FF480544FF400414FF480405D835C836C
:103800005883598301991368994201D103B030BD9F
:10381000FDF77EFD000800200010024000000000BF
:1038200030B50C4A0C4B116883B04FF40075019110
:103830004FF480744FF480614FF400605D835C83CB
:103840005883598301991368994201D103B030BD5F
:10385000FDF75EFD0008002000100240000000009F
:1038600010B50B4C0B48236882B0992200210193BC
:1038700006F036FE019A23689A4206D105480021D7
:1038800002B0BDE8104006F013BFFDF741FD00BFD8
:1038900000080020E05D00200000000000000000A3
:1038A00010B50B4C0B48236882B09922002101937C
:1038B00006F016FE019A23689A4206D105480021B7
:1038C00002B0BDE8104006F0F3BEFDF721FD00BFD9
:1038D00000080020FC5D0020000000000000000047
:1038E00000B5084B83B01A680192019A1B689A428E
:1038F00006D10548002103B05DF804EB06F040BE98
:10390000FDF706FD00080020E05D0020000000003B
:1039100000B5084B83B01A680192019A1B689A425D
:1039200006D10548002103B05DF804EB06F028BE7F
:10393000FDF7EEFC00080020FC5D00200000000008
:1039400070B51A4C1A4E2378326882B0022B01925D
:10395000A26811D165781748013505F0070500EB1D
:103960008500904763686570013B6360019A336826
:103970009A4219D102B070BD012B08D00199336869
:10398000994211D10C4802B0BDE8704010476578EB
:103990000848013D05F0070500EB85009047636886
:1039A000657001336360E1E7FDF7B2FCA8220020F7
:1039B000000800201050010800500108000000001D
:1039C00070B51A4C1A4E2378326882B0012B0192DE
:1039D000A26811D165781748013505F0070500EB9D
:1039E000850090476368657001336360019A3368AE
:1039F0009A4219D102B070BD022B08D001993368E8
:103A0000994211D10C4802B0BDE87040104765786A
:103A10000848013D05F0070500EB85009047636805
:103A20006570013B6360E1E7FDF772FC90220020C6
:103A3000000800201050010800500108000000009C
:103A400030B51F4D85B02B68039340F24C4399422B
:103A5000044626DCA3F69803994211DB4B00002BA9
:103A600029D10370036998474FF47A71039A2B6840
:103A70009A421ED1606905B0BDE8304006F0E8BC4E
:103A8000104B02225B42227040F2892293420E497F
:103A900091FBF3F189B207DC0191E3689847019942
:103AA000E4E7012303702D210191236998470199CF
:103AB000DCE7FDF72DFCE4DD01220270E4E700BF46
:103AC0000008002068F7FFFFA0860100000000004A
:103AD00010B52DED048B624C82B0B5EEC00A2368A0
:103AE0000193F1EE10FAB0EE408AB0EE609A40F326
:103AF00099809FED5C7AC0EE077A4FF4B473FDEEC7
:103B0000E77A17EE902A03FB02F307EE903AF8EEFD
:103B1000E77A30EE678ADFED547AB4EEE78AF1EEA9
:103B200010FA3FDDDFED4F7A38EE678ADFED4F7A2E
:103B30009FED4F6A9FED4F7A68EE277AC7EE866A4F
:103B4000FDEEC87AC6EE878A17EE903A002B35DC78
:103B50007DD100214848FFF773FF00214748FFF758
:103B60006FFF38EE090AB5EEC00AF1EE10FA45DD36
:103B70009FED3C7AC0EE077A4FF4B473FDEEE77A1E
:103B800017EE902A03FB02F307EE903AF8EEE77A7D
:103B900030EE670A019A23689A425FD102B0BDEC09
:103BA000048B10BDDFED367AB4EEE78AF1EE10FA41
:103BB00044BFDFED2C7A38EE278AB7E74FF4FA716D
:103BC0002D48FFF73DFF2F492C48FFF739FFDFED68
:103BD0002E7A68EEA78A4FF47A70F0EEE88AFCEE4F
:103BE000E88A18EE903A00FB03F0284B00F2E73029
:103BF000A3FB0030800904F06BFDAAE7CAD59FED56
:103C0000197AC0EE077A4FF4B473FDEEE77A17EE37
:103C1000902A03FB02F307EE903AF8EEE77A30EED3
:103C2000270AB7E77FF577AF9FED0E7AC0EE077AE8
:103C30004FF4B473FDEEE77A17EE902A03FB02F31C
:103C400007EE903AF8EEE77A30EE278A63E70D49FF
:103C50000948FFF7F5FE4FF4FA71B5E7FDF758FB99
:103C6000000800200000B443000034430B4F83469B
:103C7000004092450000FA43A82200209022002034
:103C8000000034C30CFEFFFF00007A44D34D6210E5
:103C9000DFED287ADFED286A9FED286A9FED287A0C
:103CA00020EE270A30B520EE260A264DC0EE066A21
:103CB00083B02B680193C6EE877AF0EEE77A17EEB1
:103CC000900AFCF781FC00221F4BFCF7D9FCFCF7A3
:103CD00077FF07EE900AF8EEE77AFCEEE77A17EE48
:103CE000904AACB140F226211848FFF7A9FE1848C7
:103CF00040F22621FFF7A4FE4FF47A7000FB04F097
:103D0000144C00F2E730A4FB0030800904F0E0FC22
:103D100000210E48FFF794FE019A2B689A4206D1C3
:103D20000B48002103B0BDE83040FFF789BEFDF726
:103D3000EFFA00BF280F6B3F00007A4400000243F7
:103D4000008009440008002000408F40A822002085
:103D500090220020D34D62100000000000000000FF
:103D600070B51D4E1D4A1E4B30681E491E4C916099
:103D700082B00021D46001901C4C1D481D4D9D60F7
:103D8000117051705160106154611B481B4A1C4DE9
:103D9000D8601C48197059705960C3E90425FFF7B1
:103DA0008FFC1848FFF7D4FC1749204606F000FBAB
:103DB000204606F035FC2846144906F0F9FA019A27
:103DC00033689A4205D1284602B0BDE8704006F03B
:103DD00027BCFDF79DFA00BF00080020A8220020A4
:103DE00090220020C136000861380008E05D002004
:103DF000E138000851370008A138000811390008DF
:103E0000FC5D002000500108C04F0108804F0108F0
:103E10000A490B4B09680B4A82B0202001914021CE
:103E200058834FF4806559834FF400644FF4804009
:103E300004215D835C8358835183FEE700080020E2
:103E4000000C0240000402400000000000000000DE
:103E500080B5164A164B9269164E17491B68DFF853
:103E60006480164D164C916182B037460193284606
:103E7000FFF716FB204607F04BFD3B462A460C2178
:103E8000204607F0C5FD204607F082FD3078FEF79A
:103E9000FFFC98F80030033B012B4FF0140002D9CF
:103EA00004F016FCE3E7FEF7BBFDE0E7105000204E
:103EB00000080020C02200204050010838380020AF
:103EC0006C5D0020D42100200000000000000000F4
:103ED00010B50C4C0C4923680C4884B0039307F0D0
:103EE000CFFC002300934122094B0A484FF4AF61F5
:103EF00004F096FB039A23689A4201D104B010BDE6
:103F0000FDF706FA00080020305001086C5D002023
:103F1000513E0008C03200200000000000000000F8
:103F200000B50F4B83B01868019002290CD003290B
:103F30000CD001290B4818BF0020019A1B689A4237
:103F40000BD103B05DF804FB0748F6E7032A96BFE0
:103F50000648002000EBC200EFE7FDF7D9F900BFEB
:103F60000008002030510108D0500108E05101083C
:103F700070B5154C82B02368019302291CD10D46FF
:103F80000646202383F3118804F092FE03F0A8FE76
:103F900030460E4A012107F03BFE29460C4A3046C6
:103FA00007F036FE0B4807F00BFB03F0B9FE04F0F8
:103FB00097FE002383F31188019A23689A4201D166
:103FC00002B070BDFDF7A4F90008002050500108B0
:103FD000805001083448002000000000000000006C
:103FE00030B5134D134C2B68134883B0019307F081
:103FF0005FFA1249104807F08BFA226D936B23F495
:10400000002393634FF47A7004F062FB20460C495E
:1040100007F0AEFD226D936B43F400239363019A86
:104020002B689A4201D103B030BDFDF771F900BF92
:1040300000080020D05A002034480020B050010869
:10404000C050010800000000000000000000000057
:1040500000B5084B83B01A680192019A1B689A4216
:1040600005D1054803B05DF804EB04F0F1BFFDF79E
:104070004FF900BF000800203C08002000000000AD
:1040800000B5084B83B01A680192019A1B689A42E6
:1040900005D1054803B05DF804EB05F011B8FDF754
:1040A00037F900BF000800203C0800200000000095
:1040B00070B50D4C82B0236801930D1E06460DDDD0
:1040C000284605F0D5FC18B90C2333604FF0FF30BB
:1040D000019A23689A4205D102B070BD034803F0EB
:1040E0001FFDEDE7FDF714F900080020005201085C
:1040F00000B5064B83B01A680192019A1B689A4278
:1041000002D103B05DF804FBFDF702F900080020BE
:1041100000B5074B83B01A680192019A1B689A4256
:1041200004D103B05DF804EB03F03AB8FDF7F0F802
:104130000008002000000000000000000000000057
:1041400010B50C4C82B02368019315290CD80122BC
:10415000094B8A4013403BB101740020019A236847
:104160009A4204D102B010BD6FF00700F6E7FDF7E8
:10417000CFF800BF000800200B0030000000000056
:1041800000B5074B83B01A680192019A1B689A42E6
:1041900004D103B05DF804EB02F0CABAFDF7B8F839
:1041A00000080020000000000000000000000000E7
:1041B00010B5074B82B01C680194019C1B689C429F
:1041C00004D102B0BDE8104002F072B9FDF7A0F8CA
:1041D00000080020000000000000000000000000B7
:1041E00010B5074B82B01C680194019C1B689C426F
:1041F00004D102B0BDE8104002F072BAFDF788F8B1
:104200000008002000000000000000000000000086
:104210002DE9F04182B002AB0024364D03F8054D84
:1042200090462A6801920F461A460121064603F07D
:10423000DFF90446E0B9B8F1010F9DF803301FD053
:10424000042F53D8DFE807F0322D0328230003F0B2
:10425000FB07BB420CD03A460121304603F068F917
:10426000044628B986F830717169304602F060FA68
:10427000019A2B689A42204636D102B0BDE8F081FF
:10428000042F33D8DFE807F02B26211C170003F09A
:104290007F07BB42DFD1EBE703F0BF07BB42DAD1B8
:1042A000E6E703F0D707BB42D5D1E1E703F0EF071C
:1042B000BB42D0D1DCE743F08007BB42CBD1D7E78C
:1042C00043F04007BB42C6D1D2E743F00407BB42EC
:1042D000C1D1CDE743F02807BB42BCD1C8E743F0CA
:1042E0001007BB42B7D1C3E7FDF712F86FF0030424
:1042F000BEE700BF00080020000000000000000032
:1043000030B583B002AA114D002302F8053D0C46DA
:104310002B680193012103F06BF978B99DF8033004
:10432000C3F30011C3F3C0022170A270C3F3800174
:10433000C3F38012DB096170E2702371019A2B686C
:104340009A4201D103B030BDFCF7E2FF0008002023
:1043500070B5134C84B00E46236803930DF106022A
:10436000F821054603F05CF928B1039A23689A42C4
:1043700013D104B070BD02AA0421284603F068F9E5
:104380000028F2D1BDF8062012B93368AB61ECE722
:10439000029BB3FBF2F33360F8E7FCF7B9FF00BF11
:1043A00000080020000000000000000000000000E5
:1043B00000B5084B027F18680A7083B00190019A1B
:1043C0001B689A4203D1002003B05DF804FBFCF7A0
:1043D0009FFF00BF00080020000000000000000058
:1043E00070B5104C82B00E46236801930DF10202A5
:1043F0002021054603F014F938B9BDF8023053B155
:10440000DB00012233602B622A77019A23689A42EB
:1044100005D102B070BD2B6A33602877F5E7FCF751
:1044200077FF00BF0008002000000000000000002F
:10443000F0B5294F83B03B680193052947D80E4654
:104440000446154662B100EB81020023526B012045
:10445000711E04292FD8DFE801F025221306310050
:1044600010460123F4E75B00FE226021204603F0A2
:104470008FF870B9344445B9284684F8285008E0CC
:1044800084F82B003444002DF6D0012384F8283022
:104490000020019A3B689A421CD103B0F0BD84F819
:1044A0002A00EFE7C2F34F224421204603F058F8D8
:1044B0000028DFD0EDE784F82800E3E71B01EF22B6
:1044C0006021204603F064F80028D3D0E1E76FF0C4
:1044D0000300DEE7FCF71CFF0008002000000000DE
:1044E00010B50C4B82B01C68019405290AD8014410
:1044F000002091F828101170019A1B689A4206D189
:1045000002B010BD002111706FF00300F4E7FCF75A
:10451000FFFE00BF000800200000000000000000B7
:10452000F0B543181C4E83B0044693F82800336856
:1045300001930D46174630B105292AD8DFE801F06E
:10454000141E1A1C0C0C04EB81046263019A33687C
:104550009A421CD103B0F0BDC2F34F226421204621
:1045600002F0FEFF08B1F1E7626304EB850400206E
:104570006763EBE7E263F8E72264F6E7C2F34F22F2
:104580004421204602F0ECFF0028EED0DEE7FCF7E5
:10459000BFFE6FF00300D9E7000800200000000014
:1045A00070B5204C82B02368019305461646052954
:1045B00034D8DFE801F0030E0C1E2020436B33607B
:1045C0000020019A23689A4226D102B070BDC36BC5
:1045D000F5E70DF10202442103F022F80028F0D1A2
:1045E000BDF802305A028BB9AB6B336085F82900F5
:1045F000E7E7036CE3E70DF10202642103F010F832
:104600000028DED1BDF802305B02D8E7012332601A
:10461000AA6385F82930D4E7FCF77AFE6FF003002F
:10462000CFE700BF000800200000000000000000ED
:1046300070B5104C82B00E46236801930DF1030251
:104640000121054602F0D4FF58B99DF8033085F8E2
:1046500030311B064BBF012303463370307085F8A1
:104660004C30019A23689A4201D102B070BDFCF728
:104670004FFE00BF00080020000000000000000006
:104680002DE9F047DFF898A0027CDAF8003082B01C
:104690000F4601F8082B06460193FFF759FEA0BB11
:1046A000387307F110013046FFF79AFE68BB07F137
:1046B0001401304600F064FD38BB044607F12405C0
:1046C00006F1280907F118082A46A1B23046FFF77B
:1046D00067FFD0B9013419F8013B08F8013B062CFB
:1046E00005F10405F0D107F13C013046FFF7A0FFCA
:1046F00058B9019ADAF800309A420ED1391D304685
:1047000002B0BDE8F04702F08BB8019ADAF8003049
:104710009A4202D102B0BDE8F087FCF7F9FD00BF74
:104720000008002000000000000000000000000061
:104730002DE9F041614F92B005463B68119300228C
:10474000882102F0F5FE4FF47A724FF4C8735C4989
:10475000A5F85221A5F854315A4AC5F8581100233A
:10476000C5F8D42085F8F0302B62284601A9FFF760
:1047700087FF044688B9ADF8040001AE0FCE05F1FD
:10478000100CACE80F000FCEACE80F000FCEACE879
:104790000F0096E80F008CE80F004B4BC5F8343142
:1047A00001264FF420634FF4FA72A5F83C31A5F8C6
:1047B00038218021324685F85061284602F0B8FE43
:1047C00032468046FF21284602F0B2FE002248EA27
:1047D000000011460443284602F0AAFE64B20DF11F
:1047E000030204439121284602F002FF64B29DF8BF
:1047F000033085F83A31044332460021284602F05E
:1048000097FE64B200220443FF21284602F090FE86
:1048100064B2044300228021284602F089FE64B27B
:10482000204340B278B90146324628463446FFF765
:10483000FFFD40B90122A1B228461444FFF7F8FD5C
:10484000062CF6D130B1119A3B689A4233D112B09E
:10485000BDE8F0816885024604212846FFF7E8FD9F
:104860000028F0D1024605212846FFF7E1FD002887
:10487000E9D14FF490136B634FF480420121284635
:10488000FFF74EFE0028DED14FF40C13EB6395F8D2
:104890002B3003B10023FF222B6485F83021012146
:1048A000284602F045FE012385F832310028CAD19E
:1048B00085F81501C7E7FCF72BFD00BF00080020B5
:1048C000856B0100A47009006400840300000000EF
:1048D00010B5084B82B01C680194019C1B689C4277
:1048E00005D1012302B0BDE8104000F039BFFCF74C
:1048F0000FFD00BF000800200000000000000000C5
:1049000030B5184C90F8DA30226883B0042B01924D
:104910000D460DF1030211D0142102F069FE20B9F9
:104920009DF80330DB0706D42870019A23689A4269
:1049300015D103B030BD01232B70F6E7132102F02F
:1049400057FE9DF8033013F0180F03F0070318BF4C
:104950006FF00500042BEED000232B70E5E7FCF789
:10496000D7FC00BF0008002000000000000000008D
:104970002DE9F047564F8EB03B680D930C460C2343
:104980000AAA1421054602F0B3FD8646002840F02D
:104990008B809DF82EE09DF830C09DF82F209DF86B
:1049A00031109DF82A609DF82B30A07502EB0E2285
:1049B00001EB0C2192B289B249025202C4E90321EF
:1049C00003EB0623C4E900009BB2A3829DF832806A
:1049D0009DF83360B5F852E195F831C19DF8281083
:1049E00006EB0826BEF57A7FB6B21FD006FB0EF6A0
:1049F000DFF8E09095F81C80D5F820E006F5FA760F
:104A0000A9FB0696B609B8F1000F0ED01FFA8EFE6C
:104A100003FB0EFE4FEA2E2E72454DD0B6B202FBBE
:104A200006F6A2EB0E0EB6FBFEF6B6B2BCF1000F18
:104A300047D0B001C0B2B608E0750DF10B00268179
:104A4000CDE90040284602F043FA864660BB9DF857
:104A50000B8084F8188005F150060FCE0DF10C0C78
:104A6000ACE80F002389ADF8143096E8070063899D
:104A7000ADF81630E36894F817A0B4F814900693D4
:104A80002369646804948CE8070003AC8DF82480E3
:104A90008DF823A00793ADF820900FCC50350FC5AB
:104AA0009CE8070086E807000D9A3B689A4270462A
:104AB0000CD10EB0BDE8F087BCF1000F03D148F671
:104AC000E0260020B8E740F6AE06B5E7FCF720FC8C
:104AD00000080020D34D621000000000000000001C
:104AE0002DE9F041134D144C296882B0164601910E
:104AF0000DF102020E211F46804602F091FDBDF825
:104B0000023004EA4343336050B90DF102024046DB
:104B10000C2102F085FDBDF8023004EA43443C60FC
:104B2000019A2B689A4202D102B0BDE8F081FCF7ED
:104B3000EFFB00BF000800200000FE1F0000000087
:104B4000F0B590F8DA30254C85B0013B226803922D
:104B5000022B07D90025039A23689A4228463AD1A6
:104B600005B0F0BD02AB0F4601AA01210646FFF7D2
:104B7000B7FF019BB3F57F0F05461FD9002DEAD182
:104B80001FBB0422FF21304602F0D2FC2A46074612
:104B90007021304602F0CCFC2A460743FF21304604
:104BA00002F0C6FC7FB22A46802147EA0005304663
:104BB00002F0BEFC6DB205436DB2CCE7029BB3F5CB
:104BC0007F0FC8D9002DDBD0C5E73046044901F07E
:104BD0009FFE0546BFE7FCF79BFB00BF00080020D7
:104BE0004409002000000000000000000000000058
:104BF000F0B53F4F057C3B6883B00446012280211D
:104C0000019302F095FC0122FF21204602F090FC66
:104C100000221146204602F08BFC94F83A219121A3
:104C2000204602F085FC01220021204602F080FC93
:104C30000022FF21204602F07BFC2046002280213A
:104C400002F076FC012D37D017D3032D08D06FF07A
:104C50000706019A3B689A42304647D103B0F0BD3F
:104C600068B304220021204602F062FC06460028B8
:104C7000EFD1042384F83231EBE7012200212046F2
:104C800002F056FC012306468DF803300028E0D1DF
:104C900005462DB301350DF103020021204602F037
:104CA000A7FC9DF80330DB0713D590B9B5F5FA6F73
:104CB000EFD16FF00606CCE730B10222D2E7012136
:104CC0002046FFF73DFFCCE729462046FFF738FF97
:104CD000F3E7B5F5FA6F14BF06466FF00606B8E7BE
:104CE0009DF80330DA07B4D50225D4E7FCF710FBB2
:104CF000000800200000000000000000000000008C
:104D000030B5114C037C226883B0019283B905460B
:104D1000FFF76EFF30B9284600F072FF10B9032389
:104D200085F83231019A23689A420AD103B030BD26
:104D3000019A23689A4204D103B0BDE8304000F0E4
:104D40005FBFFCF7E5FA00BF00080020000000008C
:104D5000F0B51A4F83B03B68019306460025012247
:104D60000B21304602F0E4FB002204460B213046C2
:104D700002F0DEFB0DF1030204431321304602F082
:104D800037FC9DF8033064B2204301355B0740B225
:104D9000EDB20CD0032D07D00028E0D0019A3B687B
:104DA0009A4209D103B0F0BD6FF00B00F6E7032D76
:104DB00008BF6FF00B00F1E7FCF7AAFA000800202B
:104DC00070B5124C82B000222368027405460E466C
:104DD0000193FFF795FF28B1019A23689A4212D1F7
:104DE00002B070BD31462846FFF7C2FD0028F3D15E
:104DF000019A23689A4206D10146284602B0BDE8CE
:104E00007040FFF7A5BFFCF783FA00BF0008002041
:104E1000F0B5574D83B02C680194152906463AD059
:104E200014461F46042A00F2A080DFE802F0213277
:104E30002E30030004220A21304602F079FBF0B93B
:104E4000002F14BF10230023EF228421304602F0EC
:104E50009FFBA0B9019A2B6886F8DA409A4240F08D
:104E600082800146304603B0BDE8F040FFF770BFD6
:104E700000220A21304602F05BFB0028E0D0019AB4
:104E80002B689A426FD103B0F0BD0222D3E7032210
:104E9000D1E70122CFE70122FF2102F049FB0022E6
:104EA00011460446304602F043FB00220443FF2132
:104EB000304602F03DFB64B20122044380213046BB
:104EC00002F036FB64B2022204438521304602F030
:104ED0002FFB64B204220443FF21304602F028FB7A
:104EE00064B200220443CD21304602F021FB64B2BB
:104EF00011220443CC21304602F01AFB64B207228F
:104F00000443FF21304602F013FB64B20022044345
:104F1000BE21304602F00CFB64B206220443FF219E
:104F2000304602F005FB64B209220443CC2130462E
:104F300002F0FEFA64B200220443FF21304602F080
:104F4000F7FA64B201220443FF21304602F0F0FA7E
:104F500064B2002204431146304602F0E9FA64B21A
:104F6000204340B28BE7FCF7D3F96FF00A0086E7E5
:104F70000008002000000000000000000000000009
:104F8000F0B5704F97B004463B681593402200215E
:104F900005A80CF05DFC002320460121ADF80A3085
:104FA0008DF807308DF80830039300F091FE94F8E7
:104FB0001421012A06D894F8131100F0B9800C29A5
:104FC00040F2B98002AA03A9204600F0F9FB054689
:104FD000002D40F0A38094F85031002B00F0A58004
:104FE0005949204601F094FC0546002840F096807F
:104FF0002B46294604222046FFF70AFF05460028D3
:1050000040F08C800122FF21204602F091FA0DF140
:105010000A0206468421204602F002FB2A46FF21AE
:1050200046EA0005204602F083FA6DB205436DB2F0
:10503000002D73D1BDF80A301B01C4F8D43005A986
:105040002046FFF71DFB0546002867D10DF107023A
:105050000921204602F0CCFA054600285ED105AEB3
:105060000FCE9DF807C004F110050CF0010C84F878
:1050700031C10FC50FCE0FC50FCE0FC596E80F007B
:105080008DF807C085E80F000DF1070201212046C9
:1050900002F0AEFA0546002840D19DF8073084F8AA
:1050A0003031024601462046FFF7B2F80546A8BB5C
:1050B000024602212046FFF7ABF8054670BB0323EA
:1050C000014684F832310DF10902204601F008FB57
:1050D000054618BB9DF8093084F8E8300DF1090247
:1050E0000121204601F0FCFA0546B8B99DF80930C7
:1050F00084F8E03004AA0321204601F0C9F80546EF
:1051000060B9049BC4F8E43004AA0421204601F0ED
:10511000BFF8054610B9049BC4F8DC30159A3B680B
:105120009A4228460CD117B0F0BDD4F84C1158E77C
:1051300020293FF647AF204600F042F9054647E7F1
:10514000FCF7E6F8000800205008002000000000EE
:1051500010B5074B82B01C680194019C1B689C42EF
:1051600004D102B0BDE8104000F02ABBFCF7D0F833
:105170000008002000000000000000000000000007
:1051800030B5134C83B00D46236801930DF1020234
:10519000282102F045FA50B9BDF80230C3F30B03E1
:1051A000B3F5006F09D2FA2202FB03F32B60019AD8
:1051B00023689A420AD103B030BDA3F58053C3EBF4
:1051C000431203EB82035B002B60F0E7FCF7A0F8CF
:1051D00000080020000000000000000000000000A7
:1051E000F0B5DFF860C083B0DCF800400194D70868
:1051F0004FF0FF348F421C6017D23C1902F00702B7
:1052000020443E4610F8015FBE4203BF1541EDB297
:105210001446002415F0010F0ED10134082C4FEA7A
:105220005505F7D10136B142ECD1019ADCF80030D6
:105230009A4205D103B0F0BD04EBC6041C60F4E74C
:10524000FCF766F8000800200000000000000000E5
:105250002DE9F04F87B0354CDDF84C802468129E64
:1052600005941F46149B01900296DDE9105B0093A4
:10527000B8F1000F33D08A46914600241AE003EBC0
:105280000B0292092A4951F82220003218BF01224C
:10529000524518D1DA08954207D9B85C03F00701E6
:1052A000012606FA01F10143B9540134A04503F186
:1052B000010614D002AB324629464846FFF790FF5C
:1052C000029B5A1CDBD1009B6FF031001E60174B14
:1052D000059A1B689A4227D107B0BDE8F08F009B62
:1052E00001981E603A460623B02102F0E1F800283A
:1052F000EDD1019803AA0623B02102F0F9F8002DA0
:10530000E5D09DF80C203B789A420AD13D4403AB8E
:105310000137AF42DBD017F8012B13F8011F914280
:10532000F7D06FF03100D2E7FBF7F2FF0008002062
:10533000FC0A002000000000000000000000000047
:10534000F0B51D4D90F830612B6889B00F46C02232
:1053500001210446079302F0EBF828B1079A2B6865
:105360009A4226D109B0F0BD69462046FFF728FDD4
:105370000028F3D10122FF21204602F0D9F80028AD
:10538000ECD13A46B621204602F04AF90028E5D190
:105390000246FF21204602F0CBF80028DED132463B
:1053A0000121204602F0C4F80028D7D184F83061EA
:1053B000D4E7FBF7ADFF00BF0008002000000000AD
:1053C000F0B52F4E89B00F4615463368079301227A
:1053D000FF21044602F0ACF8A8B30021C4F8241160
:1053E000A4F828116DB327488368012203B306A8E7
:1053F000B4220623CDE90032CDE90217049004F56A
:10540000927304F5957229462046FFF721FF30B9C3
:10541000012384F8137184F8145184F81531079A24
:1054200033689A422AD109B0F0BD2C290A46DED051
:1054300002F1B5039B09511C50F82330002BF4D026
:10544000D5E72946D3E702464F21204602F070F8FF
:105450000028C2D12C224E21204602F069F80246D3
:105460000028BAD1FF21204602F062F80028B4D10A
:10547000B422B621204602F05BF8AEE7FBF748FF06
:1054800000080020FC0A00200000000000000000CE
:1054900030B5164C83B041F001022368019300211E
:1054A000054602F045F8024630B101992368994259
:1054B000104619D103B030BD284600F0A1FB0246CA
:1054C0000028F2D101462846FFF742FC0246002898
:1054D000EBD101992368994206D12846114603B0C1
:1054E000BDE8304002F024B8FBF712FF00080020AE
:1054F0002DE9F04F87B03F4F109C039400263C6885
:1055000002928A460122FF210546019305948DF8F7
:105510001360DDF844809DF848B09DF84C9002F08F
:1055200007F8324604463146284602F001F8324672
:105530000443FF21284601F0FBFF64B2044364B238
:10554000BAF1000F27D0BBF1000F33D1B9F1000F32
:105550003AD10122FF21284601F0EAFF012204434B
:105560000021284601F0E4FF64B200220443FF2139
:10557000284601F0DDFF9DF81330059A23F0100353
:1055800088F800303B6864B220439A4240B22FD181
:1055900007B0BDE8F08FBBF1000F1ED1B9F1000FCD
:1055A000D7D0019B8022EE21284601F0F1FF044371
:1055B00064B2CEE7039ACB21284602F019F80443DF
:1055C00064B2B9F1000FC4D00DF11302EE212846E8
:1055D00002F00EF8044364B2BBE7029ACB212846DE
:1055E00001F0A6FF044364B2B9F1000FB1D0D8E7CF
:1055F000FBF78EFE00080020000000000000000005
:105600002DE9F0472A4F86B03C68059400240546F2
:10561000884691468DF813401E469BB1012290F8B2
:1056200030A11146284601F083FF044698B10023BB
:1056300088F80030059A3B689A42204635D106B07A
:10564000BDE8F0870122114628469A4601F070FF16
:1056500004460028EBD140212846FFF719FF0446F5
:105660000028E4D1B9F1010F0ED088F80000002E17
:10567000E0D052460121284601F05AFF0446002896
:10568000D8D185F830A1D5E70DF11303CDE902900B
:10569000019302460346CDF8008049462846FFF7AD
:1056A00027FF0028E3D00446C4E7FBF731FE00BF24
:1056B00000080020000000000000000000000000C2
:1056C0002DE9F047254F86B03C680594054688468D
:1056D00091461E469BB190F830A102220121284636
:1056E00001F026FF044660B1002388F80030059AD7
:1056F0003B689A4220462ED106B0BDE8F0879A4614
:10570000EBE701462846FFF7C3FE04460028EBD12D
:10571000B9F1010F0ED088F80000002EE7D05246F4
:105720000121284601F004FF04460028DFD185F856
:1057300030A1DCE70DF11303CDE902090093024625
:105740000346CDF8048049462846FFF7D1FE0028DD
:10575000E3D00446CBE7FBF7DBFD00BF00080020E9
:105760002DE9F041144C90F8307182B01E46236848
:1057700001939046002332460546FFF741FF30B1C2
:10578000019A23689A4214D102B0BDE8F081034621
:10579000324641462846FFF793FF0028F0D13A46AB
:1057A0000121284601F0C4FE0028E9D185F83071B6
:1057B000E6E7FBF7ADFD00BF000800200000000099
:1057C0002DE9F04FDFF8B0A2B0F83C71DAF80040F4
:1057D00095B00023CDE90912C0F82431A0F8283192
:1057E0000122FF2106461394CDE90F338DF838309E
:1057F0008DF8393001F09CFE054648B1139ADAF86D
:1058000000309A42284640F0318115B0BDE8F08F53
:1058100002464F21304601F08BFE05460028EDD1AF
:105820002C224E21304601F083FE05460028E5D1AA
:105830000246FF21304601F07BFE05460028DDD1FF
:10584000B422B621304601F073FE05460028D5D1BA
:1058500002468021304601F06BFE05460028CDD17E
:1058600003460DF139020EA93046FFF779FF0546D0
:105870000028C3D10DF1500B06F595734BF8140DAC
:105880000320039006F592780620B4240D93029528
:1058900029461A46CDE90004CDF810B043463046FB
:1058A000FFF7D6FC05460028A8D10DF13A01304695
:1058B0000F9CFFF745FD054600289FD1BDF83A3003
:1058C000BB4230D904F1B4039B096A4951F8232043
:1058D0000023C6F82431A6F82831002A40F0BF8002
:1058E0002B2C03D9BBE02C2A144607D004F1B503B6
:1058F0009B09621C51F82330002BF4D0B4210623FD
:105900004FF00309CDE90031CDE90229CDF810B0FF
:1059100043460D9A01213046FFF79AFC002800F01B
:105920008D8005466AE700220C9291460792BB42A1
:1059300066D2DB1B002BB8BF5B42B8F80420D8F856
:10594000000008930B959DF81C300D9DADF8482084
:1059500011900C934FF0030B224610AB0621284602
:10596000FFF73EFC109C631C10D004F1B403414AC5
:105970009B0952F82330079A003318BF0123934242
:1059800059D1E308052B0BF1010902D96FF031055C
:1059900034E718F8031004F00702012000FA02F2BD
:1059A0000A4308F80320B02106234246304601345A
:1059B00001F07EFD0028B4D10DF13A013046FFF729
:1059C000BFFC0028ADD1BDF83A20D31B002BB8BFD7
:1059D0005B42BA4225D9089A0B9D934210D90623FF
:1059E00011AAB021304601F063FDBDF848200346FE
:1059F0001198C6F82401D946A8F80420002B37D105
:105A0000099A0A999DF83040C2F8009001230C7061
:105A100086F81531136886F813310B7886F814313F
:105A2000ECE6D8F80000B8F8042011900893CB46B3
:105A3000ADF8482090E70B9DD946E1E70DF13A011A
:105A400030460F9CFFF77CFC00287FF46AAFBDF85E
:105A50003A30BB4205D901220C92079267E72246F1
:105A60004CE701220C908146079260E7FBF750FC5F
:105A70001D46C3E6FC0A00200008002000000000CC
:105A800010B50E4982B00B680193013830F0FF0366
:105A900009D000234008013320F0FF029BB2002A06
:105AA000F8D11B029BB2019C0A681844944280B250
:105AB00001D102B010BDFBF72BFC00BF0008002095
:105AC0002DE9F0434B4E85B0336803930329174605
:105AD000054657D0042940F0878001A9FEF710FC45
